:100BFC00D6DCC8D500D6DCD2BB00D6DCB6FE00D61F
:100C0C00DCC800D6DCCBC400D6DCCEE500D6DCC11B
:100C1C00F900D5FBB5E3B1A8CAB1202000BFAA00EA
:0F0C2C00B9D8001F1C1F1E1F1E1F1F1E1F1E1FBB
:100A2700013417012B3B01213A023007E4012E0262
:100A370001331C017900012F1701253B017800C103
:100A470000C101C103C10202270000017A0010376B
:100A5700202020202020202020202020202020208F
:100A67001047202020202020202020202020202068
:100A77002020105720202020202020202020202048
:100A87002020202010672020202020202020202028
:100A9700202020202020012C000124000229000012
:100AA70001350001360001771701323B01260001AD
:060AB7002D0002220000E8
:05000600120CD180FE88
:100CD1001208C0120D39120531C2A2D2AFD288D288
:100CE100A8D28AD2AAD2B9758901D2A9D28C758C1F
:050CF100D8758AF02215
:03053100E4FFFEE6
:100534008F2DE52D60030207167B007A00793712B0
:100544000CAD7B007A007947120CAD120CA77B002E
:100554007A007967120CADE53475F00A842430F51D
:100564003BE53475F00A84E5F02430F53C753D3AFA
:10057400E52B75F00A842430F53EE52B75F00A84EA
:10058400E5F02430F53F75403AE52175F00A8424FE
:1005940030F541E52175F00A84E5F02430F542AEEA
:1005A40030AF317C037DE81209D2EF2430F54AAE36
:1005B40030AF317C007D641209D27C007D0A1209BF
:1005C400D2ED2430F54BAE30AF317C007D0A1209F8
:1005D400D27C007D0A1209D2ED2430F54CAE30AF46
:1005E400317C007D0A1209D2ED2430F54D754E2D73
:1005F400E52E75F00A842430F54FE52E75F00A8453
:10060400E5F02430F55075512DE53375F00A842456
:1006140030F552E53375F00A84E5F02430F553E5FE
:1006240079B407005076900631F8282873020646FC
:1006340002065102065C02066702067202067D0289
:1006440006887518FF75190B751AFC80407518FF1C
:1006540075190C751A0180357518FF75190C751A02
:1006640006802A7518FF75190C751A0B801F7518EA
:10067400FF75190C751A0F80147518FF75190C7510
:100684001A1480097518FF75190C751A19751B0051
:10069400751C047B007A00795D120BAA7518FF752E
:1006A400190C751A1E751B00751C0A7B007A0079DB
:1006B40069120BAA30010B7518FF75190C751A29EC
:1006C40080097518FF75190C751A2C751B00751C9B
:1006D400027B007A007973120BAA7B007A007937C7
:1006E4007519107F80120C737B007A007947751995
:1006F400107F90120C737B007A0079577519107F64
:1007040088120C737B007A0079677519107F981230
:030714000C732241
:100C3B000528E52870020527C39401E52794004099
:100C4B0026D3E5289465E52794004005757A028044
:100C5B000F20020320B20630020D30B30A757A0161
:080C6B00E4F527F528C203227D
:100340003002030203FFE52DB41400400302052D23
:10035000900357F82828730203930203B70203BDE2
:100360000203C30203A50203AB0203B10203990215
:10037000052D02052D02039F0203C90203CF0203CC
:10038000D50203DB0203E10203E70203ED0203F3FC
:100390000203F9752D0702052D752D0A02052D1290
:1003A000053102052D752D0502052D752D06020559
:1003B0002D752D0402052D752D0202052D752D03B9
:1003C00002052D752D0102052D752D0C02052D75CB
:1003D0002D0D02052D752D0E02052D752D0F020513
:1003E0002D752D1002052D752D1102052D752D125F
:0F03F00002052D752D1302052D752D0B02052D00
:1003FF00E52D14B41300400302052D90041875F079
:10040F0003A4C58325F0C583730204510204690256
:10041F0004760204BB0204C80204D50204E20204FB
:10042F00E40204E90204EE0204F20204FF02050CE6
:10043F0002051102051602051B0205200205250201
:10044F00052A0531E53170020530AE30FF7C277D7E
:10045F00101209D28C308D31804DE52E75F00C8441
:10046F00E5F004F52E8040E5315403700EAE30AF49
:10047F0031FC7D641209D2ED4C700FAE30AF317C80
:10048F00017D901209D2ED4C700CE52EB40207E5F8
:10049F003375F01D800BE52E900C2E93FFE5338FF7
:1004AF00F084E5F004F5331208C080720508E50802
:1004BF0075F0188485F00880650509E50975F03C2D
:1004CF008485F0098058050AE50A75F03C8485F0AB
:1004DF000A804B8005752D098044752D08803FB229
:1004EF0000803B0577E57775F0188485F077802ECF
:1004FF000532E53275F03C8485F0328021632601A8
:10050F00801C6326028017632604801263260880EE
:0E051F000D63261080086326208003632640AB
:04052D00E4F57A2255
:10071700200273E52DB4140040030208BC90072B98
:10072700F828287302076702076D02076D02076D35
:100737000207780207780207780208BC0208BC02A1
:1007470008BC02077B0207810207810207810207B3
:10075700810207810207810207810207810207815F
:10076700752D040208BC120B4A50030208BC02088C
:100777002B02082B752D0B0208BC85772F85322598
:100787008526780208B9E52DB4140040030208BC99
:1007970090079EF82828730207DA02083402084DEA
:1007A70002085E02082B02082B02082B0208BC0273
:1007B70008BC0208AB0208BC0208B00208B0020875
:1007C700B00208B00208B00208B00208B00208B0D0
:1007D7000208B0B2017518FF75190C751A1E751B42
:1007E70000751C0A7B007A007969120BAA30010B8D
:1007F7007518FF75190C751A2980097518FF751971
:100807000C751A2C751B00751C027B007A00797316
:10081700120BAA7B007A0079677519107F98120C62
:10082700730208BCE4FFFE1205340208BCE531156B
:100837003170021530AE30AF317C277D101209D2EE
:100847008C308D318059740A252EF52E75F00C8465
:10085700E5F004F52E8048E5315403700EAE30AF55
:1008670031FC7D641209D2ED4C700FAE30AF317C94
:10087700017D901209D2ED4C7010E52EB4020B7475
:100887001B2533F53375F01D800FE52E900C2E9345
:10089700FF24FE2533F5338FF084E5F004F533129A
:1008A70008C08011752D07800C852F778525328527
:0908B7007826752D0AE4F57A2279
:100CF6000521E521D3943B4005E4F521052BE52BA1
:100D0600D3943B4005E4F52B0534E534D3941740E2
:050D160003E4F53422A6
:100D1B000533120B4A5016753301052EE52E940C34
:0E0D2B00400B752E010531E5317002053022B6
:1008C000E52ED39402AE30AF317C007D6440091236
:1008D00009D2AE04AF05800B1209D2ED24FFFFEC64
:1008E00034FFFEEF7802CEC313CE13D8F9FBAA066D
:1008F000E52ED39402AE30AF317C007D6440091206
:1009000009D2AE04AF05800B1209D2ED24FFFFEC33
:1009100034FFFEEB2FFBEA3EFAAE30AF317C007DB8
:10092000641209D2AC06AD07ED7802CEC313CE1324
:10093000D8F92BFBEA3EFAED25E0FFEC33FEC3EBE2
:100940009FFBEA9EFAE52ED394024004AF2E800569
:10095000E52E240CFFEF2401FFE433FE7C007D1A1A
:100960001209C07D0A1209D2EF2BFFEE3AFE7C007D
:10097000EF2533FFEC3ECF24FFCF34FFFE7D07127F
:0509800009D28D79226F
:080B4A00AB33AD2EAF31AE302C
:100B5200AA058F828E83EAD3940C5006EAC39401CD
:100B62005002D322EBC39401500122E58254037058
:100B72000EFC7D64AF82AE831209D2ED4C700FAED3
:100B820083AF827C017D901209D2ED4C700BBA02C8
:100B920008EBD3941D400FD322EA900C2E93FFEB67
:080BA200D39F4002D322C322BD
:060CA7007B007A00795782
:060CAD008B158A16891761
:100CB300120D71E4FEEEC39F5013AB15AA16A917CC
:0D0CC3008E82758300742012099E0E80E859
:010CD0002201
:03000300020DAA41
:080DAA00200304D203C202324F
:03001300020DB229
:080DB200200304D203D2023237
:03000B00020016DA
:10001600C0E0C0F0C083C082C0D075D000C000C0B0
:1000260001C002C003C004C005C006C0070523E521
:100036002370020522758CD8758AF0E52364644521
:100046002260030201FBF522F523120CF6E52D7062
:100056005EFB7A007937120CADE53475F00A84241C
:1000660030F53BE53475F00A84E5F02430F53C754F
:100076003D3AE52B75F00A842430F53EE52B75F004
:100086000A84E5F02430F53F75403AE52175F00A1B
:10009600842430F541E52175F00A84E5F02430F535
:1000A600427B007A0079377519107F80120C73E550
:1000B6003460030201FBE52B60030201FBE52160CE
:1000C600030201FB120D1B1208C0E52D600302019D
:1000D600FBFB7A007947120CAD120CA7AE30AF319C
:1000E6007C037DE81209D2EF2430F54AAE30AF31F9
:1000F6007C007D641209D27C007D0A1209D2ED24AF
:1001060030F54BAE30AF317C007D0A1209D27C004F
:100116007D0A1209D2ED2430F54CAE30AF317C00A9
:100126007D0A1209D2ED2430F54D754E2DE52E755A
:10013600F00A842430F54FE52E75F00A84E5F024A4
:1001460030F55075512DE53375F00A842430F5529B
:10015600E53375F00A84E5F02430F553E579B40704
:10016600005076900170F8282873020185020190EC
:1001760002019B0201A60201B10201BC0201C77580
:1001860018FF75190B751AFC80407518FF75190C48
:10019600751A0180357518FF75190C751A06802AAF
:1001A6007518FF75190C751A0B801F7518FF7519D0
:1001B6000C751A0F80147518FF75190C751A1480B2
:1001C600097518FF75190C751A19751B00751C042D
:1001D6007B007A00795D120BAA7B007A007947755D
:1001E60019107F90120C737B007A007957751910DD
:1001F6007F88120C73300303120C3BE57AB40105B9
:100206001203408008E57AB40203120717E52D6051
:100216000302029730007AE534652F702EE52BB580
:100226002529E5217025047E00A879088005C333B9
:10023600CE33CED8F9FFEF5578D3940074809480EE
:100246004009E5234522700375240CE5246042C36A
:10025600E49523E49522500BC3E5239419E52294F3
:10026600004015C374329523E49522500FC3E5234D
:10027600944BE52294005004B2A28002C2A2AE22A0
:10028600AF237C007D191209D2ED4C70041524C2EF
:10029600A2E52D704030013DE52C7011E52B700D67
:1002A600E5217009E52345227003752C08E52C60CD
:1002B60024D3E5239432E52294004004B2A28002BE
:1002C600C2A2AE22AF237C007D321209D2ED4C7061
:1002D60004152CC2A2E52D24F9600514600D803F9B
:1002E600752900752A007535008031740A252AF5AE
:1002F6002AE43529F529D3E52A94E7E5299403402C
:1003060008752900752A000535E535D3943B400567
:100316007535000536E536D3943B4003753600D077
:1003260007D006D005D004D003D002D001D000D02B
:0A033600D0D082D083D0F0D0E032A6
:100D57008F1B120D86C2B5A20592B4D2B6851B9021
:0A0D67007F057E00120D98C2B6222F
:100D3900D2B7C2057F30120D57C2057F0C120D576D
:0E0D4900C2057F01120D57C2057F06020D572D
:100D86007FFAC2B4D2B5D2B6E59030E702DFF9C237
:010D9600B6A6
:010D97002239
:060C73008B168A17891898
:100C7900C205120D57E4F51AE51AC39519501EABB2
:100C890016AA17A918120985FFD205120D57740162
:0D0C99002518F518E43517F517051A80DB4E
:010CA600222B
:100D9800EEC313FEEF13FFEF1FAC0670011E4C707D
:020DA800F62231
:03000000020ABE33
:0C0ABE00787FE4F6D8FD75817A020B0504
:10098500BB010689828A83E0225002E722BBFE0270
:09099500E32289828A83E49322A3
:10099E00F8BB010DE58229F582E5833AF583E8F08F
:1009AE00225006E92582C8F622BBFE05E92582C83B
:0209BE00F22223
:1009C000EF8DF0A4A8F0CF8CF0A428CE8DF0A42E4B
:0209D000FE2205
:1009D200BC000BBE0029EF8DF084FFADF022E4CC09
:1009E200F875F008EF2FFFEE33FEEC33FCEE9DECD2
:1009F200984005FCEE9DFE0FD5F0E9E4CEFD22ED18
:100A0200F8F5F0EE8420D21CFEADF075F008EF2F61
:100A1200FFED33FD4007985006D5F0F222C398FD52
:050A22000FD5F0EA22EF
:100BAA008B158A168917E4F51DF51EE51C151CAE72
:100BBA001B7002151B4E6033AB18AA19A91A120929
:100BCA0085FFAB15AA16A917051EE51EAC1D7002F6
:100BDA00051D14F5828C83EF12099EEF60CD740116
:100BEA00251AF51AE43519F51980C0AB15AA16A904
:020BFA001722C0
:100D7100E4FFFE120985600C0FEF70010E09E970A6
:050D8100F20A80EF22E0
:100ACA00020006E493A3F8E493A34003F68001F23C
:100ADA0008DFF48029E493A3F85407240CC8C3332D
:100AEA00C4540F4420C8834004F456800146F6DFFC
:100AFA00E4800B0102040810204080900A27E47E5B
:100B0A00019360BCA3FF543F30E509541FFEE493F0
:100B1A00A360010ECF54C025E060A840B8E493A3B7
:100B2A00FAE493A3F8E493A3C8C582C8CAC583CAE2
:100B3A00F0A3C8C582C8CAC583CADFE9DEE780BE9A
:010ABD000038
:00000001FF
