:100B4600C0F9A4B0999282F880908883C6A1868E57
:100B5600BFFF1F1C1F1E1F1E1F1F1E1F1E1F010261
:080B6600040810204080FF008C
:100A3D00013A1701323B01213A023707E401350231
:100A4D0001391C023C000501361701253B0134001C
:100A5D00013F0008280000000000000000022200F5
:100A6D0000C101C10002260000014000C103C10206
:100A7D0001330001240002300000013B00013E0063
:100A8E000527E52770020526C3940AE52694004043
:100A9E0026D3E52794F2E52694034005754002809F
:100AAE000F20020320B20630020D30B30A7540014A
:080ABE00E4F526F527C203222E
:1009DF00AA058F828E83EAD3940C5049EAC39401FF
:1009EF0050028041EBC3940150028039E5825403D9
:1009FF00700EFC7D64AF82AE8312098AED4C700FCE
:100A0F00AE83AF827C017D9012098AED4C700BBAD8
:100A1F000208EBD3941D4012800BEA900B5793FF03
:0E0A2F00EBD39F40057E007F0122E4FEFF22F4
:1003DC0020027AE534B40E0040030206619003F06B
:1003EC00F828287302041A02066102043B02044135
:1003FC0002044702042902042F02043502042002DD
:10040C00066102066102042602044D02045375348F
:10041C000802066175340B0206610205007534068C
:10042C0002066175340702066175340502066175B2
:10043C003403020661753404020661753402020647
:0D044C006175340D02066175340C02066105
:10045900E52875F00AA42529F508E52B75F00AA405
:10046900252CFBF509E52E75F00AA4F9252FFAF5D7
:100479000AAF287E007C037DE8120978AC06AD0737
:10048900E52975F064A42DFDEC35F0FCE52A75F03D
:100499000AA42DFFE5F03CFE7C00EF252BF50CECC2
:1004A9003EF50BE52C75F00AA4252DF50D8A0E8B6A
:1004B9000FE52F29F510E534B40E0040030206615B
:1004C9009004D0F82828730204FA020500020506F0
:1004D90002056102057E0205CB0205E9020600025A
:1004E900061702061902061E02062302062702063D
:1004F90045753401020661E4F534020661050CE52F
:100509000C7002050BAE0BFF7C277D1012098A8C3B
:100519000B8D0CAE0BAF0C7C037DE812098A8F287A
:10052900AE0BAF0C7C007D6412098A7C007D0A1237
:10053900098A8D29AE0BAF0C7C007D0A12098A7CD1
:10054900007D0A12098A8D2AAE0BAF0C7C007D0A48
:1005590012098A8D2B020661E50D75F00C84E5F010
:1005690004F50D75F00A84F52CE50D75F00A8485FE
:10057900F02D020661E50C5403700EAE0BAF0CFCB6
:100589007D6412098AED4C700FAE0BAF0C7C017DB6
:100599009012098AED4C700CE50DB40207E50E7551
:1005A900F01D800BE50D900B5793FFE50E8FF0843E
:1005B900E5F004F50EE50E75F00A84F52EE50E0258
:1005C900065A0508E50875F0188485F008E50875E8
:1005D900F00A84F528E50875F00A8485F029807801
:1005E9000509E50975F03C8485F009E50975F00A06
:1005F90084F52BE509803C050AE50A75F03C8485FC
:10060900F00AE50A75F00A84F52EE50A80438005AB
:1006190075340A8043753409803EB200803A050F6B
:10062900E50F75F0188485F00FE50F75F00A84F56C
:100639002BE50F75F00A8485F02C801C0510E51058
:1006490075F03C8485F010E51075F00A84F52EE507
:080659001075F00A8485F02FF2
:04066100E4F540225A
:10066500300203020787E534B40E0040030208E8B0
:1006750090067CF82828730206A60206AC0206B28C
:100685000206B20206B202074902074902074902F9
:1006950008E80208E80208E802076A02077002078C
:1006A500707534050208E87534020208E8AF287E43
:1006B500007C037DE8120978AC06AD07E52975F0E5
:1006C50064A42DFDEC35F0FCE52A75F00AA42DFF98
:1006D500E5F03CFE7C00EF252BFFEC3EFEE52C759E
:1006E500F00AA4252DFDE52E75F00AA4252FFB1291
:1006F50009DFEF4E60030208E8AF28FE7C037DE8C2
:10070500120978AC06AD07E52975F064A42DFDEC5A
:1007150035F0FCE52A75F00AA42DFFE5F03CFE7CDA
:1007250000EF252BF538EC3EF537E52C75F00AA4DE
:10073500252DF535E52E75F00AA4252FF5397534E7
:10074500010208E8E52875F00AA42529F53AE52B04
:1007550075F00AA4252CF532E52E75F00AA4252F8F
:10076500F52102080375340C0208E8E52B75F00A3B
:10077500A4252CF536E52E75F00AA4252FF52502BE
:0207850008E585
:10078700AF287E007C037DE8120978AC06AD07E54B
:100797002975F064A42DFDEC35F0FCE52A75F00A07
:1007A700A42DFFE5F03CFE7C00EF252BF509EC3E80
:1007B700F508E52C75F00AA4252DF50AE52E75F048
:1007C7000AA4252FF50BE53424FE603614700302C6
:1007D700086514700302088524FC502024FE70036A
:1007E7000208E024FE70030208E51470030208E51E
:1007F700240D60030208E8B2010208E8E4F53402B8
:1008070008E8E509150970021508AE08AF097C2745
:100817007D1012098A8C088D09AE08AF097C037D0B
:10082700E812098A8F28AE08AF097C007D64120997
:100837008A7C007D0A12098A8D29AE08AF097C00DF
:100847007D0A12098A7C007D0A12098A8D2AAE0860
:10085700AF097C007D0A12098A8D2B0208E8740A09
:10086700250AF50A75F00C84E5F004F50A75F00A17
:1008770084F52CE50A75F00A8485F02D8063E50977
:100887005403700EAE08AF09FC7D6412098AED4C63
:10089700700FAE08AF097C017D9012098AED4C708C
:1008A70010E50AB4020B741B250BF50B75F01D80C0
:1008B7000FE50A900B5793FF24FE250BF50B8FF0DE
:1008C70084E5F004F50BE50B75F00A84F52EE50BCE
:1008D70075F00A8485F02F80087534088003753415
:0108E7000B05
:0408E800E4F54022D1
:03000300020BC429
:080BC400200304D203C2023237
:03001300020BCC11
:080BCC00200304D203D202321F
:100B6E000521E521D3943B4005E4F5210532E5321C
:100B7E00D3943B4005E4F532053AE53AD394174059
:050B8E0003E4F53A222A
:100AF200AE3FEFA806088002C313D8FCFF530701DC
:100B0200BF010B7428253FF8E6FFAD3F8004AD3FDF
:0B0B12007F11120AC6053F533F072267
:100B1D000539AB39AD35AF38AE371209DFEF4E6061
:100B2D00177539010535E535D3940C400B75350135
:090B3D000538E538700205372285
:03000B00020016DA
:10001600C0E0C0F0C083C082C0D075D000C000C0B0
:1000260001C002C003C004C005C006C0070523E521
:100036002370020522758CFC758A18E523B4E81D29
:10004600E522B40318752200752300120B6EE53AFB
:10005600700BE5327007E5217003120B1D300303A8
:10006600120A8EE540B401051203DC8008E540B4AF
:100076000203120665E534706130005EE53AB53676
:1000860012E532B5250DE5217009E52345227003F9
:1000960075240CE5246043C3E49523E49522500BB4
:1000A600C3E52394FAE52294004016C374F495231D
:1000B60074019522500FC3E52394EEE52294025075
:1000C60004B2A38002C2A3AE22AF237C007DFA1243
:1000D600098AED4C70041524C2A3E5347040300142
:1000E6003DE5337011E532700DE5217009E52345D4
:1000F600227003753308E5336024D3E52394F4E5D1
:100106002294014004B2A38002C2A3AE22AF237C94
:10011600017DF412098AED4C70041533C2A3E5344F
:10012600B40E0040030203C1900135F8282873027B
:10013600015F02019302023502024A02025F0201D6
:10014600F902020B0202200202740202D4020356D2
:1001560002035A02039A0203ADE53A75F00A84F5E2
:1001660028E53A75F00A8485F029752A10E5327576
:10017600F00A84F52BE53275F00A8485F02C752D8E
:1001860010E52175F00A84F52EE521805DAE37AFC6
:10019600387C037DE812098A8F28AE37AF387C0099
:1001A6007D6412098A7C007D0A12098A8D29AE3780
:1001B600AF387C007D0A12098A7C007D0A12098A02
:1001C6008D2AAE37AF387C007D0A12098A8D2BE561
:1001D6003575F00A84F52CE53575F00A8485F02D21
:1001E600E53975F00A84F52EE53975F00A8485F04F
:1001F6002F801DC3E52394F4E5229401500280105C
:100206007FFC0203BEC3E52394F4E5229401500566
:100216007FFF0203BE7FE70203BEC3E52394F4E536
:1002260022940150057FFF0203BE7F3F0203BEC337
:10023600E52394F4E522940150057FFF0203BE7F77
:10024600F00203BEC3E52394F4E522940150057F32
:10025600FF0203BE7FCF0203BEC3E52394F4E5226B
:10026600940150057FFF0203BE7F3F0203BE753037
:1002760000753100753B00753E00E53E75F00A8459
:10028600F528E53E75F00A8485F029752A10E53BC8
:1002960075F00A84F52BE53B75F00A8485F02C751C
:1002A6002D10AE30AF317C007D6412098A8F2EAEE0
:1002B60030AF317C007D6412098A7E007F0ACFCD83
:1002C600CFCECCCE12098A8F2F7FFF0203BE053117
:1002D600E53170020530D394E7E5309403400875A4
:1002E6003000753100053BE53BD3943B4005753B3B
:1002F60000053EE53ED3943B4003753E00E53E7562
:10030600F00A84F528E53E75F00A8485F029752AF9
:1003160010E53B75F00A84F52BE53B75F00A8485FC
:10032600F02C752D10AE30AF317C007D6412098A39
:100336008F2EAE30AF317C007D6412098A7E007F3D
:100346000ACFCDCFCECCCE12098A8F2F7FFF806801
:100356007FFF8064E53675F00A84F52BE53675F087
:100366000A8485F02C752D10E52575F00A84F52E86
:10037600E52575F00A8485F02F30000B7528117578
:100386002911752A11800975280075290F752A0FFC
:100396007FFF8024C3E52394F4E522940150047F73
:1003A600FF80157FE78011C3E52394F4E5229401CD
:1003B60050047FFF80027F3F120AF2D007D006D09A
:1003C60005D004D003D002D001D000D0D0D082D046
:0603D60083D0F0D0E032FC
:100B9300C2A3D2AFD288D2A8D28AD2AAD2B9758937
:0C0BA30001D2A9D28C758CFC758A182236
:05000600120B9380FEC7
:100BAF00E4FEEF3392A0C2A1D2A1C2A1EF25E0FFD4
:040BBF000EBE08EE70
:010BC300220F
:100AC600AC07ED900B6493FF120BAF30010EE53FC0
:100AD600B40709EC900B4693547F8005EC900B46C7
:0C0AE60093FF120BAFC2A2D2A2C2A22248
:030000000208EC07
:0C08EC00787FE4F6D8FD758140020933E6
:10097800EF8DF0A4A8F0CF8CF0A428CE8DF0A42E93
:02098800FE224D
:10098A00BC000BBE0029EF8DF084FFADF022E4CC51
:10099A00F875F008EF2FFFEE33FEEC33FCEE9DEC1A
:1009AA00984005FCEE9DFE0FD5F0E9E4CEFD22ED60
:1009BA00F8F5F0EE8420D21CFEADF075F008EF2FAA
:1009CA00FFED33FD4007985006D5F0F222C398FD9B
:0509DA000FD5F0EA2238
:1008F800020006E493A3F8E493A34003F68001F210
:1009080008DFF48029E493A3F85407240CC8C33300
:10091800C4540F4420C8834004F456800146F6DFCF
:10092800E4800B0102040810204080900A3DE47E18
:10093800019360BCA3FF543F30E509541FFEE493C4
:10094800A360010ECF54C025E060A840B8E493A38B
:10095800FAE493A3F8E493A3C8C582C8CAC583CAB6
:10096800F0A3C8C582C8CAC583CADFE9DEE780BE6E
:010A8D000068
:00000001FF
