:100E0100C0F9A4B0999282F880908883C6A1868E99
:100E1100BFFF1F1C1F1E1F1E1F1F1E1F1E1F0102A3
:080E2100040810204080FF00CE
:100D6A00013D1701333B01213A023907E4013702F9
:100D7A00013C1C01420001381701253B014100C119
:100D8A0000C101C103C102022F0000014400014356
:100D9A0000082700000000000000000135000134AF
:100DAA000001240002310000013E00013F00014021
:0E0DBA0017013B3B012600013600022200001B
:05000600120E4E80FE09
:100E4E00120AF3C2A3D2AFD288D2A8D28AD2AAD221
:0F0E5E00B9758901D2A9D28C758CFC758A1822BE
:100DC9000530E5307002052FC3940AE52F940040E1
:100DD90026D3E53094F2E52F94034005754402804B
:100DE9000F20020320B20630020D30B30A75440108
:080DF900E4F52FF530C20322DE
:1005B0003002030206EBE536B415004003020904DD
:1005C0009005C7F8282873020606020904020627C8
:1005D00002062D02063302061502061B0206210240
:1005E000060C020904020904020612020639020678
:1005F0003F02068202068802068E02069402069ACE
:100600000206A00206A675360802090475360B021A
:10061000090402075F7536060209047536070209E8
:10062000047536050209047536030209047536049B
:1006300002090475360202090475360D020904E543
:10064000265401F527E526C3135401F528E52613A2
:10065000135401F529E5261313135401F52AE52651
:10066000C45401F52BE526C4135401F52CE526C42A
:1006700013135401F52D752E1185263575360E028E
:10068000090475360F02090475361002090475361F
:1006900011020904753612020904753613020904A1
:1006A000753614020904E54075F00A84F52AE54020
:1006B00075F00A8485F02B752C10E53B75F00A84E3
:1006C000F52DE53B75F00A8485F02E30000B75277B
:1006D000117528117529118009E4F52775280F7502
:0B06E000290F85263575360C02090431
:1006EB00E52775F00AA42528F508E52A75F00AA474
:1006FB00252BF509E52D75F00AA4252EF50AE5360F
:10070B00B41500400302090490071AF82828730255
:10071B00075902075F0207650207BF0207DB0208E2
:10072B003202085102086802087F0208810208861B
:10073B0002088B02088F0208AD0208CB0208D30215
:10074B0008DB0208E30208EB0208F30208FB75362C
:10075B0001020904E4F536020904053AE53A700290
:10076B000539AE39FF7C277D10120C568C398D3A2A
:10077B00AE39AF3A7C037DE8120C568F27AE39AFFA
:10078B003A7C007D64120C567C007D0A120C568D4F
:10079B0028AE39AF3A7C007D0A120C567C007D0ADC
:1007AB00120C568D29AE39AF3A7C007D0A120C56CD
:1007BB008D2A806DE53775F00C84E5F004F53775FF
:1007CB00F00A84F52BE53775F00A8485F02C8051FF
:1007DB00E53A5403700EAE39AF3AFC7D64120C56F9
:1007EB00ED4C700FAE39AF3A7C017D90120C56ED8B
:1007FB004C700CE537B40207E53C75F01D800BE53A
:10080B0037900E1293FFE53C8FF084E5F004F53C36
:10081B00E53C75F00A84F52DE53C75F00A8485F00E
:10082B002E120AF30209040508E50875F0188485F1
:10083B00F008E50875F00A84F527E50875F00A84D9
:10084B0085F0280209040509E50975F03C8485F05B
:10085B0009E50975F00A84F52AE509803C050AE5E6
:10086B000A75F03C8485F00AE50A75F00A84F52DCB
:10087B00E50A8043800575360A807E7536098079D6
:10088B00B20080750540E54075F0188485F040E5B1
:10089B004075F00A84F52AE54075F00A8485F02B43
:1008AB008057053BE53B75F03C8485F03BE53B759C
:1008BB00F00A84F52DE53B75F00A8485F02E80391E
:1008CB00632701632601802E63280163260280269D
:1008DB00632901632604801E632A016326088016A0
:1008EB00632B01632610800E632C01632620800688
:0908FB00632D01632640852635BA
:04090400E4F54422B0
:100908003002030209AAE536B415004003020AEFD3
:1009180090091FF828287302095E02096402096A0F
:1009280002096A02096A020978020978020978024A
:100938000AEF020AEF020AEF02099802099E020969
:100948009E02099E02099E02099E02099E02099EB4
:1009580002099E02099E753605020AEF75360202E3
:100968000AEF120CAB5003020AEF753601020AEFC8
:10097800E52775F00AA42528F53DE52A75F00AA4AF
:10098800252BF533E52D75F00AA4252EF521806772
:1009980075360C020AEF854038853B2585264102CD
:1009A8000AECE536B415004003020AEF9009BBF8DB
:1009B8002828730209FA020AEF020A05020A6002ED
:1009C8000A800209FF0209FF0209FF020AEF020A70
:1009D800EF020ADE020AEF020AE3020AE3020AE36E
:1009E800020AE3020AE3020AE3020AE3020AE30252
:1009F8000AE3B201020AEFE4F536020AEFE53A1516
:100A08003A70021539AE39AF3A7C277D10120C5670
:100A18008C398D3AAE39AF3A7C037DE8120C568F8B
:100A280027AE39AF3A7C007D64120C567C007D0AF3
:100A3800120C568D28AE39AF3A7C007D0A120C563E
:100A48007C007D0A120C568D29AE39AF3A7C007DA8
:100A58000A120C568D2A8079740A2537F53775F0F5
:100A68000C84E5F004F53775F00A84F52BE5377545
:100A7800F00A8485F02C8059E53A5403700EAE399B
:100A8800AF3AFC7D64120C56ED4C700FAE39AF3A9C
:100A98007C017D90120C56ED4C7010E537B4020BBA
:100AA800741B253CF53C75F01D800FE537900E1240
:100AB80093FF24FE253CF53C8FF084E5F004F53CDB
:100AC800E53C75F00A84F52DE53C75F00A8485F05F
:100AD8002E120AF38011753608800C85384085255A
:0B0AE8003B85412675360BE4F54422E7
:100E29000521E521D3943B4005E4F5210533E5335C
:100E3900D3943B4005E4F533053DE53DD394174094
:050E490003E4F53D2269
:100E6D00053C120CAB5016753C010537E537940C5B
:0E0E7D00400B753701053AE53A70020539223F
:100AF300E537D39402AE39AF3A7C007D64400912E6
:100B03000C56AE04AF05800B120C56ED24FFFFEC20
:100B130034FFFEEF7802CEC313CE13D8F9FBAA0637
:100B2300E537D39402AE39AF3A7C007D64400912B5
:100B33000C56AE04AF05800B120C56ED24FFFFECF0
:100B430034FFFEEB2FFBEA3EFAAE39AF3A7C007D71
:100B530064120C56AC06AD07ED7802CEC313CE1368
:100B6300D8F92BFBEA3EFAED25E0FFEC33FEC3EBAD
:100B73009FFBEA9EFAE537D394024004AF37800522
:100B8300E537240CFFEF2401FFE433FE7C007D1ADC
:100B9300120C447D0A120C56EF2BFFEE3AFE7C003A
:100BA300EF253CFFEC3ECF24FFCF34FFFE7D071241
:050BB3000C568D4222EA
:080CAB00AB3CAD37AF3AAE39A6
:100CB300AA058F828E83EAD3940C5006EAC394016B
:100CC3005002D322EBC39401500122E582540370F6
:100CD3000EFC7D64AF82AE83120C56ED4C700FAEEA
:100CE30083AF827C017D90120C56ED4C700BBA02DF
:100CF30008EBD3941D400FD322EA900E1293FFEB1F
:080D0300D39F4002D322C3225A
:03000300020EA04A
:080EA000200304D203C2023258
:03001300020EA832
:080EA800200304D203D2023240
:03000B00020016DA
:10001600C0E0C0F0C083C082C0D075D000C000C0B0
:1000260001C002C003C004C005C006C0070523E521
:100036002370020522758CFC758A18E523B4E82026
:10004600E522B4031B752200752300120E29E53D37
:10005600700EE533700AE5217006120E6D120AF372
:10006600300303120DC9E544B401051205B080083A
:10007600E544B40203120908E536600302010330C1
:10008600007BE53D6538702EE533B52529E5217001
:1000960025047E00A842088005C333CE33CED8F9A6
:1000A600FFEF5541D39400748094804009E52345C1
:1000B60022700375240CE5246043C3E49523E4957C
:1000C60022500BC3E52394FAE52294004016C3742C
:1000D600F4952374019522500FC3E52394EEE5228F
:1000E60094025004B2A38002C2A3AE22AF237C00C6
:1000F6007DFA120C56ED4C70041524C2A3E5367039
:100106004030013DE5347011E533700DE52170098D
:10011600E52345227003753408E5346024D3E523CE
:1001260094F4E52294014004B2A38002C2A3AE2255
:10013600AF237C017DF4120C56ED4C70041534C2CD
:10014600A3E536B415004003020595900158F8283A
:1001560028730201970201EA0202FF020331020339
:100166006302026C02029B0202CD0203950203FAAD
:1001760002048202048C0204D20204E9020500028F
:10018600051602052B02054002055502056A020501
:100196007FE53D75F00A84F527E53D75F00A84850F
:1001A600F028752910E53375F00A84F52AE53375CC
:1001B600F00A8485F02B752C10E52175F00A84F57C
:1001C6002DE52175F00A8485F02EAF427401A8074B
:1001D600088002C333D8FCFF3001057E8002026529
:1001E6007E00807BAE39AF3A7C037DE8120C568FD9
:1001F60027AE39AF3A7C007D64120C567C007D0A2E
:10020600120C568D28AE39AF3A7C007D0A120C5678
:100216007C007D0A120C568D29AE39AF3A7C007DE2
:100226000A120C568D2AE53775F00A84F52BE53748
:1002360075F00A8485F02CE53C75F00A84F52DE509
:100246003C75F00A8485F02EAF427401A807088039
:1002560002C333D8FCFF3001047E8080027E00EFAB
:100266004EF5350203F3AF427401A807088002C3B6
:1002760033D8FCFF3001047E8080027E00EF4EF50D
:1002860035C3E52394F4E52294017DFF5002802DC9
:100296007FFC020592AF427401A807088002C333AF
:1002A600D8FCFF3001047E8080027E00EF4EF535DB
:1002B600C3E52394F4E52294017DFF50057FFF02F8
:1002C60005927FE7020592AF427401A807088002F3
:1002D600C333D8FCFF3001047E8080027E00EF4EDF
:1002E600F535C3E52394F4E52294017DFF50057F9F
:1002F600FF0205927F3F020592AF427401A80708EC
:100306008002C333D8FCFF3001047E8080027E0069
:10031600EF4EF535C3E52394F4E52294017DFF50B5
:10032600057FFF0205927FF0020592AF427401A895
:1003360007088002C333D8FCFF3001047E808002A8
:100346007E00EF4EF535C3E52394F4E52294017D56
:10035600FF50057FFF0205927FCF020592AF4274E0
:1003660001A807088002C333D8FCFF3001047E8051
:1003760080027E00EF4EF535C3E52394F4E5229422
:10038600017DFF50057FFF0205927F3F02059275B2
:100396003100753200753E00753F00E53F75F00A85
:1003A60084F527E53F75F00A8485F028752910E560
:1003B6003E75F00A84F52AE53E75F00A8485F02B31
:1003C600752C10AE31AF327C007D64120C568F2D29
:1003D600AE31AF327C007D64120C567E007F0ACFB0
:1003E600CDCFCECCCE120C568F2E7535007DFF7F2D
:1003F600FF0205920532E53270020531D394E7E536
:100406003194034008753100753200053EE53ED350
:10041600943B4005753E00053FE53FD3943B4003C2
:10042600753F00E53F75F00A84F527E53F75F00A4C
:100436008485F028752910E53E75F00A84F52AE5CD
:100446003E75F00A8485F02B752C10AE31AF327CE8
:10045600007D64120C568F2DAE31AF327C007D6468
:10046600120C567E007F0ACFCDCFCECCCE120C56C4
:100476008F2E7535007DFF7FFF0205927535007D55
:10048600FF7FFF020592E53875F00A84F52AE53804
:1004960075F00A8485F02B752C10E52575F00A8415
:1004A600F52DE52575F00A8485F02E30000B7527AD
:1004B60011752811752911800975270075280F7582
:1004C600290F8541357DFF7FFF020592C3E5239401
:1004D600F4E52294017DFF50057FFF0205927FE738
:1004E600020592C3E52394F4E52294017DFF5005AD
:1004F6007FFF0205927F3F020592C3E52394F4E550
:100506002294017DFF50057FFF0205927FFE807CCD
:10051600C3E52394F4E52294017DFF50047FFF8018
:100526006B7FFD8067C3E52394F4E52294017DFF8C
:1005360050047FFF80567FFB8052C3E52394F4E589
:100546002294017DFF50047FFF80417FF7803DC3E9
:10055600E52394F4E52294017DFF50047FFF802C6F
:100566007FEF8028C3E52394F4E52294017DFF50B4
:10057600047FFF80177FDF8013C3E52394F4E52211
:1005860094017DFF50047FFF80027FBF120D0BD0C8
:1005960007D006D005D004D003D002D001D000D0B9
:0A05A600D0D082D083D0F0D0E03234
:100D0B00900E12E493F508AE43EFA806088002C3D9
:100D1B0013D8FC30E00C74272543F8E6900E0193B2
:100D2B00F508AF43EDA807088002C313D8FC30E0E9
:100D3B0013AF43E535A807088002C313D8FC30E096
:100D4B000353087FE543900E1F93FF120E8BAF08E2
:0E0D5B00120E8BC2A2D2A2C2A20543534307BE
:010D69002267
:100E8B00E4FEEF3392A0C2A1D2A1C2A1EF25E0FFF5
:040E9B000EBE08EE91
:010E9F002230
:03000000020BB838
:0C0BB800787FE4F6D8FD758144020BFF45
:100C4400EF8DF0A4A8F0CF8CF0A428CE8DF0A42EC4
:020C5400FE227E
:100C5600BC000BBE0029EF8DF084FFADF022E4CC82
:100C6600F875F008EF2FFFEE33FEEC33FCEE9DEC4B
:100C7600984005FCEE9DFE0FD5F0E9E4CEFD22ED91
:100C8600F8F5F0EE8420D21CFEADF075F008EF2FDB
:100C9600FFED33FD4007985006D5F0F222C398FDCC
:050CA6000FD5F0EA2269
:100BC400020006E493A3F8E493A34003F68001F241
:100BD40008DFF48029E493A3F85407240CC8C33332
:100BE400C4540F4420C8834004F456800146F6DF01
:100BF400E4800B0102040810204080900D6AE47E1A
:100C0400019360BCA3FF543F30E509541FFEE493F5
:100C1400A360010ECF54C025E060A840B8E493A3BC
:100C2400FAE493A3F8E493A3C8C582C8CAC583CAE7
:100C3400F0A3C8C582C8CAC583CADFE9DEE780BE9F
:010DC800002A
:00000001FF
