:100CE200D6DCC8D500D6DCD2BB00D6DCB6FE00D638
:100CF200DCC800D6DCCBC400D6DCCEE500D6DCC135
:100D0200F900D5FBB5E3B1A8CAB1202000BFAA0003
:0F0D1200B9D8001F1C1F1E1F1E1F1F1E1F1E1FD4
:100B0D00013417012B3B01213A023007E4012E027B
:100B1D0001331C017900012F1701253B017800C11C
:100B2D0000C101C103C10202270000017A00103784
:100B3D0020202020202020202020202020202020A8
:100B4D001047202020202020202020202020202081
:100B5D002020105720202020202020202020202061
:100B6D002020202010672020202020202020202041
:100B7D00202020202020012C00012400022900002B
:100B8D0001350001360001771701323B01260001C6
:060B9D002D000222000001
:05000600120DB780FEA1
:100DB7001209A6120E22E4FFFE12039AC2A2D2AFB4
:100DC700D288D2A8D28AD2AAD2B9758901D2A9D299
:080DD7008C758CD8758AF0229E
:10039A008F2DE52D24F9700302055024076003020E
:1003AA0006087B007A007937120D937B007A007970
:1003BA0047120D93120D8D7B007A007967120D9307
:1003CA00E53475F00A842430F53BE53475F00A8487
:1003DA00E5F02430F53C753D3AE52B75F00A8424A6
:1003EA0030F53EE52B75F00A84E5F02430F53F75CB
:1003FA00403AE52175F00A842430F541E52175F08B
:10040A000A84E5F02430F542AE30AF317C037DE852
:10041A00120AB8EF2430F54AAE30AF317C007D6461
:10042A00120AB87C007D0A120AB8ED2430F54BAEE8
:10043A0030AF317C007D0A120AB87C007D0A120AAC
:10044A00B8ED2430F54CAE30AF317C007D0A120A8B
:10045A00B8ED2430F54D754E2DE52E75F00A84243D
:10046A0030F54FE52E75F00A84E5F02430F5507525
:10047A00512DE53375F00A842430F552E53375F0D1
:10048A000A84E5F02430F553E579B40700507690F4
:10049A0004A0F82828730204B50204C00204CB029F
:1004AA0004D60204E10204EC0204F77518FF751978
:1004BA000C751AE280407518FF75190C751AE780D9
:1004CA00357518FF75190C751AEC802A7518FF75A1
:1004DA00190C751AF1801F7518FF75190C751AF524
:1004EA0080147518FF75190C751AFA80097518FFAA
:1004FA0075190C751AFF751B00751C047B007A00B0
:10050A00795D120C907518FF75190D751A04751B13
:10051A0000751C0A7B007A007969120C9030010B75
:10052A007518FF75190D751A0F80097518FF751959
:10053A000D751A12751B00751C027B007A007973FF
:10054A00120C900205D07B007A007937120D937B4A
:10055A00007A007947120D93120D8D7B007A00798B
:10056A0067120D93E4F536F535F529F52AE5367562
:10057A00F00A842430F53BE53675F00A84E5F02468
:10058A0030F53C753D3AE53575F00A842430F53E80
:10059A00E53575F00A84E5F02430F53F75403AAE4A
:1005AA0029AF2A7C007D64120AB8EF2430F541AEE7
:1005BA0029AF2A7C007D0A120AB87C007D0A120A39
:1005CA00B8ED2430F5427B007A0079377519107F2F
:1005DA0080120D597B007A0079477519107F9012A5
:1005EA000D597B007A0079577519107F88120D59B9
:0F05FA007B007A0079677519107F98120D5922CE
:100D21000528E52870020527C39401E527940040B2
:100D310026D3E5289465E52794004005757A02805D
:100D41000F20020320B20630020D30B30A757A017A
:080D5100E4F527F528C2032296
:100609003002030206CBE52DB4140040030207F9BA
:10061900900620F828287302065C020683020689E0
:1006290002068F02067102067702067D0206620241
:1006390007F90207F902066802069502069B0206F7
:10064900A10206A70206AD0206B30206B90206BF59
:100659000206C57F077E008009752D0A0207F9E4A5
:10066900FFFE12039A0207F9752D050207F9752D88
:10067900060207F9752D040207F9752D020207F91B
:10068900752D030207F9752D010207F9752D0C0265
:1006990007F9752D0D0207F9752D0E0207F9752D4C
:1006A9000F0207F9752D100207F9752D110207F9C7
:1006B900752D120207F9752D130207F9752D0B0215
:0206C90007F92F
:1006CB00E52D14B4130040030207F99006E475F00E
:1006DB0003A4C58325F0C5837302071D02073502EA
:1006EB0007420207870207940207A10207AE02071F
:1006FB00B00207B50207BA0207BE0207CB0207D842
:10070B000207DD0207E20207E70207EC0207F1022C
:10071B0007F60531E53170020530AE30FF7C277DE1
:10072B0010120AB88C308D31804DE52E75F00C848B
:10073B00E5F004F52E8040E5315403700EAE30AF7A
:10074B0031FC7D64120AB8ED4C700FAE30AF317CCA
:10075B00017D90120AB8ED4C700CE52EB40207E542
:10076B003375F01D800BE52E900D1493FFE5338F41
:10077B00F084E5F004F5331209A680720508E5084C
:10078B0075F0188485F00880650509E50975F03C5E
:10079B008485F0098058050AE50A75F03C8485F0DC
:1007AB000A804B8005752D098044752D08803FB25A
:1007BB0000803B0577E57775F0188485F077802E00
:1007CB000532E53275F03C8485F0328021632601D9
:1007DB00801C632602801763260480126326088020
:0E07EB000D63261080086326208003632640DD
:0407F900E4F57A2287
:1007FD00200273E52DB4140040030209A2900811E4
:10080D00F828287302084D020853020853020853B2
:10081D0002085E02085E02085E0209A20209A20237
:10082D0009A2020861020867020867020867020848
:10083D00670208670208670208670208670208670F
:10084D00752D040209A2120C3050030209A20209EF
:10085D0011020911752D0B0209A285772F853225FD
:10086D0085267802099FE52DB4140040030209A2E4
:10087D00900884F82828730208C002091602092F6F
:10088D000209400209110209110209110209A2020D
:10089D0009A202098D0209A202099602099602090E
:1008AD009602099602099602099602099602099680
:1008BD00020996B2017518FF75190D751A04751B8D
:1008CD0000751C0A7B007A007969120C9030010BBF
:1008DD007518FF75190D751A0F80097518FF7519A3
:1008ED000D751A12751B00751C027B007A00797349
:1008FD00120C907B007A0079677519107F98120D94
:10090D00590209A2E4FFFE807BE531153170021515
:10091D0030AE30AF317C277D10120AB88C308D315E
:10092D008059740A252EF52E75F00C84E5F004F52A
:10093D002E8048E5315403700EAE30AF31FC7D642E
:10094D00120AB8ED4C700FAE30AF317C017D9012B4
:10095D000AB8ED4C7010E52EB4020B741B2533F55F
:10096D003375F01D800FE52E900D1493FF24FE2599
:10097D0033F5338FF084E5F004F5331209A68015B5
:10098D007F077E0012039A800C852F77852532858F
:09099D007826752D0AE4F57A2292
:100DDF000521E521D3943B4005E4F521052BE52BB7
:100DEF00D3943B4005E4F52B0534E534D3941740F9
:050DFF0003E4F53422BD
:100E04000533120C305016753301052EE52E940C63
:0E0E1400400B752E010531E5317002053022CC
:1009A600E52ED39402AE30AF317C007D644009124F
:1009B6000AB8AE04AF05800B120AB8ED24FFFFECAF
:1009C60034FFFEEF7802CEC313CE13D8F9FBAA0686
:1009D600E52ED39402AE30AF317C007D644009121F
:1009E6000AB8AE04AF05800B120AB8ED24FFFFEC7F
:1009F60034FFFEEB2FFBEA3EFAAE30AF317C007DD2
:100A060064120AB8AC06AD07ED7802CEC313CE1356
:100A1600D8F92BFBEA3EFAED25E0FFEC33FEC3EBFB
:100A26009FFBEA9EFAE52ED394024004AF2E800582
:100A3600E52E240CFFEF2401FFE433FE7C007D1A33
:100A4600120AA67D0A120AB8EF2BFFEE3AFE7C00C8
:100A5600EF2533FFEC3ECF24FFCF34FFFE7D071298
:050A66000AB88D7922A1
:080C3000AB33AD2EAF31AE3045
:100C3800AA058F828E83EAD3940C5006EAC39401E6
:100C48005002D322EBC39401500122E58254037071
:100C58000EFC7D64AF82AE83120AB8ED4C700FAE05
:100C680083AF827C017D90120AB8ED4C700BBA02FA
:100C780008EBD3941D400FD322EA900D1493FFEB99
:080C8800D39F4002D322C322D6
:060D8D007B007A0079579B
:060D93008B158A1689177A
:100D9900120E5AE4FEEEC39F5013AB15AA16A917FB
:0D0DA9008E827583007420120A840E80E88B
:010DB600221A
:03000300020E9357
:080E9300200304D203C2023265
:03001300020E9B3F
:080E9B00200304D203D202324D
:03000B00020016DA
:10001600C0E0C0F0C083C082C0D075D000C000C0B0
:1000260001C002C003C004C005C006C0070523E521
:100036002370020522758CD8758AF0E52364644521
:100046002260030201FBF522F523120DDFE52D7078
:100056005EFB7A007937120D93E53475F00A842435
:1000660030F53BE53475F00A84E5F02430F53C754F
:100076003D3AE52B75F00A842430F53EE52B75F004
:100086000A84E5F02430F53F75403AE52175F00A1B
:10009600842430F541E52175F00A84E5F02430F535
:1000A600427B007A0079377519107F80120D59E569
:1000B6003460030201FBE52B60030201FBE52160CE
:1000C600030201FB120E041209A6E52D60030201CC
:1000D600FBFB7A007947120D93120D8DAE30AF31CE
:1000E6007C037DE8120AB8EF2430F54AAE30AF3112
:1000F6007C007D64120AB87C007D0A120AB8ED24E1
:1001060030F54BAE30AF317C007D0A120AB87C0068
:100116007D0A120AB8ED2430F54CAE30AF317C00C2
:100126007D0A120AB8ED2430F54D754E2DE52E7573
:10013600F00A842430F54FE52E75F00A84E5F024A4
:1001460030F55075512DE53375F00A842430F5529B
:10015600E53375F00A84E5F02430F553E579B40704
:10016600005076900170F8282873020185020190EC
:1001760002019B0201A60201B10201BC0201C77580
:1001860018FF75190C751AE280407518FF75190C61
:10019600751AE780357518FF75190C751AEC802AE3
:1001A6007518FF75190C751AF1801F7518FF7519EA
:1001B6000C751AF580147518FF75190C751AFA80E6
:1001C600097518FF75190C751AFF751B00751C0447
:1001D6007B007A00795D120C907B007A0079477576
:1001E60019107F90120D597B007A007957751910F6
:1001F6007F88120D59300303120D21E57AB40105EB
:100206001206098008E57AB402031207FDE52D609F
:100216000302029730007AE534652F702EE52BB580
:100226002529E5217025047E00A879088005C333B9
:10023600CE33CED8F9FFEF5578D3940074809480EE
:100246004009E5234522700375240CE5246042C36A
:10025600E49523E49522500BC3E5239419E52294F3
:10026600004015C374329523E49522500FC3E5234D
:10027600944BE52294005004B2A28002C2A2AE22A0
:10028600AF237C007D19120AB8ED4C70041524C208
:10029600A2E52D704030013DE52C7011E52B700D67
:1002A600E5217009E52345227003752C08E52C60CD
:1002B60024D3E5239432E52294004004B2A28002BE
:1002C600C2A2AE22AF237C007D32120AB8ED4C707A
:1002D60004152CC2A2E52D24F8600302037F740ADC
:1002E600252AF52AE43529F529D3E52A94E7E529CF
:1002F60094034008752900752A000535E535D39421
:100306003B40057535000536E536D3943B4003750D
:100316003600E53675F00A842430F53BE53675F08F
:100326000A84E5F02430F53C753D3AE53575F00A6A
:10033600842430F53EE53575F00A84E5F02430F581
:100346003F75403AAE29AF2A7C007D64120AB8EFA9
:100356002430F541AE29AF2A7C007D0A120AB87C0A
:10036600007D0A120AB8ED2430F5427B007A007946
:10037600377519107F80120D59D007D006D005D0D9
:1003860004D003D002D001D000D0D0D082D083D008
:04039600F0D0E03291
:100E40008F1B120E6FC2B5A20592B4D2B6851B904D
:0A0E50007F057E00120E81C2B6225B
:100E2200D2B7C2057F30120E40C2057F0C120E40AF
:0E0E3200C2057F01120E40C2057F06020E406F
:100E6F007FFAC2B4D2B5D2B6E59030E702DFF9C24D
:010E7F00B6BC
:010E8000224F
:060D59008B168A178918B1
:100D5F00C205120E40E4F51AE51AC39519501EABE1
:100D6F0016AA17A918120A6BFFD205120E407401AA
:0D0D7F002518F518E43517F517051A80DB67
:010D8C002244
:100E8100EEC313FEEF13FFEF1FAC0670011E4C7093
:020E9100F62247
:03000000020BA44C
:0C0BA400787FE4F6D8FD75817A020BEB37
:100A6B00BB010689828A83E0225002E722BBFE0289
:090A7B00E32289828A83E49322BC
:100A8400F8BB010DE58229F582E5833AF583E8F0A8
:100A9400225006E92582C8F622BBFE05E92582C854
:020AA400F2223C
:100AA600EF8DF0A4A8F0CF8CF0A428CE8DF0A42E64
:020AB600FE221E
:100AB800BC000BBE0029EF8DF084FFADF022E4CC22
:100AC800F875F008EF2FFFEE33FEEC33FCEE9DECEB
:100AD800984005FCEE9DFE0FD5F0E9E4CEFD22ED31
:100AE800F8F5F0EE8420D21CFEADF075F008EF2F7B
:100AF800FFED33FD4007985006D5F0F222C398FD6C
:050B08000FD5F0EA2208
:100C90008B158A168917E4F51DF51EE51C151CAE8B
:100CA0001B7002151B4E6033AB18AA19A91A120A41
:100CB0006BFFAB15AA16A917051EE51EAC1D700229
:100CC000051D14F5828C83EF120A84EF60CD740148
:100CD000251AF51AE43519F51980C0AB15AA16A91D
:020CE0001722D9
:100E5A00E4FFFE120A6B600C0FEF70010E09E970D5
:050E6A00F20A80EF22F6
:100BB000020006E493A3F8E493A34003F68001F255
:100BC00008DFF48029E493A3F85407240CC8C33346
:100BD000C4540F4420C8834004F456800146F6DF15
:100BE000E4800B0102040810204080900B0DE47E8D
:100BF000019360BCA3FF543F30E509541FFEE4930A
:100C0000A360010ECF54C025E060A840B8E493A3D0
:100C1000FAE493A3F8E493A3C8C582C8CAC583CAFB
:100C2000F0A3C8C582C8CAC583CADFE9DEE780BEB3
:010BA3000051
:00000001FF
