:10055000C0F9A4B0999282F880908883C6A1868E53
:0C056000BFFF0102040810204080FF00D3
:1004A700011A1701173B010837011900011D000840
:1004B7000D000000000000000002090000C18002DA
:1004C7000B0000011E00C102C10101180002150046
:0704D70000011B00011C00E5
:10046F00050CE50C7002050BC3940AE50B940040D4
:10047F0026D3E50C94F2E50B94034005751E02801C
:10048F000F20010320B20630010D30B30A751E0193
:08049F00E4F50BF50CC202228A
:10025F0020013CE519146019146022146025146004
:10026F002814601324056003020336751901020375
:10027F0036751905020336E4F519020336751903AD
:0F028F000203367519040203367519020203368D
:10029E00E50D75F00AA4250EF521E51075F00AA4FA
:1002AE002511F522E51375F00AA42514F523E51999
:1002BE0024FD602E1460491460641460631460653C
:1002CE00240570640521E52175F0188485F021E57B
:1002DE002175F00A84F50DE52175F00A8485F00E7E
:1002EE0080460522E52275F03C8485F022E52275D4
:1002FE00F00A84F510E52275F00A8485F011802845
:10030E000523E52375F03C8485F023E52375F00A7B
:10031E0084F513E52375F00A8485F014800A8005B0
:08032E0075190780037519061B
:04033600E4F51E22AA
:10041B00200131E51924FE24FD5009240470417597
:10042B001902803CE50D75F00AA4250EF51AE510AE
:10043B0075F00AA42511F517E51375F00AA4251418
:10044B00F5088014E51924FE24FD500C24FE600DE4
:10045B002407700CB2008008E4F5198003751905A8
:04046B00E4F51E2274
:0300030002059C57
:08059C00200204D202C2013268
:030013000205A43F
:0805A400200204D202D2013250
:10050A000508E508D3943B4005E4F5080517E51707
:10051A00D3943B4005E4F517051AE51AD39417401E
:05052A0003E4F51A22B4
:1004DF00AE1DEFA806088002C313D8FCFF53070117
:1004EF00BF010B740D251DF8E6FFAD1D8004AD1D7A
:0B04FF007F1112056C051D531D072224
:03000B00020016DA
:10001600C0E0C0F0C083C082C0D075D000C000C0B0
:1000260001C002C003C004C005C006C007050AE53A
:100036000A70020509758CFC758A18E50AB4E80E83
:10004600E509B40309750900750A0012050A3002AC
:100056000312046FE51EB4010512025F8008E51E57
:10006600B4020312041BE5197038300035E5187028
:100076000BE5177007E5087003751808E518602288
:10008600D3E50A94F4E50994014004B2A38002C2C0
:10009600A3AE09AF0A7C017DF41203C6ED4C7002D3
:1000A6001518E519B4080040030202449000B9F897
:1000B6002828730200D102010C02011E020133023C
:1000C600014802015D0201BD02023FE51A75F00A10
:1000D60084F50DE51A75F00A8485F00E750F10E5A6
:1000E6001775F00A84F510E51775F00A8485F01186
:1000F600751210E50875F00A84F513E50875F00A1F
:100106008485F014801DC3E50A94F4E50994015032
:10011600028010E4FF020241C3E50A94F4E5099463
:100126000150057FFF0202417FFC020241C3E50A3E
:1001360094F4E509940150057FFF0202417FE7022E
:100146000241C3E50A94F4E509940150057FFF02D4
:1001560002417F3F020241751500751600751B00AE
:10016600751C00E51C75F00A84F50DE51C75F00A92
:100176008485F00E750F10E51B75F00A84F510E501
:100186001B75F00A8485F011751210AE15AF167C3A
:10019600007D641203C68F13AE15AF167C007D6416
:1001A6001203C67E007F0ACFCDCFCECCCE1203C6B9
:1001B6008F147FFF0202410516E51670020515D35E
:1001C60094E7E51594034008751500751600051BA0
:1001D600E51BD3943B4005751B00051CE51CD39419
:1001E6003B4003751C00E51C75F00A84F50DE51C03
:1001F60075F00A8485F00E750F10E51B75F00A84FC
:10020600F510E51B75F00A8485F011751210AE1510
:10021600AF167C007D641203C68F13AE15AF167C35
:10022600007D641203C67E007F0ACFCDCFCECCCE32
:100236001203C68F147FFF80027FFF1204DFD007F0
:10024600D006D005D004D003D002D001D000D0D043
:09025600D082D083D0F0D0E03258
:10052F00E4F519D200C2A3D2AFD288D2A8D28AD210
:10053F00AAD2B9758901D2A9D28C758CFC758A188B
:01054F002289
:0500060012052F80FE31
:10058700E4FEEF3392A0C2A1D2A1C2A1EF25E0FF02
:040597000EBE08EE9E
:01059B00223D
:10056C00AC07ED90056293FF120587EC9005509354
:0B057C00FF120587C2A2D2A2C2A22279
:0300000002033ABE
:0C033A00787FE4F6D8FD75812302038172
:1003C600BC000BBE0029EF8DF084FFADF022E4CC1B
:1003D600F875F008EF2FFFEE33FEEC33FCEE9DECE4
:1003E600984005FCEE9DFE0FD5F0E9E4CEFD22ED2A
:1003F600F8F5F0EE8420D21CFEADF075F008EF2F74
:10040600FFED33FD4007985006D5F0F222C398FD64
:050416000FD5F0EA2201
:10034600020006E493A3F8E493A34003F68001F2C7
:1003560008DFF48029E493A3F85407240CC8C333B8
:10036600C4540F4420C8834004F456800146F6DF87
:10037600E4800B01020408102040809004A7E47E6C
:10038600019360BCA3FF543F30E509541FFEE4937C
:10039600A360010ECF54C025E060A840B8E493A343
:1003A600FAE493A3F8E493A3C8C582C8CAC583CA6E
:1003B600F0A3C8C582C8CAC583CADFE9DEE780BE26
:0104DE00001D
:00000001FF
