:10188000D5FBB5E3B1A8CAB1202000BFAA00B9D8E2
:1018900000C8D5D2BBB6FE00CBC4CEE5C1F9D7DCBB
:1018A00000D6DCC8D500D6DCD2BB00D6DCB6FE0044
:1018B000D6DC00D6DCCBC400D6DCCEE500D6DCC15D
:0E18C000F9001F1C1F1E1F1E1F1F1E1F1E1FB4
:1016830041000900410002004100003A4200050701
:10169300E7410003094100081341000D00012B003D
:1016A30001240101747BC180C101C103C102022570
:1016B3000000017500113020202020202020202050
:1016C3002020202020202000114120202020202025
:1016D3002020202020202020202000115220202004
:1016E30020202020202020202020202020001163E3
:1016F30020202020202020202020202020202020E7
:101703000001290001230002270000012E00012F00
:1017130000022C000041000B0041000701410001C1
:101723007B41000C0041000A004100043A012A00F9
:04173300022100008F
:050006001219C380FE89
:1019C3001219EB121508E4FFFE120E93C2A2D2AF56
:1019D300D288D2A8D28AD2AAD2B9758901D2A9D281
:0819E3008C758CD8758AF02286
:100E9300E4F5138F2AE52A24F9700302100C24FDCC
:100EA3007003021093240A60030211C07B007A00CE
:100EB300793012199F1219997B007A0079631219FC
:100EC3009F900009E0FF75F00A842430F534EF7534
:100ED300F00A84E5F02430F53575363A900002E0E7
:100EE300FF75F00A842430F537EF75F00A84E5F0D6
:100EF3002430F53875393A900000E0FF75F00A8424
:100F03002430F53AEF75F00A84E5F02430F53B9090
:100F13000005E0FAA3E0FB7C037DE8FFAE021213B9
:100F2300CAEF2430F5447C007D64AF03AE02121394
:100F3300CA7C007D0A1213CAED2430F545900005E2
:100F4300A3E07C007D0AFFAE021213CA7C007D0A77
:100F53001213CAED2430F5467C007D0AAF03AE02BE
:100F63001213CAED2430F54775482D900003E0FFB6
:100F730075F00A842430F549EF75F00A84E5F0240E
:100F830030F54A754B2D900008E0FF75F00A842474
:100F930030F54CEF75F00A84E5F02430F54D751704
:100FA300FF751818751980751A00751B0A7B007A6E
:100FB30000796512182E30010B7517FF7518187517
:100FC300198B80097517FF75181875198E751A0016
:100FD300751B027B007A00796F12182E7B007A0052
:100FE30079307518107F801219067B007A007941D9
:100FF3007518107F901219067B007A0079637518B3
:10100300107F98121906021508E4F52CF52DFB7ACA
:1010130000793012199F1219997B007A00795212C4
:10102300199F7B007A00796312199FE4F52FF52E3F
:10103300F527F528E52F75F00A842430F534E52FDC
:1010430075F00A84E5F02430F53575363AE52E75EA
:10105300F00A842430F537E52E75F00A84E5F02490
:1010630030F53875393AAE27AF287C007D6412130A
:10107300CAEF2430F53AAE27AF287C007D0A12135D
:10108300CA7C007D0A1213CAED2430F53B02118895
:101093007B007A00793012199F1219997B007A002C
:1010A300795212199F7B007A00796312199F90007D
:1010B3000BE0FF75F00A842430F535EF75F00A84F0
:1010C300E5F02430F53675373A900007E0FF75F008
:1010D3000A842430F538EF75F00A84E5F02430F5FE
:1010E30039E4F51374017E00A813088005C333CED9
:1010F30033CED8F9FF900001E0FDEF5D6017E513F3
:1011030075F002A42452F9E4FAFB7517FF75181859
:1011130075198B8015E51375F002A42452F9E4FACE
:10112300FB7517FF75181875198EF51A751B0212C2
:10113300182E0513E513C3940740A930000B751748
:10114300FF75181875198B80097517FF75181875B1
:10115300198E751A00751B027B007A0079601218CC
:101163002E78637C007D007BFF7A1879911214EB53
:101173007569C8756AFD786B7C007D007BFF7A1802
:1011830079981214EB7B007A0079307518107F8000
:101193001219067B007A0079417518107F90121995
:1011A300067B007A0079527518107F881219067B26
:0D11B300007A0079637518107F98121906F4
:0111C000220C
:1018CE000526E52670020525C39401E52594004002
:1018DE0026D3E5269465E5259400400575750280AE
:1018EE000F20020320B20630020D30B30A757501C7
:0818FE00E4F525F526C20322E2
:10076D00300203020CB7E52AB414004003020E8FC9
:10077D00900784F82828730207C0020A84020AE44D
:10078D00020B03020A27020A46020A650207C50286
:10079D0007CA0207CA020A21020B22020B41020BF1
:1007AD0060020B91020BC2020BF3020C24020C55DA
:1007BD00020C867F07020A417F0A020A41052DE5D8
:1007CD002D7002052CAE2CFF7C007D031213CAED9B
:1007DD0064014C600302089AFB12199BAE2CAF2DDD
:1007ED007C037DE81213CA7E007F64CFCDCFCECCC3
:1007FD00CE1213CAEF2430F541AE2CAF2D7C007D07
:10080D00641213CA7E007F0ACFCDCFCECCCE121389
:10081D00CAEF2430F542AE2CAF2D7C007D0A1213A9
:10082D00CAED2430F543E52F75F00A842430F545E3
:10083D00E52F75F00A84E5F02430F54675473AE565
:10084D002E75F00A842430F548E52E75F00A84E5FE
:10085D00F02430F549754A3AAE27AF287C007D6407
:10086D001213CAEF2430F54BAE27AF287C007D0A5A
:10087D001213CA7C007D0A1213CAED2430F54C7B8D
:10088D00007A0079417518107F90020E31AE2CAFB1
:10089D002D7C007D031213CAED64024C6003020926
:1008AD0067FB7A00795212199FAE2CAF2D7C037D18
:1008BD00E81213CA7E007F64CFCDCFCECCCE1213FB
:1008CD00CAEF2430F552AE2CAF2D7C007D6412138F
:1008DD00CA7E007F0ACFCDCFCECCCE1213CAEF2465
:1008ED0030F553AE2CAF2D7C007D0A1213CAED24CA
:1008FD0030F554E52F75F00A842430F556E52F7543
:10090D00F00A84E5F02430F55775583AE52E75F068
:10091D000A842430F559E52E75F00A84E5F024306B
:10092D00F55A755B3AAE27AF287C007D641213CA69
:10093D00EF2430F55CAE27AF287C007D0A1213CA78
:10094D007C007D0A1213CAED2430F55D7B007A0020
:10095D0079527518107F88020E317B007A00796309
:10096D0012199FAE2CAF2D7C037DE81213CA7E00A9
:10097D007F64CFCDCFCECCCE1213CAEF2430F5632A
:10098D00AE2CAF2D7C007D641213CA7E007F0ACF82
:10099D00CDCFCECCCE1213CAEF2430F564AE2CAF32
:1009AD002D7C007D0A1213CAED2430F565E52F75F7
:1009BD00F00A842430F567E52F75F00A84E5F024FC
:1009CD0030F56875693AE52E75F00A842430F56ABC
:1009DD00E52E75F00A84E5F02430F56B756C3AAEB2
:1009ED0027AF287C007D641213CAEF2430F56DAE5D
:1009FD0027AF287C007D0A1213CA7C007D0A1213D2
:100A0D00CAED2430F56E7B007A0079637518107F7E
:100A1D0098020E31E4FFFE020DF890000CE0FF7518
:100A2D00F00A842430F534EF75F00A84E5F02430B3
:100A3D00F5357F057E00020DF890000AE0FF75F098
:100A4D000A842430F537EF75F00A84E5F02430F58B
:100A5D00387F067E00020DF8900004E0FF75F00A65
:100A6D00842430F53AEF75F00A84E5F02430F53B37
:100A7D007F047E00020DF8900005E0FAA3E0FB7CF8
:100A8D00037DE8FFAE021213CAEF2430F5447C005B
:100A9D007D64AF03AE021213CA7C007D0A1213CA25
:100AAD00ED2430F545900005A3E07C007D0AFFAEF6
:100ABD00021213CA7C007D0A1213CAED2430F546CA
:100ACD007C007D0AAF03AE021213CAED2430F54748
:100ADD007F027E00020DF8900003E0FF75F00A849E
:100AED002430F549EF75F00A84E5F02430F54A7F9E
:100AFD00037E00020DF8900008E0FF75F00A8424D3
:100B0D0030F54CEF75F00A84E5F02430F54D7F019A
:100B1D007E00020DF890000BE0FF75F00A84243082
:100B2D00F535EF75F00A84E5F02430F5367F0C7E4F
:100B3D0000020DF8900007E0FF75F00A842430F5EF
:100B4D0038EF75F00A84E5F02430F5397F0D7E001D
:100B5D00020DF8900001E030E00B7517FF751818C5
:100B6D0075198B80097517FF75181875198E751AFB
:100B7D0000751B027B007A00795212182E7F0E7EB3
:100B8D0000020DF8900001E030E10B7517FF7518AC
:100B9D001875198B80097517FF75181875198E75CD
:100BAD001A00751B027B007A00795412182E7F0FE4
:100BBD007E00020DF8900001E030E20B7517FF7515
:100BCD00181875198B80097517FF75181875198EFA
:100BDD00751A00751B027B007A00795612182E7F4C
:100BED00107E00020DF8900001E030E30B7517FF49
:100BFD0075181875198B80097517FF7518187519E3
:100C0D008E751A00751B027B007A00795812182E0A
:100C1D007F117E00020DF8900001E030E40B751796
:100C2D00FF75181875198B80097517FF75181875CC
:100C3D00198E751A00751B027B007A00795A1218ED
:100C4D002E7F127E00020DF8900001E030E50B754D
:100C5D0017FF75181875198B80097517FF751818FA
:100C6D0075198E751A00751B027B007A00795C125E
:100C7D00182E7F137E00020DF8900001E030E60B78
:100C8D007517FF75181875198B80097517FF75186D
:100C9D001875198E751A00751B027B007A00795E26
:100CAD0012182E7F0B7E00020DF8E52AB4140040B9
:100CBD0003020E8F900CC8F8282873020D04020D44
:100CCD0052020D78020D86020DD9020DDE020DE3E2
:100CDD00020DE8020DEE020DF4020DFE020E3602BB
:100CED000E42020E52020E5B020E64020E6D020ED9
:100CFD0076020E7F020E88B2017517FF75181875F2
:100D0D001980751A00751B0A7B007A007965121817
:100D1D002E30010B7517FF75181875198B80097515
:100D2D0017FF75181875198E751A00751B027B0043
:100D3D007A00796F12182E7B007A0079637518107E
:100D4D007F98020E31900006E004F07006900005C9
:100D5D00E004F0900005E0FEA3E0FF7C277D10127B
:100D6D0013CA900005ECF0A3ED800B900003E07525
:100D7D00F00C84E5F004F0804D900005E0FEA3E05A
:100D8D00FF5403700AFC7D641213CAED4C7013906E
:100D9D000005E0FEA3E0FF7C017D901213CAED4C2F
:100DAD007010900003E0B40209900008E075F01D8A
:100DBD00800F900003E09018C193FF900008E08F22
:100DCD00F084E5F004F0121508020E8F90000C80EF
:100DDD005B90000A8062900004805D7F087E008039
:100DED000A7F097E0080047F087E00120E93020E9A
:100DFD008FB20030000B7517FF75181875198B80A1
:100E0D00097517FF75181875198E751A00751B025F
:100E1D007B007A00796012182E7B007A007952756A
:100E2D0018107F88121906805990000BE004F0E02D
:100E3D0075F018800A900007E004F0E075F03C842E
:100E4D00E5F0F0803D900001E06401F08034900009
:100E5D0001E06402F0802B900001E06404F0802238
:100E6D00900001E06408F08019900001E06410F03A
:100E7D008010900001E06420F08007900001E06494
:060E8D0040F0E4F57522BF
:1011C100300203021271E52AB414004003021379BC
:1011D1009011D8F828287302121402123102123128
:1011E10002123102123C02123C02123C0213790239
:1011F100137902137902125402125A02125A02127C
:101201005A02125A02125A02125A02125A02125A5D
:1012110002125A900009E090000CF0900002E09058
:10122100000AF0900000E0900004F07F0402135CDB
:101231001217C450030213790212C390000CE090FC
:101241000009F0A3E0900002F0900004E09000009B
:10125100F0806F752A0B02137990000BE0F52B904B
:101261000007E0F524900001E0F5747F0A02135CA9
:10127100E52AB414004003021379901282F8282859
:10128100730212BE0212C90212EC0212FE0212C352
:101291000212C30212C302137902137902135A0212
:1012A10013790213600213600213600213600213C8
:1012B100600213600213600213600213607F010277
:1012C100135CE4FFFE021376900006E024FFF09029
:1012D1000005E034FFF0E0FEA3E0FF7C277D101263
:1012E10013CA900005ECF0A3ED800F900003E024F9
:1012F1000AF0E075F00C84E5F004F08057900005E9
:10130100E0FEA3E0FF5403700AFC7D641213CAEDF2
:101311004C7013900005E0FEA3E0FF7C017D90126C
:1013210013CAED4C7014900003E0B4020D90000854
:10133100E0241BF0E075F01D8015900003E090188B
:10134100C193FF24FEFE900008E02EF0E08FF084B0
:10135100E5F004F0121508801F7F077E00801690CB
:10136100000BE52BF0900007E524F0900001E574F7
:0C137100F07F0A7E00120E93E4F5752256
:10193A00900000E004F0E0D3943B4008E4F090000B
:10194A0002E004F0900002E0D3943B4008E4F090F7
:10195A000009E004F0900009E0D394174002E4F093
:01196A00225A
:10196B00900008E004F01217C45022900008740194
:10197B00F0900003E004F0E0940C40117401F0903F
:0E198B000006E004F07006900005E004F02273
:10150800900003E0FBD39402900005E0FEA3E0FF07
:101518007C007D6440091213CAAE04AF05800B122B
:1015280013CAED24FFFFEC34FFFEEF7802CEC3139D
:10153800CE13D8F9FAEBD39402900005E0FEA3E0AD
:10154800FF7C007D6440071213CAAF0580071213A1
:10155800CAED24FFFFEF2AFB900005E0FEA3E0FFA1
:101568007C007D641213CAAC06AD07ED7802CEC3C9
:1015780013CE13D8F92BFFED25E0FEC3EF9EFB90A9
:101588000003E0FFD3940240028007900003E024A8
:101598000CFFEF2401FFE433FE7C007D1A1213B820
:1015A8007D0A1213CAEB2FFF900008E02F14900059
:1015B8000DF090000DE0FFC394005006E02407F002
:1015C80080F0EF75F0078490000DE5F0F07B007A6D
:1015D80000795212199F90000DE0B40700400302F1
:1015E80016759015F1F828287302160602161102CE
:1015F800161C02162702164702165202165D7517A8
:10160800FF7518187519A180557517FF7518187585
:1016180019A6804A7517FF7518187519AB803F759C
:1016280017FF7518187519B0751A00751B027B001D
:101638007A00795812182E755AC8755BFD802E7578
:1016480017FF7518187519B380147517FF751818D2
:101658007519B880097517FF7518187519BD751AA9
:1016680000751B047B007A00795812182E7B007ACB
:0B1678000079527518107F88021906D7
:1017C400900005E0FEA3E0FF900003E0FD90000818
:0217D400E0FB38
:1017D600AA058F828E83EAD3940C5006EAC394013D
:1017E6005002D322EBC39401500122E582540370C8
:1017F6000EFC7D64AF82AE831213CAED4C700FAE41
:1018060083AF827C017D901213CAED4C700BBA0235
:1018160008EBD3941D400FD322EA9018C193FFEB37
:08182600D39F4002D322C3222C
:061999007B007A00794199
:06199F008B148A15891665
:1019A500121A23E4FEEEC39F5013AB14AA15A91611
:0D19B5008E8275830074201213960E80E858
:0119C2002202
:03000300021A5C82
:081A5C00200304D203C2023290
:03001300021A646A
:081A6400200304D203D2023278
:03000B00020016DA
:10001600C0E0C0F0C083C082C0D075D000C000C0B0
:1000260001C002C003C004C005C006C0070522E522
:100036002270020521758CD8758AF0E52264644524
:10004600216003020184F521F52212193AE52A708E
:1000560064FB7A00793012199F900009E0FF75F071
:100066000A842430F534EF75F00A84E5F02430F57F
:100076003575363A900002E0FF75F00A842430F5B3
:1000860037EF75F00A84E5F02430F53875393A9083
:100096000000E0FF75F00A842430F53AEF75F00AA7
:1000A60084E5F02430F53B7B007A00793075181032
:1000B6007F80121906900009E06003020184900017
:1000C60002E06003020184900000E0600302018404
:1000D60012196B121508E52A6003020184FB121936
:1000E6009B900005E0FAA3E0FB7C037DE8FFAE02EF
:1000F6001213CAEF2430F5447C007D64AF03AE02D0
:100106001213CA7C007D0A1213CAED2430F54590FD
:100116000005A3E07C007D0AFFAE021213CA7C0034
:100126007D0A1213CAED2430F5467C007D0AAF0322
:10013600AE021213CAED2430F54775482D90000320
:10014600E0FF75F00A842430F549EF75F00A84E57E
:10015600F02430F54A754B2D900008E0FF75F00A43
:10016600842430F54CEF75F00A84E5F02430F54D23
:100176007B007A0079417518107F901219063003BA
:10018600031218CEE575B4010512076D8008E575F2
:10019600B402031211C1E52A600302022F200003F4
:1001A60002022F900009E0652B7038900002E0B53E
:1001B6002431900000E0702B90000DE0FF74017E6A
:1001C60000A807088005C333CE33CED8F9FFEF5514
:1001D60074D39400748094804009E522452170030D
:1001E60075230CE5236042C3E49522E49521500B68
:1001F600C3E5229419E52194004015C37432952273
:10020600E49521500FC3E522944BE5219400500458
:10021600B2A28002C2A2AE21AF227C007D191213C7
:10022600CAED4C70041523C2A2E52A704F30014C6A
:10023600900002E0FF7045900000E0FEC39403507A
:100246003BE529700FEF700CEE7009E52245217031
:1002560003752908E5296024D3E5229432E5219423
:10026600004004B2A28002C2A2AE21AF227C007D71
:10027600321213CAED4C70041529C2A2E52A14B431
:100286001300400302075290029B75F003A4C58336
:1002960025F0C5837302035F0203D3020400020242
:1002A600D402030302033102075202043902075241
:1002B6000207520204D402050D0205460205910208
:1002C60005DC0206270206720206BD020707C3E521
:1002D600229432E5219400501B90000CE0FF75F04B
:1002E6000A842430F534EF75F00A84E5F02430F5FD
:1002F600350204FF7534207535200204FFC3E5225C
:100306009432E5219400501A90000AE0FF75F00A35
:10031600842430F537EF75F00A84E5F02430F5389B
:1003260080067537207538200204FFC3E522943213
:10033600E5219400501A900004E0FF75F00A842429
:1003460030F53AEF75F00A84E5F02430F53B800687
:10035600753A20753B200204FFC3E5229432E5215D
:100366009400505B900005E0FAA3E0FB7C037DE877
:10037600FFAE021213CAEF2430F5447C007D64AF51
:1003860003AE021213CA7C007D0A1213CAED243092
:10039600F545900005A3E07C007D0AFFAE0212132E
:1003A600CA7C007D0A1213CAED2430F5467C007D16
:1003B6000AAF03AE021213CAED2430F54780667504
:1003C60044207545207546207547208058C3E52290
:1003D6009432E5219400501A900003E0FF75F00A6C
:1003E600842430F549EF75F00A84E5F02430F54AA7
:1003F6008006754920754A20802BC3E5229432E594
:10040600219400501A900008E0FF75F00A84243009
:10041600F54CEF75F00A84E5F02430F54D8006754D
:100426004C20754D207B007A0079417518107F901D
:1004360002074F740A2528F528E43527F527D3E562
:100446002894E7E5279403400875270075280005DA
:100456002EE52ED3943B4005752E00052FE52FD3B0
:10046600943B4003752F00E52F75F00A842430F580
:1004760034E52F75F00A84E5F02430F53575363A03
:10048600E52E75F00A842430F537E52E75F00A84DA
:10049600E5F02430F53875393AAE27AF287C007D73
:1004A600641213CAEF2430F53AAE27AF287C007DDC
:1004B6000A1213CA7C007D0A1213CAED2430F53BDA
:1004C6007B007A0079307518107F8002074FC3E5EC
:1004D600229432E5219400501A90000BE0FF75F04B
:1004E6000A842430F535EF75F00A84E5F02430F5FA
:1004F6003680067535207536207B007A0079307592
:1005060018107F8002074FC3E5229432E52194003C
:10051600501A900007E0FF75F00A842430F538EF92
:1005260075F00A84E5F02430F539800675382075B3
:1005360039207B007A0079307518107F8002074FCA
:10054600C3E5229432E5219400502C900001E0305E
:10055600E00B7517FF75181875198B80097517FF4D
:1005660075181875198E751A00751B027B007A00AE
:10057600795212182E80067552207553207B007A08
:100586000079527518107F8802074FC3E52294320E
:10059600E5219400502C900001E030E10B7517FF27
:1005A60075181875198B80097517FF751818751940
:1005B6008E751A00751B027B007A00795412182E6C
:1005C60080067554207555207B007A00795275187F
:1005D600107F8802074FC3E5229432E5219400502C
:1005E6002C900001E030E20B7517FF75181875198D
:1005F6008B80097517FF75181875198E751A007591
:100606001B027B007A00795612182E80067556203A
:100616007557207B007A0079527518107F8802077B
:100626004FC3E5229432E5219400502C900001E05E
:1006360030E30B7517FF75181875198B8009751738
:10064600FF75181875198E751A00751B027B007ACE
:1006560000795812182E80067558207559207B008F
:100666007A0079527518107F8802074FC3E52294E5
:1006760032E5219400502C900001E030E40B751710
:10068600FF75181875198B80097517FF7518187579
:10069600198E751A00751B027B007A00795A12189A
:1006A6002E8006755A20755B207B007A007952757C
:1006B60018107F8802074FC3E5229432E521940083
:1006C600502C900001E030E50B7517FF7518187572
:1006D600198B80097517FF75181875198E751A000C
:1006E600751B027B007A00795C12182E8006755CF9
:1006F60020755D207B007A0079527518107F8880FE
:1007060048C3E5229432E5219400502C900001E084
:1007160030E60B7517FF75181875198B8009751754
:10072600FF75181875198E751A00751B027B007AED
:1007360000795E12182E8006755E20755F207B009C
:100746007A0079527518107F88121906D007D006DC
:10075600D005D004D003D002D001D000D0D0D082B2
:07076600D083D0F0D0E03297
:101A09008F1A121A38C2B5A20592B4D2B6851A90A5
:0A1A19007F057E00121A4AC2B622B1
:1019EB00D2B7C2057F30121A09C2057F0C121A0931
:0E19FB00C2057F01121A09C2057F06021A09F1
:101A38007FFAC2B4D2B5D2B6E59030E702DFF9C278
:011A4800B6E7
:011A4900227A
:061906008B158A168917FB
:10190C00C205121A09E4F519E519C39518501EAB56
:10191C0015AA16A91712137DFFD205121A09740104
:0D192C002517F517E43516F516051980DBB3
:01193900228B
:101A4A00EEC313FEEF13FFEF1FAC0670011E4C70BE
:021A5A00F62272
:03000000021738AC
:0C173800787FE4F6D8FD75817502177FFC
:10137D00BB010689828A83E0225002E722BBFE026E
:09138D00E32289828A83E49322A1
:10139600F8BB010DE58229F582E5833AF583E8F08D
:1013A600225006E92582C8F622BBFE05E92582C839
:0213B600F22221
:1013B800EF8DF0A4A8F0CF8CF0A428CE8DF0A42E49
:0213C800FE2203
:1013CA00BC000BBE0029EF8DF084FFADF022E4CC07
:1013DA00F875F008EF2FFFEE33FEEC33FCEE9DECD0
:1013EA00984005FCEE9DFE0FD5F0E9E4CEFD22ED16
:1013FA00F8F5F0EE8420D21CFEADF075F008EF2F60
:10140A00FFED33FD4007985006D5F0F222C398FD50
:05141A000FD5F0EA22ED
:10141F00E709F60870FA8046E709F20870FA803E8D
:10142F0088828C83E709F0A370FA807EE309F608BF
:10143F0070FA8076E309F20870FA806E88828C83E6
:10144F00E309F0A370FA806289828A83E0A3F60829
:10145F0070FA805689828A83E0A3F20870FA804A74
:10146F0080D280FA80C680D4806580F2803180106F
:10147F0080A680EA809A80A880DA80E280CA8031D4
:10148F0089828A83ECFAE493A3C8C582C8CCC5834A
:10149F00CCF0A3C8C582C8CCC583CC70E9800D89B8
:1014AF00828A83E493A3F60870F9ECFAA9F0EDFBB6
:1014BF002289828A83ECFAE0A3C8C582C8CCC5838F
:1014CF00CCF0A3C8C582C8CCC583CC70EA80DD89B7
:1014DF00828A83E493A3F20870F980CE88F0ED241A
:1014EF0002B4040050C4F582EB2402B4040050BAD5
:0914FF00232345822390146F732E
:10182E008B148A158916E4F51CF51DE51B151BAEE8
:10183E001A7002151A4E6033AB17AA18A919121393
:10184E007DFFAB14AA15A916051DE51DAC1C700273
:10185E00051C14F5828C83EF121396EF60CD740184
:10186E002519F519E43518F51880C0AB14AA15A979
:02187E00162230
:101A2300E4FFFE12137D600C0FEF70010E09E970E5
:051A3300F20A80EF2221
:10174400020006E493A3F8E493A34003F68001F2B5
:1017540008DFF48029E493A3F85407240CC8C333A6
:10176400C4540F4420C8834004F456800146F6DF75
:10177400E4800B0102040810204080901683E47E6C
:10178400019360BCA3FF543F30E509541FFEE4936A
:10179400A360010ECF54C025E060A840B8E493A331
:1017A400FAE493A3F8E493A3C8C582C8CAC583CA5C
:1017B400F0A3C8C582C8CAC583CADFE9DEE780BE14
:0117370000B1
:00000001FF
