:10071100C0F9A4B0999282F880908883C6A1868E90
:0C072100BFFF0102040810204080FF0010
:1005FE0001361701323B01213A01351701253B0126
:10060E00340001390008280000000000000000023C
:10061E00220000C101C10002260000013A00C10300
:10062E00C102013300012400023000000137000135
:02063E00380082
:100641000527E52770020526C3940AE52694004094
:1006510026D3E52794F2E52694034005753A0280F6
:100661000F20020320B20630020D30B30A753A01A1
:08067100E4F526F527C203227F
:10033B00200268E534B40B00400302049490034F91
:10034B00F828287302037002037602038802038ED7
:10035B0002039402037C02049402049402038202BB
:10036B00039A0203A0753401020494753405020448
:10037B0094753408020494E4F53402049475340340
:10038B0002049475340402049475340202049475C7
:0B039B00340A02049475340902049433
:1003A600E52875F00AA42529F508E52B75F00AA4B9
:1003B600252CFFF509E52E75F00AA4252FF50A8FE1
:1003C6000BF50CE53424FEB40900400302049490B6
:1003D60003E375F003A4C58325F0C583730203FE0A
:1003E60002041C02043302044A02044C02045102B1
:1003F600045602045A0204780508E50875F01884C4
:1004060085F008E50875F00A84F528E50875F00A10
:100416008485F02980780509E50975F03C8485F026
:1004260009E50975F00A84F52BE509803C050AE51E
:100436000A75F03C8485F00AE50A75F00A84F52E03
:10044600E50A804380057534078043753406803E8F
:10045600B200803A050BE50B75F0188485F00BE5C4
:100466000B75F00A84F52BE50B75F00A8485F02CE4
:10047600801C050CE50C75F03C8485F00CE50C75CC
:0E048600F00A84F52EE50C75F00A8485F02F3F
:04049400E4F53A222F
:10052400200256E53424FE24FD501324FD602F14CC
:10053400603114602E240970687534028063E528E4
:1005440075F00AA42529F536E52B75F00AA4252CA7
:10055400F532E52E75F00AA4252FF5218036753481
:1005640009803EE52B75F00AA4252CF535E52E759A
:10057400F00AA4252FF5258025E53424FE24FD501A
:100584001324FE601424FE6015146012240A7011F2
:10059400B201800DE4F534800875340580037534A8
:0505A40008E4F53A2215
:03000300020742AF
:08074200200304D203C20232BD
:0300130002074A97
:08074A00200304D203D20232A5
:1006D0000521E521D3943B4005E4F5210532E532BF
:1006E000D3943B4005E4F5320536E536D394174004
:0506F00003E4F53622D1
:1006A500AE39EFA806088002C313D8FCFF53070133
:1006B500BF010B74282539F8E6FFAD398004AD3943
:0B06C5007F1112067905395339072216
:03000B00020016DA
:10001600C0E0C0F0C083C082C0D075D000C000C0B0
:1000260001C002C003C004C005C006C0070523E521
:100036002370020522758CFC758A18E523B4E80E38
:10004600E522B403097522007523001206D0300399
:1000560003120641E53AB4010512033B8008E53A6E
:10006600B40203120524E534706130005EE536B54E
:100076003512E532B5250DE5217009E523452270D7
:100086000375240CE5246043C3E49523E4952250CC
:100096000BC3E52394FAE52294004016C374F49545
:1000A6002374019522500FC3E52394EEE5229402B2
:1000B6005004B2A38002C2A3AE22AF237C007DFA15
:1000C6001205A9ED4C70041524C2A3E53470403026
:1000D600013DE5337011E532700DE5217009E52328
:1000E60045227003753308E5336024D3E52394F481
:1000F600E52294014004B2A38002C2A3AE22AF233C
:100106007C017DF41205A9ED4C70041533C2A3E5FC
:1001160034B40B004003020320900126F82828730C
:100126000201470201820201940201A90201BE02F4
:1001360001D30202330202B50202B90202F9020336
:100146000CE53675F00A84F528E53675F00A8485DF
:10015600F029752A10E53275F00A84F52BE532751B
:10016600F00A8485F02C752D10E52175F00A84F5CA
:100176002EE52175F00A8485F02F801DC3E52394B2
:10018600F4E522940150028010E4FF02031DC3E54A
:100196002394F4E522940150057FFF02031D7FFCA2
:1001A60002031DC3E52394F4E522940150057FFF65
:1001B60002031D7FE702031DC3E52394F4E52294A1
:1001C6000150057FFF02031D7F3F02031D753000AE
:1001D600753100753700753800E53875F00A84F515
:1001E60028E53875F00A8485F029752A10E53775F3
:1001F600F00A84F52BE53775F00A8485F02C752D09
:1002060010AE30AF317C007D641205A98F2EAE3062
:10021600AF317C007D641205A97E007F0ACFCDCF69
:10022600CECCCE1205A98F2F7FFF02031D0531E527
:100236003170020530D394E7E530940340087530F9
:10024600007531000537E537D3943B400575370017
:100256000538E538D3943B4003753800E53875F02A
:100266000A84F528E53875F00A8485F029752A1080
:10027600E53775F00A84F52BE53775F00A8485F0C5
:100286002C752D10AE30AF317C007D641205A98F20
:100296002EAE30AF317C007D641205A97E007F0A48
:1002A600CFCDCFCECCCE1205A98F2F7FFF80687F12
:1002B600FF8064E53575F00A84F52BE53575F00A9F
:1002C6008485F02C752D10E52575F00A84F52EE54C
:1002D6002575F00A8485F02F30000B7528117529D5
:1002E60011752A11800975280075290F752A0F7F47
:1002F600FF8024C3E52394F4E522940150047FFF94
:1003060080157FE78011C3E52394F4E5229401501C
:10031600047FFF80027F3F1206A5D007D006D005D6
:10032600D004D003D002D001D000D0D0D082D08368
:05033600D0F0D0E03220
:1006F500C2A3D2AFD288D2A8D28AD2AAD2B97589DA
:0C07050001D2A9D28C758CFC758A1822D8
:050006001206F580FE6A
:10072D00E4FEEF3392A0C2A1D2A1C2A1EF25E0FF5A
:04073D000EBE08EEF6
:010741002295
:10067900AC07ED90072393FF12072D30010EE539E2
:10068900B40709EC90071193547F8005EC9007118A
:0C06990093FF12072DC2A2D2A2C2A2221F
:030000000204985F
:0C049800787FE4F6D8FD75813A0204DF9D
:1005A900BC000BBE0029EF8DF084FFADF022E4CC36
:1005B900F875F008EF2FFFEE33FEEC33FCEE9DECFF
:1005C900984005FCEE9DFE0FD5F0E9E4CEFD22ED45
:1005D900F8F5F0EE8420D21CFEADF075F008EF2F8F
:1005E900FFED33FD4007985006D5F0F222C398FD80
:0505F9000FD5F0EA221D
:1004A400020006E493A3F8E493A34003F68001F268
:1004B40008DFF48029E493A3F85407240CC8C33359
:1004C400C4540F4420C8834004F456800146F6DF28
:1004D400E4800B01020408102040809005FEE47EB5
:1004E400019360BCA3FF543F30E509541FFEE4931D
:1004F400A360010ECF54C025E060A840B8E493A3E4
:10050400FAE493A3F8E493A3C8C582C8CAC583CA0E
:10051400F0A3C8C582C8CAC583CADFE9DEE780BEC6
:0106400000B9
:00000001FF
