:1014C100C0F9A4B0999282F880908883C6A1868ED3
:1014D100BFFF1F1C1F1E1F1E1F1F1E1F1E1F0102DD
:0814E100040810204080FF0008
:1013A300013D1701333B01213A023907E4013702BA
:1013B300013C1C013F0001381701253B01360001A8
:1013C300430008290000000000000000013500026E
:1013D300220000C101C100014200022700000144B4
:1013E30000C103C102014117013B3B012600013447
:0E13F3000001240002310000013E0001400014
:101460000528E52870020527C3940AE52794004063
:1014700026D3E52894F2E5279403400575440280BD
:101480000F20020320B20630020D30B30A7544016A
:08149000E4F527F528C2032250
:10140200AA058F828E83EAD3940C5049EAC39401D1
:1014120050028041EBC3940150028039E5825403AB
:10142200700EFC7D64AF82AE831212EFED4C700F32
:10143200AE83AF827C017D901212EFED4C700BBA3D
:101442000208EBD3941D4012800BEA9014D293FF52
:0E145200EBD39F40057E007F0122E4FEFF22C7
:10067D003002030207B8E536B415004003020BFE45
:10068D00900694F82828730206D3020BFE0206F496
:10069D000206FA0207000206E20206E80206EE0270
:1006AD0006D9020BFE020BFE0206DF020706020749
:1006BD000C02074F02075502075B0207610207672D
:1006CD0002076D020773753608020BFE75360B02B5
:1006DD000BFE02086B753606020BFE753607020B14
:1006ED00FE753605020BFE753603020BFE753604DC
:1006FD00020BFE753602020BFE75360D020BFEE582
:10070D00265401F529E526C3135401F52AE52613D0
:10071D00135401F52BE5261313135401F52CE5267F
:10072D00C45401F52DE526C4135401F52EE526C458
:10073D0013135401F52F75301185263575360E02BC
:10074D000BFE75360F020BFE753610020BFE75365D
:10075D0011020BFE753612020BFE753613020BFEDF
:10076D00753614020BFEE54175F00A84F52CE54152
:10077D0075F00A8485F02D752E10E53B75F00A8411
:10078D00F52FE53B75F00A8485F03030000B7529A7
:10079D0011752A11752B118009E4F529752A0F752C
:0B07AD002B0F85263575360C020BFE65
:1007B800E52975F00AA4252AF508E52C75F00AA4A0
:1007C800252DF509E52F75F00AA42530FBF50AAFAC
:1007D800297E007C037DE81212DDAC06AD07E52A10
:1007E80075F064A42DFDEC35F0FCE52B75F00AA43A
:1007F8002DFFE5F03CFE7C00EF252CF50CEC3EF5DA
:100808000BE52D75F00AA4252EF50D8B0EE536B4F3
:1008180015004003020BFE900826F82828730208EA
:100828006502086B020871020962020A14020B2CA5
:10083800020B4B020B62020B79020B7B020B80024C
:100848000B85020B89020BA7020BC5020BCD020B0D
:10085800D5020BDD020BE5020BED020BF575360137
:10086800020BFEE4F536020BFE050CE50C700205E2
:100878000BAE0BFF7C277D101212EF8C0B8D0CAE8C
:100888000BAF0C7C037DE81212EF8F29AE0BAF0C77
:100898007C007D641212EF7C007D0A1212EF8D2A13
:1008A800AE0BAF0C7C007D0A1212EF7C007D0A12A1
:1008B80012EF8D2BAE0BAF0C7C007D0A1212EF8D60
:1008C8002CE50DD39402AE0BAF0C7C007D6440097F
:1008D8001212EFAE04AF05800B1212EFED24FFFFEA
:1008E800EC34FFFEEF7802CEC313CE13D8F9FBAA7F
:1008F80006E50DD39402AE0BAF0C7C007D64400975
:100908001212EFAE04AF05800B1212EFED24FFFFB9
:10091800EC34FFFEEB2FFBEA3EFAAE0BAF0C7C008B
:100928007D641212EFAC06AD07ED7802CEC313CE8C
:1009380013D8F92BFBEA3EFAED25E0FFEC33FEC3B2
:10094800EB9FFBEA9EFAE50DD394024005AF0D023A
:100958000AFAE50D240CFF020AFAE50D75F00C847D
:10096800E5F004F50D75F00A84F52DE50D75F00A2E
:100978008485F02EE50DD39402AE0BAF0C7C007D80
:100988006440091212EFAE04AF05800B1212EFEDAE
:1009980024FFFFEC34FFFEEF7802CEC313CE13D84A
:1009A800F9FBAA06E50DD39402AE0BAF0C7C007DD3
:1009B8006440091212EFAE04AF05800B1212EFED7E
:1009C80024FFFFEC34FFFEEB2FFBEA3EFAAE0BAF41
:1009D8000C7C007D641212EFAC06AD07ED7802CEF8
:1009E800C313CE13D8F92BFBEA3EFAED25E0FFEC52
:1009F80033FEC3EB9FFBEA9EFAE50DD39402400455
:100A0800AF0D8005E50D240CFF020AFAE50C54032E
:100A1800700EAE0BAF0CFC7D641212EFED4C700F34
:100A2800AE0BAF0C7C017D901212EFED4C700CE513
:100A38000DB40207E50E75F01D800BE50D9014D27C
:100A480093FFE50E8FF084E5F004F50EE50E75F0E2
:100A58000A84F52FE50E75F00A8485F030E50DD38C
:100A68009402AE0BAF0C7C007D6440091212EFAE0D
:100A780004AF05800B1212EFED24FFFFEC34FFFEEC
:100A8800EF7802CEC313CE13D8F9FBAA06E50DD32F
:100A98009402AE0BAF0C7C007D6440091212EFAEDD
:100AA80004AF05800B1212EFED24FFFFEC34FFFEBC
:100AB800EB2FFBEA3EFAAE0BAF0C7C007D64121202
:100AC800EFAC06AD07ED7802CEC313CE13D8F92BE1
:100AD800FBEA3EFAED25E0FFEC33FEC3EB9FFBEAB1
:100AE8009EFAE50DD394024004AF0D8005E50D2470
:100AF8000CFFEF2401FFE433FE7C007D1A1212DDA7
:100B08007D0A1212EFEF2BFFEE3AFE7C00EF250E66
:100B1800FFEC3ECF24FFCF34FFFE7D071212EF8D8E
:100B28003F020BFE0508E50875F0188485F008E516
:100B38000875F00A84F529E50875F00A8485F02A15
:100B4800020BFE0509E50975F03C8485F009E50905
:100B580075F00A84F52CE509803C050AE50A75F06C
:100B68003C8485F00AE50A75F00A84F52FE50A80C9
:100B780043800575360A807E7536098079B2008013
:100B8800750541E54175F0188485F041E54175F03A
:100B98000A84F52CE54175F00A8485F02D80570507
:100BA8003BE53B75F03C8485F03BE53B75F00A84FA
:100BB800F52FE53B75F00A8485F03080396329010B
:100BC800632601802E632A016326028026632B0197
:100BD800632604801E632C016326088016632D019A
:100BE800632610800E632E016326208006632F0182
:060BF8006326408526354E
:040BFE00E4F54422B4
:100C0200300203020DF4E536B41500400302116D03
:100C1200900C19F8282873020C58020C5E020C641E
:100C2200020C64020C64020DC1020DC1020DC1026C
:100C3200116D02116D02116D020DE2020DE8020D3D
:100C4200E8020DE8020DE8020DE8020DE8020DE8E7
:100C5200020DE8020DE875360502116D75360202C5
:100C6200116DAF297E007C037DE81212DDAC06AD6A
:100C720007E52A75F064A42DFDEC35F0FCE52B7533
:100C8200F00AA42DFFE5F03CFE7C00EF252CFFECE2
:100C92003EFEE52D75F00AA4252EFDE52F75F00A1E
:100CA200A42530FB121402EF4E600302116DAF292E
:100CB200FE7C037DE81212DDAC06AD07E52A75F075
:100CC20064A42DFDEC35F0FCE52B75F00AA42DFF94
:100CD200E5F03CFE7C00EF252CF53AEC3EF539E5DB
:100CE2002D75F00AA4252EF537E52F75F00AA425F7
:100CF20030F53CE537D39402AE39AF3A400B7D6410
:100D02001212EFAE04AF05800F7C007D641212EF69
:100D1200ED24FFFFEC34FFFEEF7802CEC313CE13B7
:100D2200D8F9FBAA06E537D39402AE39AF3A7C0074
:100D32007D6440091212EFAE04AF05800B1212EF70
:100D4200ED24FFFFEC34FFFEEB2FFBEA3EFAAE3957
:100D5200AF3A7C007D641212EFAC06AD07ED78026B
:100D6200CEC313CE13D8F92BFBEA3EFAED25E0FFF2
:100D7200EC33FEC3EB9FFBEA9EFAE537D3940240C5
:100D820004AF378005E537240CFFEF2401FFE4337D
:100D9200FE7C007D1A1212DD7D0A1212EFEF2BFF8C
:100DA200EE3AFE7C00EF253CFFEC3ECF24FFCF3431
:100DB200FFFE7D071212EF8D3F75360102116DE5C0
:100DC2002975F00AA4252AF53DE52C75F00AA4251B
:100DD2002DF533E52F75F00AA42530F521020E8F8B
:100DE20075360C02116D854138853B2585264202F8
:020DF200116A84
:100DF400AF297E007C037DE81212DDAC06AD07E569
:100E04002A75F064A42DFDEC35F0FCE52B75F00A91
:100E1400A42DFFE5F03CFE7C00EF252CF509EC3E0B
:100E2400F508E52D75F00AA4252EF50AE52F75F0D1
:100E34000AA42530F50BE536B41500400302116D04
:100E4400900E4BF8282873020E8A02116D020E953B
:100E5400020F8702103D020E8F020E8F020E8F02C8
:100E6400116D02116D02115C02116D02116102110A
:100E740061021161021161021161021161021161C9
:100E8400021161021161B20102116DE4F536021121
:100E94006DE509150970021508AE08AF097C277DB8
:100EA400101212EF8C088D09AE08AF097C037DE89F
:100EB4001212EF8F29AE08AF097C007D641212EF85
:100EC4007C007D0A1212EF8D2AAE08AF097C007DEA
:100ED4000A1212EF7C007D0A1212EF8D2BAE08AFBE
:100EE400097C007D0A1212EF8D2CE50AD39402AE20
:100EF40008AF097C007D6440091212EFAE04AF050F
:100F0400800B1212EFED24FFFFEC34FFFEEF7802AA
:100F1400CEC313CE13D8F9FBAA06E50AD39402AEC6
:100F240008AF097C007D6440091212EFAE04AF05DE
:100F3400800B1212EFED24FFFFEC34FFFEEB2FFBCE
:100F4400EA3EFAAE08AF097C007D641212EFAC06EB
:100F5400AD07ED7802CEC313CE13D8F92BFBEA3ECE
:100F6400FAED25E0FFEC33FEC3EB9FFBEA9EFAE5C6
:100F74000AD394024005AF0A02112BE50A240CFFA0
:100F840002112B740A250AF50A75F00C84E5F004A5
:100F9400F50A75F00A84F52DE50A75F00A8485F0E2
:100FA4002EE50AD39402AE08AF097C007D644009A3
:100FB4001212EFAE04AF05800B1212EFED24FFFF07
:100FC400EC34FFFEEF7802CEC313CE13D8F9FBAA9C
:100FD40006E50AD39402AE08AF097C007D6440099B
:100FE4001212EFAE04AF05800B1212EFED24FFFFD7
:100FF400EC34FFFEEB2FFBEA3EFAAE08AF097C00AF
:101004007D641212EFAC06AD07ED7802CEC313CEA9
:1010140013D8F92BFBEA3EFAED25E0FFEC33FEC3CF
:10102400EB9FFBEA9EFAE50AD394024004AF0A80E0
:1010340005E50A240CFF02112BE5095403700EAEDA
:1010440008AF09FC7D641212EFED4C700FAE08AFCF
:10105400097C017D901212EFED4C7010E50AB40288
:101064000B741B250BF50B75F01D800FE50A90140E
:10107400D293FF24FE250BF50B8FF084E5F004F5E5
:101084000BE50B75F00A84F52FE50B75F00A8485E2
:10109400F030E50AD39402AE08AF097C007D6440C9
:1010A400091212EFAE04AF05800B1212EFED24FF0C
:1010B400FFEC34FFFEEF7802CEC313CE13D8F9FB56
:1010C400AA06E50AD39402AE08AF097C007D644009
:1010D400091212EFAE04AF05800B1212EFED24FFDC
:1010E400FFEC34FFFEEB2FFBEA3EFAAE08AF097CBF
:1010F400007D641212EFAC06AD07ED7802CEC31387
:10110400CE13D8F92BFBEA3EFAED25E0FFEC33FED3
:10111400C3EB9FFBEA9EFAE50AD394024004AF0AAC
:101124008005E50A240CFFEF2401FFE433FE7C0074
:101134007D1A1212DD7D0A1212EFEF2BFFEE3AFE3A
:101144007C00EF250BFFEC3ECF24FFCF34FFFE7D68
:10115400071212EF8D3F8011753608800C853841D7
:0911640085253B85422675360BFA
:04116D00E4F544223F
:03000300021523C0
:08152300200304D203C20232CE
:0300130002152BA8
:08152B00200304D203D20232B6
:1014E9000521E521D3943B4005E4F5210533E53396
:1014F900D3943B4005E4F533053DE53DD3941740CE
:0515090003E4F53D22A2
:10149800053CAB3CAD37AF3AAE39121402EF4E60A3
:1014A80017753C010537E537D3940C400B753701A8
:0914B800053AE53A7002053922FB
:03000B00020016DA
:10001600C0E0C0F0C083C082C0D075D000C000C0B0
:1000260001C002C003C004C005C006C0070523E521
:100036002370020522758CFC758A18E52364E87026
:1000460004E52264036003020133F522F52312144A
:10005600E9E53D6003020133E5336003020133E560
:10006600216003020133121498E537D39402AE39A6
:10007600AF3A7C007D6440091212EFAE04AF0580F2
:100086000B1212EFED24FFFFEC34FFFEEF7802CEE9
:10009600C313CE13D8F9FBAA06E537D39402AE39BB
:1000A600AF3A7C007D6440091212EFAE04AF0580C2
:1000B6000B1212EFED24FFFFEC34FFFEEB2FFBEAF1
:1000C6003EFAAE39AF3A7C007D641212EFAC06AD53
:1000D60007ED7802CEC313CE13D8F92BFBEA3EFA0E
:1000E600ED25E0FFEC33FEC3EB9FFBEA9EFAE53716
:1000F600D394024004AF378005E537240CFFEF2484
:1001060001FFE433FE7C007D1A1212DD7D0A121215
:10011600EFEF2BFFEE3AFE7C00EF253CFFEC3ECFE7
:1001260024FFCF34FFFE7D071212EF8D3F3003030D
:10013600121460E544B4010512067D8008E544B456
:100146000203120C02E53660030201D030007BE5A3
:100156003D6538702EE533B52529E5217025047EE9
:1001660000A83F088005C333CE33CED8F9FFEF553C
:1001760042D39400748094804009E523452270039D
:1001860075240CE5246043C3E49523E49522500BC3
:10019600C3E52394FAE52294004016C374F495232C
:1001A60074019522500FC3E52394EEE52294025084
:1001B60004B2A38002C2A3AE22AF237C007DFA1252
:1001C60012EFED4C70041524C2A3E53670403001E1
:1001D6003DE5347011E533700DE5217009E52345E1
:1001E600227003753408E5346024D3E52394F4E5DE
:1001F6002294014004B2A38002C2A3AE22AF237CA4
:10020600017DF41212EFED4C70041534C2A3E536ED
:10021600B415004003020662900225F828287302EE
:1002260002640202B70203CC0203FE020430020398
:100236003902036802039A0204620204C702054FE8
:1002460002055902059F0205B60205CD0205E30225
:1002560005F802060D02062202063702064CE53DA7
:1002660075F00A84F529E53D75F00A8485F02A754E
:100276002B10E53375F00A84F52CE53375F00A8406
:1002860085F02D752E10E52175F00A84F52FE521F0
:1002960075F00A8485F030AF3F7401A80708800224
:1002A600C333D8FCFF3001057E800203327E008016
:1002B6007BAE39AF3A7C037DE81212EF8F29AE3957
:1002C600AF3A7C007D641212EF7C007D0A1212EFB9
:1002D6008D2AAE39AF3A7C007D0A1212EF7C007D82
:1002E6000A1212EF8D2BAE39AF3A7C007D0A12123C
:1002F600EF8D2CE53775F00A84F52DE53775F00A94
:100306008485F02EE53C75F00A84F52FE53C75F002
:100316000A8485F030AF3F7401A807088002C33312
:10032600D8FCFF3001047E8080027E00EF4EF5355A
:100336000204C0AF3F7401A807088002C333D8FC8B
:10034600FF3001047E8080027E00EF4EF535C3E566
:100356002394F4E52294017DFF5002802D7FFC0258
:10036600065FAF3F7401A807088002C333D8FCFFBD
:100376003001047E8080027E00EF4EF535C3E52312
:1003860094F4E52294017DFF50057FFF02065F7F0E
:10039600E702065FAF3F7401A807088002C333D89F
:1003A600FCFF3001047E8080027E00EF4EF535C3EF
:1003B600E52394F4E52294017DFF50057FFF0206B4
:1003C6005F7F3F02065FAF3F7401A807088002C344
:1003D60033D8FCFF3001047E8080027E00EF4EF5AC
:1003E60035C3E52394F4E52294017DFF50057FFF94
:1003F60002065F7FF002065FAF3F7401A807088020
:1004060002C333D8FCFF3001047E8080027E00EFF9
:100416004EF535C3E52394F4E52294017DFF50059E
:100426007FFF02065F7FCF02065FAF3F7401A8071A
:10043600088002C333D8FCFF3001047E8080027E30
:1004460000EF4EF535C3E52394F4E52294017DFFD4
:1004560050057FFF02065F7F3F02065F753100751C
:100466003200753E00754000E54075F00A84F529B6
:10047600E54075F00A8485F02A752B10E53E75F087
:100486000A84F52CE53E75F00A8485F02D752E104C
:10049600AE31AF327C007D641212EF8F2FAE31AFDA
:1004A600327C007D641212EF7E007F0ACFCDCFCE64
:1004B600CCCE1212EF8F307535007DFF7FFF02061E
:1004C6005F0532E53270020531D394E7E5319403D6
:1004D6004008753100753200053EE53ED3943B4039
:1004E60005753E000540E540D3943B40037540004A
:1004F600E54075F00A84F529E54075F00A8485F033
:100506002A752B10E53E75F00A84F52CE53E75F04C
:100516000A8485F02D752E10AE31AF327C007D64D5
:100526001212EF8F2FAE31AF327C007D641212EFC4
:100536007E007F0ACFCDCFCECCCE1212EF8F307594
:1005460035007DFF7FFF02065F7535007DFF7FFF6B
:1005560002065FE53875F00A84F52CE53875F00A71
:100566008485F02D752E10E52575F00A84F52FE5A6
:100576002575F00A8485F03030000B752911752A2F
:1005860011752B118009752900752A0F752B0F859A
:1005960042357DFF7FFF02065FC3E52394F4E52223
:1005A60094017DFF50057FFF02065F7FE702065F2D
:1005B600C3E52394F4E52294017DFF50057FFF02F5
:1005C600065F7F3F02065FC3E52394F4E5229401AC
:1005D6007DFF50057FFF02065F7FFE807CC3E5231B
:1005E60094F4E52294017DFF50047FFF806B7FFD2C
:1005F6008067C3E52394F4E52294017DFF50047FD0
:10060600FF80567FFB8052C3E52394F4E5229401D4
:100616007DFF50047FFF80417FF7803DC3E5239433
:10062600F4E52294017DFF50047FFF802C7FEF804C
:1006360028C3E52394F4E52294017DFF50047FFF4F
:1006460080177FDF8013C3E52394F4E52294017DB0
:10065600FF50047FFF80027FBF121344D007D006ED
:10066600D005D004D003D002D001D000D0D0D082A3
:07067600D083D0F0D0E03288
:10117100E537D39402AE39AF3A7C007D6440091261
:1011810012EFAE04AF05800B1212EFED24FFFFEC5E
:1011910034FFFEEF7802CEC313CE13D8F9FBAA06B3
:1011A100E537D39402AE39AF3A7C007D6440091231
:1011B10012EFAE04AF05800B1212EFED24FFFFEC2E
:1011C10034FFFEEB2FFBEA3EFAAE39AF3A7C007DED
:1011D100641212EFAC06AD07ED7802CEC313CE1345
:1011E100D8F92BFBEA3EFAED25E0FFEC33FEC3EB29
:1011F1009FFBEA9EFAE537D394024004AF3780059E
:10120100E537240CFFEF2401FFE433FE7C007D1A57
:101211001212DD7D0A1212EFEF2BFFEE3AFE7C0077
:10122100EF253CFFEC3ECF24FFCF34FFFE7D0712BC
:1012310012EF8D3FC2A3D2AFD288D2A8D28AD2AA4E
:10124100D2B9758901D2A9D28C758CFC758A182204
:0500060012117180FEE3
:101344009014D2E493F508AE43EFA806088002C3D4
:1013540013D8FC30E00C74292543F8E69014C193AB
:10136400F508AF43EDA807088002C313D8FC30E0AA
:1013740013AF43E535A807088002C313D8FC30E057
:101384000353087FE5439014DF93FF12150EAF0853
:0E13940012150EC2A2D2A2C2A20543534307F5
:0113A2002228
:10150E00E4FEEF3392A0C2A1D2A1C2A1EF25E0FF6B
:04151E000EBE08EE07
:0115220022A6
:0300000002125198
:0C125100787FE4F6D8FD75814402129805
:1012DD00EF8DF0A4A8F0CF8CF0A428CE8DF0A42E25
:0212ED00FE22DF
:1012EF00BC000BBE0029EF8DF084FFADF022E4CCE3
:1012FF00F875F008EF2FFFEE33FEEC33FCEE9DECAC
:10130F00984005FCEE9DFE0FD5F0E9E4CEFD22EDF1
:10131F00F8F5F0EE8420D21CFEADF075F008EF2F3B
:10132F00FFED33FD4007985006D5F0F222C398FD2C
:05133F000FD5F0EA22C9
:10125D00020006E493A3F8E493A34003F68001F2A1
:10126D0008DFF48029E493A3F85407240CC8C33392
:10127D00C4540F4420C8834004F456800146F6DF61
:10128D00E4800B01020408102040809013A3E47E3B
:10129D00019360BCA3FF543F30E509541FFEE49356
:1012AD00A360010ECF54C025E060A840B8E493A31D
:1012BD00FAE493A3F8E493A3C8C582C8CAC583CA48
:1012CD00F0A3C8C582C8CAC583CADFE9DEE780BE00
:0114010000EA
:00000001FF
