:1006EB00C0F9A4B0999282F880908883C6A1868EB7
:0C06FB00BFFF0102040810204080FF0037
:1005FF0001361701323A01213A01351701253B0126
:10060F00340001390008280000000000000000023B
:10061F00220000C181C18002260000013A00C103FF
:10062F00C102013300012400023000000137000134
:02063F00380081
:100642000527E52770020526C3940AE52694004093
:1006520026D3E52794F2E52694034005753A0280F5
:100662000F20020320B20630020D30B30A753A01A0
:08067200E4F526F527C203227E
:10033C00200268E534B40B0040030204959003508E
:10034C00F828287302037102037702038902038FD2
:10035C0002039502037D02049502049502038302B5
:10036C00039B0203A1753401020495753405020444
:10037C0095753408020495E4F5340204957534033C
:10038C0002049575340402049575340202049575C3
:0B039C00340A02049575340902049530
:1003A700E52875F00AA42529F508E52B75F00AA4B8
:1003B700252CFFF509E52E75F00AA4252FF50A8FE0
:1003C7000BF50CE53424FEB40900400302049590B4
:1003D70003E475F003A4C58325F0C583730203FF07
:1003E70002041D02043402044B02044D02045202AB
:1003F700045702045B0204790508E50875F01884C0
:1004070085F008E50875F00A84F528E50875F00A0F
:100417008485F02980780509E50975F03C8485F025
:1004270009E50975F00A84F52BE509803C050AE51D
:100437000A75F03C8485F00AE50A75F00A84F52E02
:10044700E50A804380057534078043753406803E8E
:10045700B200803A050BE50B75F0188485F00BE5C3
:100467000B75F00A84F52BE50B75F00A8485F02CE3
:10047700801C050CE50C75F03C8485F00CE50C75CB
:0E048700F00A84F52EE50C75F00A8485F02F3E
:04049500E4F53A222E
:10052500200256E53424FE24FD501324FD602F14CB
:10053500603114602E240970687534028063E528E3
:1005450075F00AA42529F536E52B75F00AA4252CA6
:10055500F532E52E75F00AA4252FF5218036753480
:1005650009803EE52B75F00AA4252CF535E52E7599
:10057500F00AA4252FF5258025E53424FE24FD5019
:100585001324FE601424FE6015146012240A7011F1
:10059500B201800DE4F534800875340580037534A7
:0505A50008E4F53A2214
:03000300020737BA
:08073700200304D203C20232C8
:0300130002073FA2
:08073F00200304D203D20232B0
:1006A5000521E521D3943B4005E4F5210532E532EA
:1006B500D3943B4005E4F5320536E536D39417402F
:0506C50003E4F53622FC
:10067A00AE39EFA806088002C313D8FCFF5307015E
:10068A00BF010B74282539F8E6FFAD398004AD396E
:0B069A007F11120707053953390722B2
:03000B00020016DA
:10001600C0E0C0F0C083C082C0D075D000C000C0B0
:1000260001C002C003C004C005C006C0070523E521
:100036002370020522758CFC758A18E523B4E80E38
:10004600E522B403097522007523001206A53003C4
:1000560003120642E53AB4010512033C8008E53A6C
:10006600B40203120525E534706130005EE536B54D
:100076003512E532B5250DE5217009E523452270D7
:100086000375240CE5246043C3E49523E4952250CC
:100096000BC3E52394FAE52294004016C374F49545
:1000A6002374019522500FC3E52394EEE5229402B2
:1000B6005004B2A38002C2A3AE22AF237C007DFA15
:1000C6001205AAED4C70041524C2A3E53470403025
:1000D600013DE5337011E532700DE5217009E52328
:1000E60045227003753308E5336024D3E52394F481
:1000F600E52294014004B2A38002C2A3AE22AF233C
:100106007C017DF41205AAED4C70041533C2A3E5FB
:1001160034B40B004003020321900126F82828730B
:100126000201470201820201940201A90201BE02F4
:1001360001D30202330202B50202BA0202FA020334
:100146000DE53675F00A84F528E53675F00A8485DE
:10015600F029752A10E53275F00A84F52BE532751B
:10016600F00A8485F02C752D10E52175F00A84F5CA
:100176002EE52175F00A8485F02F801DC3E52394B2
:10018600F4E522940150028010E4FF02031EC3E549
:100196002394F4E522940150057FFF02031E7FFCA1
:1001A60002031EC3E52394F4E522940150057FFF64
:1001B60002031E7FE702031EC3E52394F4E522949F
:1001C6000150057FFF02031E7F3F02031E753000AC
:1001D600753100753700753800E53875F00A84F515
:1001E60028E53875F00A8485F029752A10E53775F3
:1001F600F00A84F52BE53775F00A8485F02C752D09
:1002060010AE30AF317C007D641205AA8F2EAE3061
:10021600AF317C007D641205AA7E007F0ACFCDCF68
:10022600CECCCE1205AA8F2F7FFF02031E0531E525
:100236003170020530D394E7E530940340087530F9
:10024600007531000537E537D3943B400575370017
:100256000538E538D3943B4003753800E53875F02A
:100266000A84F528E53875F00A8485F029752A1080
:10027600E53775F00A84F52BE53775F00A8485F0C5
:100286002C752D10AE30AF317C007D641205AA8F1F
:100296002EAE30AF317C007D641205AA7E007F0A47
:1002A600CFCDCFCECCCE1205AA8F2F7FFF80697F10
:1002B600FF12067AE53575F00A84F52BE53575F0FB
:1002C6000A8485F02C752D10E52575F00A84F52E27
:1002D600E52575F00A8485F02F30000B7528117519
:1002E6002911752A11800975280075290F752A0F9D
:1002F6007FFF8024C3E52394F4E522940150047F14
:10030600FF80157FE78011C3E52394F4E52294016D
:1003160050047FFF80027F3F12067AD007D006D0B6
:1003260005D004D003D002D001D000D0D0D082D0E6
:0603360083D0F0D0E0329C
:1006CA00E4F534D201C2A3D2AFD288D2A8D28AD258
:1006DA00AAD2B9758901D2A9D28C758CFC758A18EF
:0106EA0022ED
:050006001206CA80FE95
:10072200E4FEEF3392A0C2A1D2A1C2A1EF25E0FF65
:040732000EBE08EE01
:0107360022A0
:10070700AC07ED9006FD93FF120722EC9006EB93E2
:0B071700FF120722C2A2D2A2C2A2223F
:030000000204995E
:0C049900787FE4F6D8FD75813A0204E09B
:1005AA00BC000BBE0029EF8DF084FFADF022E4CC35
:1005BA00F875F008EF2FFFEE33FEEC33FCEE9DECFE
:1005CA00984005FCEE9DFE0FD5F0E9E4CEFD22ED44
:1005DA00F8F5F0EE8420D21CFEADF075F008EF2F8E
:1005EA00FFED33FD4007985006D5F0F222C398FD7F
:0505FA000FD5F0EA221C
:1004A500020006E493A3F8E493A34003F68001F267
:1004B50008DFF48029E493A3F85407240CC8C33358
:1004C500C4540F4420C8834004F456800146F6DF27
:1004D500E4800B01020408102040809005FFE47EB3
:1004E500019360BCA3FF543F30E509541FFEE4931C
:1004F500A360010ECF54C025E060A840B8E493A3E3
:10050500FAE493A3F8E493A3C8C582C8CAC583CA0D
:10051500F0A3C8C582C8CAC583CADFE9DEE780BEC5
:0106410000B8
:00000001FF
