:1012A700D6DCC8D500D6DCD2BB00D6DCB6FE00D66D
:1012B700DC203300D6DCCBC400D6DCCEE500D6DCA0
:1012C700C1F900D5FBB5E3B1A8CAB1202000BFAA78
:1012D70000B9D8001F1C1F1E1F1E1F1F1E1F1E1F09
:10100800410009174100023B4100003A4200050730
:10101800E7410003094100081341000D00012B17A7
:1010280001243B017400C100C101C103C1020225B2
:1010380000000175001130202020202020202020D1
:1010480020202020202020001141202020202020A6
:101058002020202020202020202000115220202085
:101068002020202020202020202020202000116364
:101078002020202020202020202020202020202068
:101088000001290001230002270000012E00012F82
:1010980000022C000041000B174100073B410001F2
:1010A8000041000C1741000A3B4100043A012A00A4
:0410B8000221000011
:050006001213DC80FE76
:1013DC00121404120EABE4FFFE120A68C2A2D2AFC2
:1013EC00D288D2A8D28AD2AAD2B9758901D2A9D26E
:0813FC008C758CD8758AF02273
:100A68008F2AE52A24F97003020C35240760030253
:100A78000CF17B007A0079301213B87B007A007988
:100A8800411213B81213B27B007A0079631213B8BB
:100A9800900009E0FF75F00A842430F534EF75F012
:100AA8000A84E5F02430F53575363A900002E0FF07
:100AB80075F00A842430F537EF75F00A84E5F024E0
:100AC80030F53875393A900000E0FF75F00A842453
:100AD80030F53AEF75F00A84E5F02430F53B9000E4
:100AE80005E0FAA3E0FB7C037DE8FFAE0212110AE1
:100AF800EF2430F5447C007D64AF03AE0212110A86
:100B08007C007D0A12110AED2430F545900005A3FA
:100B1800E07C007D0AFFAE0212110A7C007D0A12F9
:100B2800110AED2430F5467C007D0AAF03AE0212AF
:100B3800110AED2430F54775482D900003E0FF7544
:100B4800F00A842430F549EF75F00A84E5F0243082
:100B5800F54A754B2D900008E0FF75F00A842430A3
:100B6800F54CEF75F00A84E5F02430F54D90000D52
:100B7800E0B407005076900B85F8282873020B9A8A
:100B8800020BA5020BB0020BBB020BC6020BD10273
:100B98000BDC7515FF7516127517A780407515FFC4
:100BA8007516127517AC80357515FF751612751701
:100BB800B1802A7515FF7516127517B6801F751541
:100BC800FF7516127517BB80147515FF751612750B
:100BD80017C080097515FF7516127517C5751800A9
:100BE8007519047B007A0079581212557515FF752E
:100BF80016127517CA75180075190A7B007A0079DC
:100C08006512125530010B7515FF7516127517D53B
:100C180080097515FF7516127517D875180075199E
:100C2800027B007A00796F121255020CB9E4F52C98
:100C3800F52DFB7A0079301213B87B007A007941E0
:100C48001213B81213B27B007A0079631213B8E456
:100C5800F52FF52EF527F528E52F75F00A842430B1
:100C6800F534E52F75F00A84E5F02430F53575364E
:100C78003AE52E75F00A842430F537E52E75F00A2A
:100C880084E5F02430F53875393AAE27AF287C0072
:100C98007D6412110AEF2430F53AAE27AF287C00A4
:100CA8007D0A12110A7C007D0A12110AED2430F522
:100CB8003B7B007A0079307516107F8012131F7BFA
:100CC800007A0079417516107F9012131F7B007A05
:100CD8000079527516107F8812131F7B007A0079ED
:0A0CE800637516107F9812131F2287
:1012E7000526E52670020525C39401E525940040EF
:1012F70026D3E5269465E52594004005757502809B
:101307000F20020320B20630020D30B30A757501B3
:08131700E4F525F526C20322CE
:10001600300203020402E52AB4140040030205A8D4
:1000260090002DF828287302006902032E02038E21
:100036000203AD0202D10202F002030F02006E02B9
:1000460000740200740202CB0203CC0203D2020344
:10005600D80203DE0203E40203EA0203F00203F617
:100066000203FC7F070202EB752A0A0205A8052D8A
:10007600E52D7002052CAE2CFF7C007D0312110AC3
:10008600ED64014C6003020148FB7A0079411213CA
:10009600B8AE2CAF2D7C037DE812110A7E007F647A
:1000A600CFCDCFCECCCE12110AEF2430F541AE2CF7
:1000B600AF2D7C007D6412110A7E007F0ACFCDCF62
:1000C600CECCCE12110AEF2430F542AE2CAF2D7CE9
:1000D600007D0A12110AED2430F543E52F75F00A6A
:1000E600842430F545E52F75F00A84E5F02430F5D3
:1000F6004675473AE52E75F00A842430F548E52E14
:1001060075F00A84E5F02430F549754A3AAE27AF12
:10011600287C007D6412110AEF2430F54BAE27AF20
:10012600287C007D0A12110A7C007D0A12110AED54
:100136002430F54C7B007A0079417516107F9002C9
:10014600049AAE2CAF2D7C007D0312110AED6402D9
:100156004C6003020211FB1213B4AE2CAF2D7C03CC
:100166007DE812110A7E007F64CFCDCFCECCCE12B1
:10017600110AEF2430F552AE2CAF2D7C007D6412AF
:10018600110A7E007F0ACFCDCFCECCCE12110AEF58
:100196002430F553AE2CAF2D7C007D0A12110AEDEA
:1001A6002430F554E52F75F00A842430F556E52FF2
:1001B60075F00A84E5F02430F55775583AE52E7542
:1001C600F00A842430F559E52E75F00A84E5F0240A
:1001D60030F55A755B3AAE27AF287C007D64121164
:1001E6000AEF2430F55CAE27AF287C007D0A121199
:1001F6000A7C007D0A12110AED2430F55D7B007A37
:100206000079527516107F8802049A7B007A00796D
:10021600631213B8AE2CAF2D7C037DE812110A7E53
:10022600007F64CFCDCFCECCCE12110AEF2430F5AD
:1002360063AE2CAF2D7C007D6412110A7E007F0A0E
:10024600CFCDCFCECCCE12110AEF2430F564AE2C32
:10025600AF2D7C007D0A12110AED2430F565E52FDD
:1002660075F00A842430F567E52F75F00A84E5F009
:100276002430F56875693AE52E75F00A842430F560
:100286006AE52E75F00A84E5F02430F56B756C3A54
:10029600AE27AF287C007D6412110AEF2430F56D7D
:1002A600AE27AF287C007D0A12110A7C007D0A1257
:1002B600110AED2430F56E7B007A0079637516100D
:1002C6007F9802049AE4FFFE02054690000CE0FFC8
:1002D60075F00A842430F534EF75F00A84E5F024CD
:1002E60030F5357F057E0002054690000AE0FF7571
:1002F600F00A842430F537EF75F00A84E5F02430EF
:10030600F5387F067E00020546900004E0FF75F092
:100316000A842430F53AEF75F00A84E5F02430F5C6
:100326003B7F047E00020546900005E0FAA3E0FB51
:100336007C037DE8FFAE0212110AEF2430F5447CFF
:10034600007D64AF03AE0212110A7C007D0A121111
:100356000AED2430F545900005A3E07C007D0AFFF8
:10036600AE0212110A7C007D0A12110AED2430F544
:10037600467C007D0AAF03AE0212110AED2430F569
:10038600477F027E00020546900003E0FF75F00AF3
:10039600842430F549EF75F00A84E5F02430F54AF7
:1003A6007F037E00020546900008E0FF75F00A8490
:1003B6002430F54CEF75F00A84E5F02430F54D7FD6
:1003C600017E00020546752A0C0205A8752A0D0253
:1003D60005A8752A0E0205A8752A0F0205A8752A12
:1003E600100205A8752A110205A8752A120205A889
:1003F600752A130205A8752A0B0205A8E52AB41466
:100406000040030205A8900413F828287302044F3D
:100416000204A00204C60204D402052702052C0227
:10042600053102053602053C02054202054B02056E
:100436004F02055B02056B02057402057D02058607
:1004460002058F0205980205A1B2017515FF751602
:10045600127517CA75180075190A7B007A00796536
:1004660012125530010B7515FF7516127517D580CA
:10047600097515FF7516127517D8751800751902C6
:100486007B007A00796F1212557B007A00796375CA
:1004960016107F9812131F0205A8900006E004F0BC
:1004A6007006900005E004F0900005E0FEA3E0FF72
:1004B6007C277D1012110A900005ECF0A3ED800B4D
:1004C600900003E075F00C84E5F004F0804D900098
:1004D60005E0FEA3E0FF5403700AFC7D6412110AD6
:1004E600ED4C7013900005E0FEA3E0FF7C017D90CB
:1004F60012110AED4C7010900003E0B4020990004E
:1005060008E075F01D800F900003E09012DA93FF6B
:10051600900008E08FF084E5F004F0120EAB0205BF
:10052600A890000C802690000A802D900004802858
:100536007F087E00800A7F097E0080047F087E0097
:10054600120A68805DB200805990000BE004F0E06A
:1005560075F018800A900007E004F0E075F03C841E
:10056600E5F0F0803D900001E06401F080349000F9
:1005760001E06402F0802B900001E06404F0802228
:10058600900001E06408F08019900001E06410F02A
:100596008010900001E06420F08007900001E06484
:0605A60040F0E4F57522AF
:100CF200300203020DA0E52AB414004003020EA73D
:100D0200900D09F8282873020D45020D62020D624A
:100D1200020D62020D6D020D6D020D6D020EA70233
:100D22000EA7020EA7020D85020D8B020D8B020D7E
:100D32008B020D8B020D8B020D8B020D8B020D8B24
:100D4200020D8B900009E090000CF0900002E09000
:100D5200000AF0900000E0900004F07F04020E8B85
:100D62001211EB5003020EA7020DF290000CE0905C
:100D72000009F0A3E0900002F0900004E09000006F
:100D8200F0806D752A0B020EA790000BE0F52B90F8
:100D92000007E0F524900001E0F574020EA4E52AB4
:100DA200B414004003020EA7900DB1F82828730274
:100DB2000DED020DF8020E1B020E2D020DF2020DB8
:100DC200F2020DF2020EA7020EA7020E89020EA770
:100DD200020E92020E92020E92020E92020E9202E5
:100DE2000E92020E92020E92020E927F01020E8B60
:100DF200E4FFFE020E8D900006E024FFF090000555
:100E0200E034FFF0E0FEA3E0FF7C277D1012110A20
:100E1200900005ECF0A3ED800F900003E0240AF0AF
:100E2200E075F00C84E5F004F08057900005E0FED8
:100E3200A3E0FF5403700AFC7D6412110AED4C70AA
:100E420013900005E0FEA3E0FF7C017D9012110AE1
:100E5200ED4C7014900003E0B4020D900008E02401
:100E62001BF0E075F01D8015900003E09012DA93FC
:100E7200FF24FEFE900008E02EF0E08FF084E5F003
:100E820004F0120EAB801E7F077E00120A688015E6
:100E920090000BE52BF0900007E524F0900001E5AF
:090EA20074F0752A0AE4F57522CA
:10135300900000E004F0E0D3943B4008E4F09000F8
:1013630002E004F0900002E0D3943B4008E4F090E4
:101373000009E004F0900009E0D394174002E4F080
:011383002247
:10138400900008E004F01211EB5022900008740160
:10139400F0900003E004F0E0940C40117401F0902C
:0E13A4000006E004F07006900005E004F02260
:100EAB00900003E0FBD39402900005E0FEA3E0FF6B
:100EBB007C007D64400912110AAE04AF05800B1251
:100ECB00110AED24FFFFEC34FFFEEF7802CEC313C3
:100EDB00CE13D8F9FAEBD39402900005E0FEA3E011
:100EEB00FF7C007D64400712110AAF0580071211C9
:100EFB000AED24FFFFEF2AFB900005E0FEA3E0FFC5
:100F0B007C007D6412110AAC06AD07ED7802CEC3EE
:100F1B0013CE13D8F92BFFED25E0FEC3EF9EFB900C
:100F2B000003E0FFD3940240028007900003E0240B
:100F3B000CFFEF2401FFE433FE7C007D1A1210F846
:100F4B007D0A12110AEB2FFF900008E02F1490007E
:100F5B000DF090000DE0FFC394005006E02407F065
:100F6B0080F0EF75F0078490000DE5F0F01213B2EE
:100F7B0090000DE0B407005076900F8BF828287383
:100F8B00020FA0020FAB020FB6020FC1020FCC0271
:100F9B000FD7020FE27515FF7516127517A7804054
:100FAB007515FF7516127517AC80357515FF75160F
:100FBB00127517B1802A7515FF7516127517B68045
:100FCB001F7515FF7516127517BB80147515FF75F8
:100FDB0016127517C080097515FF7516127517C592
:100FEB007518007519047B007A0079581212557B1D
:0D0FFB00007A0079527516107F8802131FCE
:1011EB00900005E0FEA3E0FF900003E0FD900008F7
:0211FB00E0FB17
:1011FD00AA058F828E83EAD3940C5006EAC394011C
:10120D005002D322EBC39401500122E582540370A6
:10121D000EFC7D64AF82AE8312110AED4C700FAEE1
:10122D0083AF827C017D9012110AED4C700BBA02D6
:10123D0008EBD3941D400FD322EA9012DA93FFEB03
:08124D00D39F4002D322C3220B
:0613B2007B007A00795275
:0613B8008B128A13891458
:1013BE0012143CE4FEEEC39F5013AB12AA13A914F1
:0D13CE008E8275830074201210D60E80E808
:0113DB0022EF
:030003000214756F
:08147500200304D203C202327D
:0300130002147D57
:08147D00200304D203D2023265
:03000B000205AC3F
:1005AC00C0E0C0F0C083C082C0D075D000C000C015
:1005BC0001C002C003C004C005C006C0070522E587
:1005CC002270020521758CD8758AF0E52264644589
:1005DC0021600302071EF521F522121353E52A7040
:1005EC0064FB7A0079301213B8900009E0FF75F0C3
:1005FC000A842430F534EF75F00A84E5F02430F5E4
:10060C003575363A900002E0FF75F00A842430F517
:10061C0037EF75F00A84E5F02430F53875393A90E7
:10062C000000E0FF75F00A842430F53AEF75F00A0B
:10063C0084E5F02430F53B7B007A00793075161098
:10064C007F8012131F900009E0600302071E9000C8
:10065C0002E0600302071E900000E0600302071E28
:10066C00121384120EABE52A600302071EFB7A00FC
:10067C0079411213B8900005E0FAA3E0FB7C037DEE
:10068C00E8FFAE0212110AEF2430F5447C007D64C1
:10069C00AF03AE0212110A7C007D0A12110AED247E
:1006AC0030F545900005A3E07C007D0AFFAE0212F8
:1006BC00110A7C007D0A12110AED2430F5467C00EB
:1006CC007D0AAF03AE0212110AED2430F5477548CE
:1006DC002D900003E0FF75F00A842430F549EF7586
:1006EC00F00A84E5F02430F54A754B2D900008E0B3
:1006FC00FF75F00A842430F54CEF75F00A84E5F0B0
:10070C002430F54D7B007A0079417516107F9012DC
:10071C00131F3003031212E7E575B401051200161E
:10072C008008E575B40203120CF2E52A6003020797
:10073C00C92000030207C9900009E0652B703890AE
:10074C000002E0B52431900000E0702B90000DE029
:10075C00FF74017E00A807088005C333CE33CED8C2
:10076C00F9FFEF5574D39400748094804009E5220E
:10077C004521700375230CE5236042C3E49522E404
:10078C009521500BC3E5229419E52194004015C323
:10079C0074329522E49521500FC3E522944BE52148
:1007AC0094005004B2A28002C2A2AE21AF227C00FF
:1007BC007D1912110AED4C70041523C2A2E52A70A2
:1007CC004F30014C900002E0FF7045900000E0FEBD
:1007DC00C39403503BE529700FEF700CEE7009E5E4
:1007EC002245217003752908E5296024D3E522945C
:1007FC0032E52194004004B2A28002C2A2AE21AF25
:10080C00227C007D3212110AED4C70041529C2A213
:10081C00E52A14B408004003020A4D90083575F01F
:10082C0003A4C58325F0C583730208D802094C02C2
:10083C00097902084D02087C0208AA020A4D020935
:10084C00B2C3E5229432E5219400501B90000CE0D9
:10085C00FF75F00A842430F534EF75F00A84E5F066
:10086C002430F535020A3F753420753520020A3FD5
:10087C00C3E5229432E5219400501A90000AE0FF5F
:10088C0075F00A842430F537EF75F00A84E5F0240E
:10089C0030F5388006753720753820020A3FC3E5DD
:1008AC00229432E5219400501A900004E0FF75F078
:1008BC000A842430F53AEF75F00A84E5F02430F51B
:1008CC003B8006753A20753B20020A3FC3E5229413
:1008DC0032E5219400505B900005E0FAA3E0FB7C2C
:1008EC00037DE8FFAE0212110AEF2430F5447C00C0
:1008FC007D64AF03AE0212110A7C007D0A12110A4C
:10090C00ED2430F545900005A3E07C007D0AFFAE98
:10091C000212110A7C007D0A12110AED2430F546F0
:10092C007C007D0AAF03AE0212110AED2430F547AC
:10093C008066754420754520754620754720805883
:10094C00C3E5229432E5219400501A900003E0FF95
:10095C0075F00A842430F549EF75F00A84E5F0242B
:10096C0030F54A8006754920754A20802BC3E52254
:10097C009432E5219400501A900008E0FF75F00ABB
:10098C00842430F54CEF75F00A84E5F02430F54DF5
:10099C008006754C20754D207B007A0079417516C8
:1009AC00107F90020A4A740A2528F528E43527F5A9
:1009BC0027D3E52894E7E5279403400875270075AD
:1009CC002800052EE52ED3943B4005752E00052FEF
:1009DC00E52FD3943B4003752F00E52F75F00A8467
:1009EC002430F534E52F75F00A84E5F02430F53524
:1009FC0075363AE52E75F00A842430F537E52E75F8
:100A0C00F00A84E5F02430F53875393AAE27AF2872
:100A1C007C007D6412110AEF2430F53AAE27AF2822
:100A2C007C007D0A12110A7C007D0A12110AED2449
:100A3C0030F53B7B007A0079307516107F801213ED
:100A4C001FD007D006D005D004D003D002D001D0DF
:0C0A5C0000D0D0D082D083D0F0D0E032A7
:101422008F18121451C2B5A20592B4D2B685189083
:0A1432007F057E00121463C2B6228B
:10140400D2B7C2057F30121422C2057F0C121422F7
:0E141400C2057F01121422C2057F06021422B7
:101451007FFAC2B4D2B5D2B6E59030E702DFF9C265
:01146100B6D4
:011462002267
:06131F008B138A148915EE
:10132500C205121422E4F517E517C39516501EAB36
:1013350013AA14A9151210BDFFD2051214227401A7
:0D1345002515F515E43514F514051780DBAA
:011352002278
:10146300EEC313FEEF13FFEF1FAC0670011E4C70AB
:02147300F6225F
:0300000002115F8B
:0C115F00787FE4F6D8FD7581750211A6BA
:1010BD00BB010689828A83E0225002E722BBFE0231
:0910CD00E32289828A83E4932264
:1010D600F8BB010DE58229F582E5833AF583E8F050
:1010E600225006E92582C8F622BBFE05E92582C8FC
:0210F600F222E4
:1010F800EF8DF0A4A8F0CF8CF0A428CE8DF0A42E0C
:02110800FE22C5
:10110A00BC000BBE0029EF8DF084FFADF022E4CCC9
:10111A00F875F008EF2FFFEE33FEEC33FCEE9DEC92
:10112A00984005FCEE9DFE0FD5F0E9E4CEFD22EDD8
:10113A00F8F5F0EE8420D21CFEADF075F008EF2F22
:10114A00FFED33FD4007985006D5F0F222C398FD13
:05115A000FD5F0EA22B0
:101255008B128A138914E4F51AF51BE5191519AED5
:1012650018700215184E6033AB15AA16A91712107F
:10127500BDFFAB12AA13A914051BE51BAC1A70021E
:10128500051A14F5828C83EF1210D6EF60CD740128
:101295002517F517E43516F51680C0AB12AA13A964
:0212A500142211
:10143C00E4FFFE1210BD600C0FEF70010E09E97095
:05144C00F20A80EF220E
:10116B00020006E493A3F8E493A34003F68001F294
:10117B0008DFF48029E493A3F85407240CC8C33385
:10118B00C4540F4420C8834004F456800146F6DF54
:10119B00E4800B0102040810204080901008E47ECC
:1011AB00019360BCA3FF543F30E509541FFEE49349
:1011BB00A360010ECF54C025E060A840B8E493A310
:1011CB00FAE493A3F8E493A3C8C582C8CAC583CA3B
:1011DB00F0A3C8C582C8CAC583CADFE9DEE780BEF3
:0110BC000033
:00000001FF
