:10140400BFAA00B9D800C8D5D2BBB6FE00CBC4CEA3
:10141400E5C1F9D7DC00D6DCC8D500D6DCD2BB00E8
:10142400D6DCB6FE00D6DC00D6DCCBC400D6DCCEDF
:10143400E500D6DCC1F900D5FBB5E3B1A8CAB120FB
:0E14440020001F1C1F1E1F1E1F1F1E1F1E1F0D
:100FB00041000800410001004100003A42000507DD
:100FC000E7410003094100071341000E0001290019
:100FD000017401017200C180C101C103C102022478
:100FE000000001750020442B2020202020202020FC
:100FF0002020202020202020002020202020202011
:101000002020202020202020200020202020202000
:1010100020202020202020202020002020202020F0
:101020002020202020202020202020000128000136
:10103000230002260000017100017300026F00000E
:1010400041000B00410002014100100041000D0071
:10105000410009004100043A41000C0041000A002F
:0D106000C10441000F00012A000221000020
:0500060012157B80FED5
:10157B0012160912149B1217561217FC120EDDE4E9
:10158B00FFFE120985C2A2D2AFD288D2A8D28AD2CC
:10159B00AAD2B9758901D2A9D28C758CD8758AF06B
:0115AB00221D
:10098500E4F5138F2AE52A24FD603B24FD7003025C
:100995000A5224066003020B7D7B007A00792B1234
:1009A50016671216617B007A00794D1216677B0077
:1009B5007A00795E12166712130512111012106E65
:1009C5001212A0021452E4F56FF570FB7A00792B30
:1009D5001216671216617B007A00794D1216677B35
:1009E500007A00795E121667E4F573F571F526F560
:1009F50027E57375F00A842430F52FE57375F00A41
:100A050084E5F02430F53075313AE57175F00A84E6
:100A15002430F532E57175F00A84E5F02430F533BC
:100A250075343AAE26AF277C007D64120BEDEF24BA
:100A350030F535AE26AF277C007D0A120BED7C0024
:100A45007D0A120BEDED2430F536020B517B007A51
:100A550000792B1216671216617B007A00794D1208
:100A650016677B007A00795E12166790000BE52900
:100A7500F0900002E574F0900010E572F0E529753C
:100A8500F00A842430F530E52975F00A84E5F02470
:100A950030F53175323AE57475F00A842430F53352
:100AA500E57475F00A84E5F02430F534E4F5137443
:100AB500017E00A813088005C333CE33CED8F9FFD5
:100AC500EF55726017E51375F002A4244DF9E4FAA9
:100AD500FB7517FF7518147519048015E51375F066
:100AE50002A4244DF9E4FAFB7517FF75181475195E
:100AF50007F51A751B021213B20513E513C3940704
:100B050040AD30000B7517FF751814751904800971
:100B15007517FF751814751907751A00751B027B73
:100B2500007A00795B1213B2785E7C007D007BFF52
:100B35007A14790A120D447564C87565FD78667C6A
:100B4500007D007BFF7A147911120D447B007A0039
:100B5500792BE4FF12135E7B007A00793C7F01124A
:100B6500135E7B007A00794D7F0212135E7B007A5B
:080B750000795E7F0312135E9C
:010B7D002255
:1014DD000525E52570020524C39401E524940040FB
:1014ED0026D3E5259465E5249400400575750280A5
:1014FD000F20020320B20630020D30B30A757501BC
:08150D00E4F524F525C20322D8
:10001600300203020370E52AB4090040030204E13A
:1000260090002DF82828730200480201D20202200F
:1000360002004D0200520200520201CD0202BF022E
:1000460002FC7F030204607F06020460AE6FAF709D
:100056007C007D03120BEDED75F011A4243CF9E450
:10006600FAFB121667E5702401FFE4356FFE7C0388
:100076007DE8120BED7E007F64CFCDCFCECCCE12C5
:100086000BEDEF2430FBAE6FAF707C007D03120BDF
:10009600EDAA05EA75F011A4243CF8A603E5702440
:1000A60001FFE4356FFE7C007D64120BED7E007F60
:1000B6000ACFCDCFCECCCE120BEDEF2430FFEA75B2
:1000C600F011A4243DF8A607E5702401FFE4356F7E
:1000D600FE7C007D0A120BEDED2430FBAE6FAF7097
:1000E6007C007D03120BEDAF05EF75F011A4243EE5
:1000F600F8A603E57375F00A842430FEEF75F01157
:10010600A42440F8A606E57375F00A84E5F02430C9
:10011600FFAE05EE75F011A42441F8A607EE75F0C2
:1001260011A42442F8763AE57175F00A842430FF6A
:10013600EE75F011A42443F8A607E57175F00A845C
:10014600E5F02430FFEE75F011A42444F8A607ABC1
:1001560005EB75F011A42445F8763AAE26AF277C58
:10016600007D64120BEDEF2430FFEB75F011A42433
:1001760046F8A607AE26AF277C007D0A120BED7C5B
:10018600007D0A120BEDED2430FBAE6FAF707C00E4
:100196007D03120BEDAF05EF75F011A42447F8A609
:1001A60003EF75F011A4243CF9E4FAFBAE6FAF70CF
:1001B600FC7D03120BEDED04FF12135E0570E57076
:1001C6007002056F0204E1E4FF02036C90000DE08B
:1001D600FF75F00A842430F52FEF75F00A84E5F0F8
:1001E6002430F530900009E0FF75F00A842430F5DC
:1001F60032EF75F00A84E5F02430F533900004E020
:10020600FF75F00A842430F535EF75F00A84E5F0C1
:100216002430F53690000C0202AC900005E0FAA3FB
:10022600E0FB7C037DE8FFAE02120BEDEF2430F518
:100236003F7C007D64AF03AE02120BED7C007D0AAD
:10024600120BEDED2430F540900005A3E07C007D17
:100256000AFFAE02120BED7C007D0A120BEDED24B7
:1002660030F5417C007D0AAF03AE02120BEDED24A2
:1002760030F542900003E0FF75F00A842430F5441F
:10028600EF75F00A84E5F02430F545900007E0FFAD
:1002960075F00A842430F547EF75F00A84E5F024FA
:1002A60030F54890000AE02401FFE433FE7C007D2F
:1002B60003120BEDEDF00204E190000BE0FF75F088
:1002C6000A842430F530EF75F00A84E5F02430F521
:1002D60031900002E0FF75F00A842430F533EF75A3
:1002E600F00A84E5F02430F534B204300403020445
:1002F600E17F0802046090000FE0FD74017E00A813
:1003060005088005C333CE33CED8F9FF900010E040
:10031600FBEF5B6016ED75F002A4244DF9E4FAFBE1
:100326007517FF751814751904801790000FE0757E
:10033600F002A4244DF9E4FAFB7517FF751814753D
:100346001907F51A751B021213B290000FE024016B
:10035600FFE433FE7C007D07120BEDAF05EFF06086
:10036600030204E17F07FE02046EE52AB409004099
:10037600030204E1900381F828287302039C020417
:10038600380203A702045E02046402046A020473CC
:100396000204AB0204CAB2011216DE12145202049F
:1003A600E190000AE0FB7027900006E004F070067A
:1003B600900005E004F0900005E0FEA3E0FF7C2736
:1003C6007D10120BED900005ECF0A3EDF0805AEBDA
:1003D600B40109900003E075F00C8048900005E038
:1003E600FEA3E0FF5403700AFC7D64120BEDED4C96
:1003F6007013900005E0FEA3E0FF7C017D90120BD8
:10040600EDED4C7010900003E0B40209900007E097
:1004160075F01D800F900003E090144593FF900047
:1004260007E08FF084E5F004F0120EDD12106E0284
:1004360004E190000CE0FF700AA3E004F0E075F020
:1004460018807BEFB401059000098003900004E05A
:1004560004F0E075F03C80667F047E00800A7F052C
:100466007E0080047F047E00120985806EB2001231
:1004760017BE30000B7517FF75181475190480091F
:100486007517FF751814751907751A00751B027B09
:10049600007A00795B1213B27B007A00794D7F02F5
:1004A60012135E803620040C90000BE004F0E07519
:1004B600F018800A900002E004F0E075F03C84E554
:1004C600F0F0801790000FE0FF7401A80708800283
:0F04D600C333D8FCFF900010E06FF0E4F57522FF
:100D6100300203020DEDE52A14604514603324FCC2
:100D7100605B14605D14605A24086003020ED99010
:100D81000008E090000DF0900001E0900009F09063
:100D91000000E0900004F0E490000CF07F01020EEE
:100DA1001B1212365003020ED9121706E4FF806A95
:100DB10090000DE0900008F0A3E0900001F0900099
:100DC10004E0900000F01216DEE4FF804D7F070280
:100DD1000EBC90000BE0F529900002E0F574900044
:100DE10010E0F5721217BE7F06020EBCE52A1460F0
:100DF1002714602A24FD7003020EBA24FE70030238
:100E01000EC0147003020EC024086003020ED9E460
:100E110090000AF07F028002E4FFFE020ED69000ED
:100E21000AE0FB7024900006E024FFF0900005E04A
:100E310034FFF0E0FEA3E0FF7C277D10120BED9064
:100E41000005ECF0A3EDF08068EBB4010D90000318
:100E5100E0240AF0E075F00C8052900005E0FEA35A
:100E6100E0FF5403700AFC7D64120BEDED4C70132E
:100E7100900005E0FEA3E0FF7C017D90120BEDEDFB
:100E81004C7014900003E0B4020D900007E0241BA5
:100E9100F0E075F01D8015900003E090144593FF7C
:100EA10024FEFE900007E02EF0E08FF084E5F004D0
:100EB100F0120EDD12106E801F7F037E00801690EF
:100EC100000BE529F0900002E574F0900010E57246
:0C0ED100F07F067E00120985E4F5752212
:1015AC00900000E004F0E0D3943B4006E4F0A3E0AC
:1015BC0004F0900001E0D3943B4008E4F090000864
:0F15CC00E004F0900008E0D394174002E4F0220E
:1015DB00900007E004F012123650229000077401BD
:1015EB00F0900003E004F0E0940C40117401F090D3
:0E15FB000006E004F07006900005E004F02207
:100EDD00900003E0FBD39402900005E0FEA3E0FF39
:100EED007C007D644009120BEDAE04AF05800B1242
:100EFD000BEDED24FFFFEC34FFFEEF7802CEC313B4
:100F0D00CE13D8F9FAEBD39402900005E0FEA3E0DE
:100F1D00FF7C007D644007120BEDAF058007120BBF
:100F2D00EDED24FFFFEF2AFB900005E0FEA3E0FFAF
:100F3D007C007D64120BEDAC06AD07ED7802CEC3DF
:100F4D0013CE13D8F92BFFED25E0FEC3EF9EFB90DA
:100F5D000003E0FFD3940240028007900003E024D9
:100F6D000CFFEF2401FFE433FE7C007D1A120BDB36
:100F7D007D0A120BEDEB2FFF900007E02F14900070
:100F8D000EF090000EE0FFC3648094805006E024C4
:100F9D0007F080EEEF75F007120B7EAFF090000EAC
:030FAD00EFF02240
:1016DE00900008E0FDE4FF12179E900001E0FD7FF0
:1016EE000112179E900000E0FD7F0212179EA201CC
:0816FE00E433FD7F0B02179E8F
:10160900E4FF1216B5900008EFF07F011216B590AD
:101619000001EFF07F021216B5900000EFF07F0B8A
:0D1629001216B5EF6003D38001C3920122B9
:10170600900006E0FD7F0412179E900005E0FD7F25
:101716000312179E900003E0FD7F0512179E9000AE
:0817260007E0FD7F0602179E9B
:10149B00E4900005F0A3F07F041216B5900006E06F
:1014AB002FF0900005E03400F07F031216B5EFFE2D
:1014BB00900006E02400F0900005E03EF07F05125E
:1014CB0016B5900003EFF07F061216B5900007EFEC
:0214DB00F022FD
:1017BE00AD297F0712179EAD747F0812179EAD726A
:0F17CE007F0912179EA200E433FD7F0A02179EC7
:101756007F071216B58F297F081216B58F747F0979
:101766001216B58F727F0A1216B5EF6003D3800189
:04177600C3920022F8
:10130500900008E0FF75F00A842430F52FEF75F0A2
:101315000A84E5F02430F53075313A900001E0FF9C
:1013250075F00A842430F532EF75F00A84E5F0246F
:1013350030F53375343A900000E0FF75F00A8424E7
:1013450030F535EF75F00A84E5F02430F5367B008D
:091355007A00792BE4FF02135E1B
:10111000900005E0FAA3E0FB7C037DE8FFAE02123D
:101120000BEDEF2430F53F7C007D64AF03AE02127F
:101130000BED7C007D0A120BEDED2430F5409000A4
:1011400005A3E07C007D0AFFAE02120BED7C007D62
:101150000A120BEDED2430F5417C007D0AAF03AEA1
:1011600002120BEDED2430F54275432D900003E0A3
:10117000FF75F00A842430F544EF75F00A84E5F039
:101180002430F54575462D900007E0FF75F00A8480
:101190002430F547EF75F00A84E5F02430F5487BFC
:0A11A000007A00793C7F0102135E23
:10106E0090000EE0B407004003021105901081F8C5
:10107E002828730210960210A10210AC0210B702BB
:10108E0010D70210E20210ED7517FF7518147519BE
:10109E001A80557517FF75181475191F804A751724
:1010AE00FF751814751924803F7517FF7518147580
:1010BE001929751A00751B027B007A00794F1213DD
:1010CE00B27551C87552FD802E7517FF75181475BF
:1010DE00192C80147517FF75181475193180097540
:1010EE0017FF751814751936751A00751B047B00D9
:1010FE007A00794F1213B27B007A00794D7F02028B
:02110E00135E6E
:1012A000121549EEC4F854F0C868FEEFC4540F4854
:1012B000FF7C007D0A120BEDEF2430F55512154925
:1012C000EEC4F854F0C868FEEFC4540F48FF7C0029
:1012D0007D0A120BEDED2430F55675572E12154987
:1012E0007E00EF540F247EF582EE3418F583E493EC
:1012F0002430F5587559A1755AE67B007A00794D6E
:051300007F0202135EF4
:101452007517FF75181475193B751A00751B0A7BF1
:10146200007A0079601213B230010B7517FF7518FC
:101472001475190480097517FF7518147519077505
:101482001A00751B027B007A00796A1213B27B0084
:091492007A00795E7F0302135E0B
:10123600900005E0FEA3E0FF900003E0FD900007AC
:02124600E0FBCB
:10124800AA058F828E83EAD3940C5006EAC39401D0
:101258005002D322EBC39401500122E5825403705B
:101268000EFC7D64AF82AE83120BEDED4C700FAEB9
:1012780083AF827C017D90120BEDED4C700BBA02AE
:1012880008EBD3941D400FD322EA90144593FFEB4B
:08129800D39F4002D322C322C0
:061661007B007A00793CD9
:061667008B148A158916A0
:10166D00121834E4FEEEC39F5013AB14AA15A9163D
:0D167D008E827583007420120BB90E80E878
:01168A00223D
:0300030002189B45
:08189B00200304D203C2023253
:030013000218A32D
:0818A300200304D203D202323B
:03000B000204E507
:1004E500C0E0C0F0C083C082C0D075D000C000C0DD
:1004F50001C002C003C004C005C006C0070522E54F
:100505002270020521758CD8758AF0E52264644550
:10051500217039F521F5221215AC1216DEE52A7087
:10052500061213051212A0900008E0701F9000013A
:10053500E07019900000E070131215DB120EDD1249
:100545001706E52A700612111012106E30030312F9
:1005550014DDE575B401051200168008E575B402D1
:1005650003120D61E52A60030205FC200003020564
:10057500FC900008E065297038900001E0B5743101
:10058500900000E0702B90000EE0FF74017E00A843
:1005950007088005C333CE33CED8F9FFEF5572D3A4
:1005A5009400748094804009E522452170037523E9
:1005B5000CE5236042C3E49522E49521500BC3E585
:1005C500229419E52194004015C374329522E495CF
:1005D50021500FC3E522944BE52194005004B2A2AB
:1005E5008002C2A2AE21AF227C007D19120BEDED77
:1005F5004C70041523C2A2E52A704F30014C9000BF
:1006050001E0FF7045900000E0FEC39403503BE518
:1006150028700FEF700CEE7009E522452170037507
:100625002808E5286024D3E5229432E5219400408A
:1006350004B2A28002C2A2AE21AF227C007D32129A
:100645000BEDED4C70041528C2A2E52A24FE7003BB
:1006550002070924FE70030207ED24FD700302085A
:10066500851470030208EA2407600302096A9000F2
:100675000CE0FF702DC3E5229432E521940050195A
:10068500A3E0FE75F00A842430F52FEE75F00A8498
:10069500E5F02430F5300208E0752F207530200292
:1006A50008E0EFB4012FC3E5229432E52194005010
:1006B5001B900009E0FF75F00A842430F532EF75D0
:1006C500F00A84E5F02430F5330208E07532207530
:1006D50033200208E0C3E5229432E5219400501B43
:1006E500900004E0FF75F00A842430F535EF75F0CD
:1006F5000A84E5F02430F5360208E07535207536B4
:10070500200208E090000AE07074C3E5229432E507
:10071500219400505B900005E0FAA3E0FB7C037D8B
:10072500E8FFAE02120BEDEF2430F53F7C007D644F
:10073500AF03AE02120BED7C007D0A120BEDED242A
:1007450030F540900005A3E07C007D0AFFAE021263
:100755000BED7C007D0A120BEDED2430F5417C009C
:100765007D0AAF03AE02120BEDED2430F542806D2C
:10077500753F20754020754120754220805F9000AF
:100785000AE0B4012DC3E5229432E5219400501A04
:10079500900003E0FF75F00A842430F544EF75F00E
:1007A5000A84E5F02430F5458033754420754520ED
:1007B500802BC3E5229432E5219400501A9000075E
:1007C500E0FF75F00A842430F547EF75F00A84E5FB
:1007D500F02430F54880067547207548207B007A5F
:1007E50000793C7F01020967740A2527F527E4355E
:1007F50026F526D3E52794E7E526940340087526D4
:10080500007527000571E571D3943B4005757100AE
:100815000573E573D3943B4003757300E57375F079
:100825000A842430F52FE57375F00A84E5F0243049
:10083500F53075313AE57175F00A842430F532E505
:100845007175F00A84E5F02430F53375343AAE2637
:10085500AF277C007D64120BEDEF2430F535AE2615
:10086500AF277C007D0A120BED7C007D0A120BED93
:10087500ED2430F5367B007A00792BE4FF02096719
:1008850020042DC3E5229432E5219400501A9000EE
:100895000BE0FF75F00A842430F530EF75F00A841B
:1008A500E5F02430F5318033753020753120802B0B
:1008B500C3E5229432E5219400501A900002E0FF2E
:1008C50075F00A842430F533EF75F00A84E5F024D9
:1008D50030F53480067533207534207B007A007935
:1008E5002BE4FF807DC3E5229432E5219400505628
:1008F50090000FE0FD74017E00A805088005C33354
:10090500CE33CED8F9FF900010E0FBEF5B6016ED1B
:1009150075F002A4244DF9E4FAFB7517FF75181458
:10092500751904801790000FE075F002A4244DF9A5
:10093500E4FAFB7517FF751814751907F51A751B79
:10094500021213B2801490000FE0FF25E0244DF849
:100955007620EF25E0244EF876207B007A00794D4D
:100965007F0212135ED007D006D005D004D003D085
:1009750002D001D000D0D0D082D083D0F0D0E032E8
:10181A008F18121849C2B5A20692B4D2B68518908A
:0A182A007F057E0012185BC2B62293
:1017FC00D2B7C2067F3012181AC2067F0C12181A02
:0E180C00C2067F0112181AC2067F0602181AC1
:101849007FFAC2B4D2B5D2B6E59030E702DFF9C269
:01185900B6D8
:01185A00226B
:06135E008B148A158916AC
:10136400EF14601014601314601624037019C2067D
:101374007F808010C2067F90800AC2067F88800426
:10138400C2067F9812181AE4F517AB14AA15A91609
:10139400120BA0FFD20612181A74012516F516E4D2
:0D13A4003515F5150517E517C3941040DD4C
:0113B1002219
:10185B00EEC313FEEF13FFEF1FAC0670011E4C70AF
:02186B00F62263
:0D17DD007F057E001217EAD2A17F057E0075
:1017EA007C007D02120C42EF1FAC0670011E4C7089
:0217FA00F622D5
:0D188E00D2A01217E4C2A01217E6C2A122D8
:0818AB00C2A01217E4D2A02232
:02151500AB0722
:10151700E4FA7513FFEB30E704D2A08002C2A0EB18
:1015270025E0FB1217DDC2A11217E60ABA08E6D2B8
:10153700A01217DD30A007C2A11218ABC322C2A1A7
:01154700D3D0
:011548002280
:10177A00E4FBFAD2A07F05FE1217EA1217E4EA2563
:10178A00E0FA30A003430201C2A11217E60BBB081C
:03179A00EAAF02B1
:01179D002229
:10179E008F08A90512188E7FA0121515AF08121505
:1017AE0015AF011215151218AB7F887E130217EABA
:0216B500A90783
:1016B70012188E7FA0121515AF0112151512188E6C
:1016C7007FA112151512177AAB071218AB7F887E08
:0616D700131217EAAF0335
:0116DD0022EA
:10187E00000101020303040405060607080809090E
:10168B00E4F515D2807F0AFE12186DC2807FF47EBE
:10169B000112186DD2807F9A7E0012186DA280E421
:0A16AB0033F5157FD47E0002186DA0
:10163600E4F515F516751508C280E516C313F516FB
:10164600D2803080034316807F387E0012186D15D5
:0A16560015E515D3940050E0AF161F
:011660002267
:02172E008F1515
:10173000E4F516751608C280E5151392807F427E87
:101740000012186DD280E515C313F5151516E516B0
:05175000D3940050E1FC
:011755002271
:10154900E4F514FFFDFC12168B7FCC12172E7F4495
:1015590012172E12168B7FCC12172E7FBE12172E42
:101569001216368F14121636AD07EDFCE514AE04CB
:01157900FF72
:01157A00224E
:10186D00D3EF9400EE94004007EF1F70F31E80F04D
:01187D002248
:030000000211AA40
:0C11AA00787FE4F6D8FD7581750211F124
:100B7E00C2D530F707B2D563F0FF05F030E70CB2FF
:100B8E00D5F4048463F0FF05F080018430D502F4BF
:020B9E0004222F
:100BA000BB010689828A83E0225002E722BBFE0253
:090BB000E32289828A83E4932286
:100BB900F8BB010DE58229F582E5833AF583E8F072
:100BC900225006E92582C8F622BBFE05E92582C81E
:020BD900F22206
:100BDB00EF8DF0A4A8F0CF8CF0A428CE8DF0A42E2E
:020BEB00FE22E8
:100BED00BC000BBE0029EF8DF084FFADF022E4CCEC
:100BFD00F875F008EF2FFFEE33FEEC33FCEE9DECB5
:100C0D00984005FCEE9DFE0FD5F0E9E4CEFD22EDFA
:100C1D00F8F5F0EE8420D21CFEADF075F008EF2F44
:100C2D00FFED33FD4007985006D5F0F222C398FD35
:050C3D000FD5F0EA22D2
:100C4200C2D5EC30E709B2D5E4C39DFDE49CFCEECD
:100C520030E715B2D5E4C39FFFE49EFE120BEDC34D
:100C6200E49DFDE49CFC8003120BED30D507C3E448
:060C72009FFFE49EFE223C
:100C7800E709F60870FA8046E709F20870FA803E3C
:100C880088828C83E709F0A370FA807EE309F6086E
:100C980070FA8076E309F20870FA806E88828C8395
:100CA800E309F0A370FA806289828A83E0A3F608D8
:100CB80070FA805689828A83E0A3F20870FA804A23
:100CC80080D280FA80C680D4806580F2803180101E
:100CD80080A680EA809A80A880DA80E280CA803183
:100CE80089828A83ECFAE493A3C8C582C8CCC583F9
:100CF800CCF0A3C8C582C8CCC583CC70E9800D8967
:100D0800828A83E493A3F60870F9ECFAA9F0EDFB64
:100D18002289828A83ECFAE0A3C8C582C8CCC5833D
:100D2800CCF0A3C8C582C8CCC583CC70EA80DD8965
:100D3800828A83E493A3F20870F980CE88F0ED24C8
:100D480002B4040050C4F582EB2402B4040050BA83
:090D58002323458223900CC8738B
:1013B2008B148A158916E4F51CF51DE51B151BAE69
:1013C2001A7002151A4E6033AB17AA18A919120B1C
:1013D200A0FFAB14AA15A916051DE51DAC1C7002D1
:1013E200051C14F5828C83EF120BB9EF60CD7401EA
:1013F2002519F519E43518F51880C0AB14AA15A9FA
:021402001622B0
:10183400E4FFFE120BA0600C0FEF70010E09E970BB
:05184400F20A80EF2212
:1011B600020006E493A3F8E493A34003F68001F249
:1011C60008DFF48029E493A3F85407240CC8C3333A
:1011D600C4540F4420C8834004F456800146F6DF09
:1011E600E4800B0102040810204080900FB0E47EDA
:1011F600019360BCA3FF543F30E509541FFEE493FE
:10120600A360010ECF54C025E060A840B8E493A3C4
:10121600FAE493A3F8E493A3C8C582C8CAC583CAEF
:10122600F0A3C8C582C8CAC583CADFE9DEE780BEA7
:01106D000082
:00000001FF
