:10178F00BFAA00B9D800C8D5D2BBB6FE00CBC4CE15
:10179F00E5C1F9D7DC00D6DCC8D500D6DCD2BB005A
:1017AF00D6DCB6FE00D6DC00D6DCCBC400D6DCCE51
:1017BF00E500D6DCC1F900D5FBB5E3B1A8CAB1206D
:0E17CF0020001F1C1F1E1F1E1F1F1E1F1E1F7F
:10138A0041000900410002004100003A42000507FD
:10139A00E7410003094100081341000D00012B0039
:1013AA0001240101747BC180C101C103C10202256C
:1013BA00000001750011302020202020202020204C
:1013CA002020202020202000114120202020202021
:1013DA002020202020202020202000115220202000
:1013EA0020202020202020202020202020001163DF
:1013FA0020202020202020202020202020202020E3
:10140A000001290001230002270000012E00012FFC
:10141A0000022C000041000B0041000701410001BD
:10142A007B41000C0041000A004100043A012A00F5
:04143A00022100008B
:050006001218BF80FE8E
:1018BF0012194F1217DD121A1F121AC51212BCE499
:1018CF00FFFE120D4FC2A2D2AFD288D2A8D28AD2B7
:1018DF00AAD2B9758901D2A9D28C758CD8758AF024
:0118EF0022D6
:100D4F00E4F5138F2AE52A24F9601A24FD700302B3
:100D5F000DFB240A6003020F321216891214ED12D2
:100D6F00143F021740E4F52CF52DFB7A0079301271
:100D7F0019827B007A0079411219827B007A0079FF
:100D8F005212198212197CE4F52FF52EF527F5284A
:100D9F00E52F75F00A842430F534E52F75F00A84B9
:100DAF00E5F02430F53575363AE52E75F00A8424D2
:100DBF0030F537E52E75F00A84E5F02430F53875F7
:100DCF00393AAE27AF287C007D64121148EF2430EA
:100DDF00F53AAE27AF287C007D0A1211487C007DC2
:100DEF000A121148ED2430F53B020EFA7B007A000F
:100DFF0079301219827B007A0079411219827B00B7
:100E0F007A00795212198212197C90000BE52BF09F
:100E1F00900007E524F0900001E574F0E52B75F0E4
:100E2F000A842430F535E52B75F00A84E5F024307B
:100E3F00F53675373AE52475F00A842430F538E530
:100E4F002475F00A84E5F02430F539E4F5137401C4
:100E5F007E00A813088005C333CE33CED8F9FFEF39
:100E6F0055746017E51375F002A42452F9E4FAFBE8
:100E7F007517FF75181775198F8015E51375F00223
:100E8F00A42452F9E4FAFB7517FF75181775199218
:100E9F00F51A751B021216EE0513E513C3940740DE
:100EAF00AD30000B7517FF75181775198F80097501
:100EBF0017FF751817751992751A00751B027B00AD
:100ECF007A0079601216EE78637C007D007BFF7AE2
:100EDF0017799512129F7569C8756AFD786B7C003A
:100EEF007D007BFF7A17799C12129F7B007A007925
:100EFF00307518107F801218577B007A0079417572
:100F0F0018107F901218577B007A007952751810BD
:100F1F007F881218577B007A0079637518107F98B5
:030F2F001218573E
:010F3200229C
:10181F000526E52670020525C39401E525940040B1
:10182F0026D3E5269465E52594004005757502805D
:10183F000F20020320B20630020D30B30A75750176
:08184F00E4F525F526C2032291
:1000160030020302055EE52AB4140040030206F925
:1000260090002DF828287302006902032B02038B27
:100036000203AA0202CE0202ED02030C02006E02C5
:1000460000730200730202C80203C90203E8020435
:100056000702043802046902049A0204CB0204FC73
:1000660002052D7F070202E87F0A0202E8052DE558
:100076002D7002052CAE2CFF7C007D03121148ED7D
:1000860064014C6003020147FB7A00794112198230
:10009600AE2CAF2D7C037DE81211487E007F64CF25
:1000A600CDCFCECCCE121148EF2430F541AE2CAFD9
:1000B6002D7C007D641211487E007F0ACFCDCFCE05
:1000C600CCCE121148EF2430F542AE2CAF2D7C0079
:1000D6007D0A121148ED2430F543E52F75F00A84A8
:1000E6002430F545E52F75F00A84E5F02430F54611
:1000F60075473AE52E75F00A842430F548E52E75E5
:10010600F00A84E5F02430F549754A3AAE27AF285F
:100116007C007D64121148EF2430F54BAE27AF28E2
:100126007C007D0A1211487C007D0A121148ED24DC
:1001360030F54C7B007A0079417518107F900206E5
:100146009BAE2CAF2D7C007D03121148ED64024C52
:100156006003020214FB7A007952121982AE2CAFA8
:100166002D7C037DE81211487E007F64CFCDCFCE73
:10017600CCCE121148EF2430F552AE2CAF2D7C00B8
:100186007D641211487E007F0ACFCDCFCECCCE1231
:100196001148EF2430F553AE2CAF2D7C007D0A12AA
:1001A6001148ED2430F554E52F75F00A842430F516
:1001B60056E52F75F00A84E5F02430F55775583A60
:1001C600E52E75F00A842430F559E52E75F00A847B
:1001D600E5F02430F55A755B3AAE27AF287C007DF2
:1001E60064121148EF2430F55CAE27AF287C007D01
:1001F6000A1211487C007D0A121148ED2430F55D83
:100206007B007A0079527518107F8802069B1219B6
:100216007CAE2CAF2D7C037DE81211487E007F64F6
:10022600CFCDCFCECCCE121148EF2430F563AE2C15
:10023600AF2D7C007D641211487E007F0ACFCDCFA2
:10024600CECCCE121148EF2430F564AE2CAF2D7C07
:10025600007D0A121148ED2430F565E52F75F00A88
:10026600842430F567E52F75F00A84E5F02430F52F
:100276006875693AE52E75F00A842430F56AE52E2C
:1002860075F00A84E5F02430F56B756C3AAE27AF4D
:10029600287C007D64121148EF2430F56DAE27AF3F
:1002A600287C007D0A1211487C007D0A121148ED57
:1002B6002430F56E7B007A0079637518107F9802FA
:1002C600069BE4FFFE02065F90000CE0FF75F00A55
:1002D600842430F534EF75F00A84E5F02430F535E2
:1002E6007F057E0002065F90000AE0FF75F00A8433
:1002F6002430F537EF75F00A84E5F02430F5387FC1
:10030600067E0002065F900004E0FF75F00A842472
:1003160030F53AEF75F00A84E5F02430F53B7F04BA
:100326007E0002065F900005E0FAA3E0FB7C037DF9
:10033600E8FFAE02121148EF2430F5447C007D64DC
:10034600AF03AE021211487C007D0A121148ED245B
:1003560030F545900005A3E07C007D0AFFAE021251
:1003660011487C007D0A121148ED2430F5467C00C8
:100376007D0AAF03AE02121148ED2430F5477F0225
:100386007E0002065F900003E0FF75F00A842430C9
:10039600F549EF75F00A84E5F02430F54A7F037ECF
:1003A6000002065F900008E0FF75F00A842430F52D
:1003B6004CEF75F00A84E5F02430F54D7F017E00A0
:1003C60002065F90000BE0FF75F00A842430F535D5
:1003D600EF75F00A84E5F02430F5367F0C7E0002D6
:1003E600065F900007E0FF75F00A842430F538EFC9
:1003F60075F00A84E5F02430F5397F0D7E0002069B
:100406005F900001E030E00B7517FF75181775193E
:100416008F80097517FF751817751992751A00756B
:100426001B027B007A0079521216EE7F0E7E0002C6
:10043600065F900001E030E10B7517FF7518177520
:10044600198F80097517FF751817751992751A0097
:10045600751B027B007A0079541216EE7F0F7E0020
:1004660002065F900001E030E20B7517FF75181762
:1004760075198F80097517FF751817751992751AF2
:1004860000751B027B007A0079561216EE7F107EED
:100496000002065F900001E030E30B7517FF751848
:1004A6001775198F80097517FF75181775199275C5
:1004B6001A00751B027B007A0079581216EE7F111E
:1004C6007E0002065F900001E030E40B7517FF75B1
:1004D600181775198F80097517FF751817751992F2
:1004E600751A00751B027B007A00795A1216EE7F88
:1004F600127E0002065F900001E030E50B7517FFE3
:1005060075181775198F80097517FF7518177519DE
:1005160092751A00751B027B007A00795C1216EE42
:100526007F137E0002065F900001E030E60B751730
:10053600FF75181775198F80097517FF75181775C8
:100546001992751A00751B027B007A00795E1216E5
:10055600EE7F0B7E0002065FE52AB414004003021C
:1005660006F990056FF82828730205AB0205B60256
:1005760005DC0205EA02064002064502064A0206B4
:100586004F02065502065B0206650206A00206AC8D
:100596000206BC0206C50206CE0206D70206E00225
:1005A60006E90206F2B2011219CF1217400206F945
:1005B600900006E004F07006900005E004F090005C
:1005C60005E0FEA3E0FF7C277D1012114890000590
:1005D600ECF0A3ED800B900003E075F00C84E5F0E1
:1005E60004F0804D900005E0FEA3E0FF5403700A7E
:1005F600FC7D64121148ED4C7013900005E0FEA3DB
:10060600E0FF7C017D90121148ED4C7010900003C4
:10061600E0B40209900008E075F01D800F90000319
:10062600E09017D093FF900008E08FF084E5F00487
:10063600F01212BC12143F0206F990000C805E9074
:10064600000A806590000480607F087E00800A7F33
:10065600097E0080047F087E00120D4F0206F9B263
:1006660000121A8730000B7517FF75181775198F4A
:1006760080097517FF751817751992751A00751B7D
:10068600027B007A0079601216EE7B007A007952BE
:100696007518107F88121857805990000BE004F0E7
:1006A600E075F018800A900007E004F0E075F03C71
:1006B60084E5F0F0803D900001E06401F080349024
:1006C6000001E06402F0802B900001E06404F080F9
:1006D60022900001E06408F08019900001E06410A7
:1006E600F08010900001E06420F08007900001E0A7
:0706F6006440F0E4F57522F9
:100F3300300203020FECE52AB4140040030210F759
:100F4300900F4AF8282873020F86020FA3020FA3FB
:100F5300020FA3020FB1020FB1020FB10210F70289
:100F630010F70210F7020FCC020FD2020FD2020FBA
:100F7300D2020FD2020FD2020FD2020FD2020FD22D
:100F8300020FD2900009E090000CF0900002E09074
:100F9300000AF0900000E0900004F07F040210DAF1
:100FA30012161F50030210F71219F702103E900099
:100FB3000CE0900009F0A3E0900002F0900004E040
:100FC300900000F01219CF8072752A0B0210F7906F
:100FD300000BE0F52B900007E0F524900001E0F50D
:100FE30074121A877F0A0210DAE52AB41400400348
:100FF3000210F7900FFDF8282873021039021044ED
:1010030002106702107902103E02103E02103E02E7
:1010130010F70210F70210D80210F70210DE0210C8
:10102300DE0210DE0210DE0210DE0210DE0210DE2F
:101033000210DE0210DE7F010210DAE4FFFE02106E
:10104300F4900006E024FFF0900005E034FFF0E0A8
:10105300FEA3E0FF7C277D10121148900005ECF001
:10106300A3ED800F900003E0240AF0E075F00C84F8
:10107300E5F004F08057900005E0FEA3E0FF540381
:10108300700AFC7D64121148ED4C7013900005E06A
:10109300FEA3E0FF7C017D90121148ED4C7014908B
:1010A3000003E0B4020D900008E0241BF0E075F0AB
:1010B3001D8015900003E09017D093FF24FEFE904F
:1010C3000008E02EF0E08FF084E5F004F01212BC8B
:1010D30012143F801F7F077E00801690000BE52BC4
:1010E300F0900007E524F0900001E574F07F0A7E9C
:0810F30000120D4FE4F5752217
:1018F000900000E004F0E0D3943B4008E4F0900056
:1019000002E004F0900002E0D3943B4008E4F09041
:101910000009E004F0900009E0D394174002E4F0DD
:0119200022A4
:10192100900008E004F012161F5022900008740184
:10193100F0900003E004F0E0940C40117401F09089
:0E1941000006E004F07006900005E004F022BD
:1012BC00900003E0FBD39402900005E0FEA3E0FF56
:1012CC007C007D644009121148AE04AF05800B12FE
:1012DC001148ED24FFFFEC34FFFEEF7802CEC31370
:1012EC00CE13D8F9FAEBD39402900005E0FEA3E0FC
:1012FC00FF7C007D644007121148AF058007121176
:10130C0048ED24FFFFEF2AFB900005E0FEA3E0FF71
:10131C007C007D64121148AC06AD07ED7802CEC39B
:10132C0013CE13D8F92BFFED25E0FEC3EF9EFB90F7
:10133C000003E0FFD3940240028007900003E024F6
:10134C000CFFEF2401FFE433FE7C007D1A121136F2
:10135C007D0A121148EB2FFF900008E02F1490002B
:10136C000DF090000DE0FFC394005006E02407F050
:0E137C0080F0EF75F0078490000DE5F0F02290
:1019CF00900009E0FDE4FF121A67900002E0FD7F2E
:1019DF0001121A67900000E0FD7F02121A67A20140
:0819EF00E433FD7F0B021A67CF
:10194F00E4FF1219A6900009EFF07F011219A6907B
:10195F000002EFF07F021219A6900000EFF07F0B4C
:0D196F001219A6EF6003D38001C39201227C
:1019F700900006E0FD7F04121A67900005E0FD7F66
:101A070003121A67900003E0FD7F05121A67900022
:081A170008E0FD7F06021A67DA
:1017DD00E4900005F0A3F07F041219A6900006E036
:1017ED002FF0900005E03400F07F031219A6EFFEF4
:1017FD00900006E02400F0900005E03EF07F051219
:10180D0019A6900003EFF07F061219A6900008EFBD
:02181D00F022B7
:101A8700AD2B7F07121A67AD247F08121A67AD7452
:0F1A97007F09121A67A200E433FD7F0A021A6763
:101A1F007F071219A68F2B7F081219A68F247F0913
:101A2F001219A68F747F0A1219A6EF6003D38001D3
:041A3F00C39200222C
:101689007B007A007930121982900009E0FF75F029
:101699000A842430F534EF75F00A84E5F02430F536
:1016A9003575363A900002E0FF75F00A842430F56A
:1016B90037EF75F00A84E5F02430F53875393A903A
:1016C9000000E0FF75F00A842430F53AEF75F00A5E
:1016D90084E5F02430F53B7B007A007930751810E9
:0516E9007F800218578C
:1014ED007B007A007941121982900005E0FAA3E0A1
:1014FD00FB7C037DE8FFAE02121148EF2430F5446A
:10150D007C007D64AF03AE021211487C007D0A128F
:10151D001148ED2430F545900005A3E07C007D0ACF
:10152D00FFAE021211487C007D0A121148ED2430E5
:10153D00F5467C007D0AAF03AE02121148ED243052
:10154D00F54775482D900003E0FF75F00A842430AF
:10155D00F549EF75F00A84E5F02430F54A754B2D09
:10156D00900008E0FF75F00A842430F54CEF75F01B
:10157D000A84E5F02430F54D7B007A007941751829
:06158D00107F90021857C8
:10143F007B007A00795212198290000DE0B40700F8
:10144F0040030214DF90145BF82828730214700213
:10145F00147B0214860214910214B10214BC0214FC
:10146F00C77517FF7518177519A580557517FF756F
:10147F0018177519AA804A7517FF7518177519AFC0
:10148F00803F7517FF7518177519B4751A00751BFE
:10149F00027B007A0079581216EE755AC8755BFDFB
:1014AF00802E7517FF7518177519B780147517FFEC
:1014BF007518177519BC80097517FF7518177519E9
:1014CF00C1751A00751B047B007A0079581216EE4D
:0E14DF007B007A0079527518107F880218572A
:1017400012197C7517FF7518177519C6751A00756B
:101750001B0A7B007A0079651216EE30010B7517B3
:10176000FF75181775198F80097517FF751817758C
:101770001992751A00751B027B007A00796F121698
:0F178000EE7B007A0079637518107F9802185776
:10161F00900005E0FEA3E0FF900003E0FD900008BE
:02162F00E0FBDE
:10163100AA058F828E83EAD3940C5006EAC39401E3
:101641005002D322EBC39401500122E5825403706E
:101651000EFC7D64AF82AE83121148ED4C700FAE6B
:1016610083AF827C017D90121148ED4C700BBA0260
:1016710008EBD3941D400FD322EA9017D093FFEBD0
:08168100D39F4002D322C322D3
:06197C007B007A00796394
:061982008B148A15891682
:10198800121AFDE4FEEEC39F5013AB14AA15A91654
:0D1998008E8275830074201211140E80E8F9
:0119A500221F
:03000300021B439A
:081B4300200304D203C20232A8
:03001300021B4B82
:081B4B00200304D203D2023290
:03000B000206FDED
:1006FD00C0E0C0F0C083C082C0D075D000C000C0C3
:10070D0001C002C003C004C005C006C0070522E534
:10071D002270020521758CD8758AF0E52264644536
:10072D00217036F521F5221218F01219CFE52A7035
:10073D0003121689900009E0701F900002E07019F5
:10074D00900000E070131219211212BC1219F7E576
:10075D002A70061214ED12143F30030312181FE510
:10076D0075B401051200168008E575B40203120F69
:10077D0033E52A60030208112000030208119000DE
:10078D0009E0652B7038900002E0B524319000002F
:10079D00E0702B90000DE0FF74017E00A80708802B
:1007AD0005C333CE33CED8F9FFEF5574D39400740F
:1007BD008094804009E5224521700375230CE523C3
:1007CD006042C3E49522E49521500BC3E5229419B0
:1007DD00E52194004015C374329522E49521500F04
:1007ED00C3E522944BE52194005004B2A28002C2CD
:1007FD00A2AE21AF227C007D19121148ED4C700480
:10080D001523C2A2E52A704F30014C900002E0FF83
:10081D007045900000E0FEC39403503BE529700F36
:10082D00EF700CEE7009E52245217003752908E57E
:10083D00296024D3E5229432E52194004004B2A22C
:10084D008002C2A2AE21AF227C007D32121148ED92
:10085D004C70041529C2A2E52A14B41300400302FA
:10086D000D3490087D75F003A4C58325F0C5837301
:10087D000209410209B50209E20208B60208E502C1
:10088D000913020D34020A1B020D34020D34020A43
:10089D00B6020AEF020B28020B73020BBE020C0903
:1008AD00020C54020C9F020CE9C3E5229432E5219F
:1008BD009400501B90000CE0FF75F00A842430F575
:1008CD0034EF75F00A84E5F02430F535020AE17550
:1008DD003420753520020AE1C3E5229432E52194D6
:1008ED0000501A90000AE0FF75F00A842430F537A5
:1008FD00EF75F00A84E5F02430F538800675372061
:10090D00753820020AE1C3E5229432E521940050A6
:10091D001A900004E0FF75F00A842430F53AEF7563
:10092D00F00A84E5F02430F53B8006753A20753BDE
:10093D0020020AE1C3E5229432E5219400505B9038
:10094D000005E0FAA3E0FB7C037DE8FFAE02121187
:10095D0048EF2430F5447C007D64AF03AE021211E4
:10096D00487C007D0A121148ED2430F545900005B4
:10097D00A3E07C007D0AFFAE021211487C007D0AC7
:10098D00121148ED2430F5467C007D0AAF03AE020E
:10099D00121148ED2430F5478066754420754520C9
:1009AD007546207547208058C3E5229432E5219481
:1009BD0000501A900003E0FF75F00A842430F549C9
:1009CD00EF75F00A84E5F02430F54A80067549206C
:1009DD00754A20802BC3E5229432E5219400501AEC
:1009ED00900008E0FF75F00A842430F54CEF75F0A7
:1009FD000A84E5F02430F54D8006754C20754D20A8
:100A0D007B007A0079417518107F90020D31740AC0
:100A1D002528F528E43527F527D3E52894E7E5279C
:100A2D0094034008752700752800052EE52ED394F4
:100A3D003B4005752E00052FE52FD3943B400375E4
:100A4D002F00E52F75F00A842430F534E52F75F06D
:100A5D000A84E5F02430F53575363AE52E75F00A41
:100A6D00842430F537E52E75F00A84E5F02430F551
:100A7D003875393AAE27AF287C007D64121148EFE6
:100A8D002430F53AAE27AF287C007D0A1211487C40
:100A9D00007D0A121148ED2430F53B7B007A007978
:100AAD00307518107F80020D31C3E5229432E52197
:100ABD009400501A90000BE0FF75F00A842430F575
:100ACD0035EF75F00A84E5F02430F536800675357E
:100ADD00207536207B007A0079307518107F8002E2
:100AED000D31C3E5229432E5219400501A90000790
:100AFD00E0FF75F00A842430F538EF75F00A84E5CF
:100B0D00F02430F53980067538207539207B007A50
:100B1D000079307518107F80020D31C3E5229432B3
:100B2D00E5219400502C900001E030E00B7517FF8B
:100B3D0075181775198F80097517FF7518177519A1
:100B4D0092751A00751B027B007A0079521216EE0F
:100B5D0080067552207553207B007A0079527518E6
:100B6D00107F88020D31C3E5229432E521940050A7
:100B7D002C900001E030E10B7517FF7518177519F2
:100B8D008F80097517FF751817751992751A0075ED
:100B9D001B027B007A0079541216EE8006755420E4
:100BAD007555207B007A0079527518107F88020DDB
:100BBD0031C3E5229432E5219400502C900001E0E0
:100BCD0030E20B7517FF75181775198F800975179A
:100BDD00FF751817751992751A00751B027B007A2F
:100BED000079561216EE80067556207557207B003B
:100BFD007A0079527518107F88020D31C3E5229461
:100C0D0032E5219400502C900001E030E30B751774
:100C1D00FF75181775198F80097517FF75181775DA
:100C2D001992751A00751B027B007A0079581216FD
:100C3D00EE80067558207559207B007A0079527523
:100C4D0018107F88020D31C3E5229432E5219400FE
:100C5D00502C900001E030E40B7517FF75181775D7
:100C6D00198F80097517FF751817751992751A0068
:100C7D00751B027B007A00795A1216EE8006755AA2
:100C8D0020755B207B007A0079527518107F8802E1
:100C9D000D31C3E5229432E5219400502C900001D2
:100CAD00E030E50B7517FF75181775198F800975ED
:100CBD0017FF751817751992751A00751B027B00B1
:100CCD007A00795C1216EE8006755C20755D207BCE
:100CDD00007A0079527518107F888048C3E52294F8
:100CED0032E5219400502C900001E030E60B751791
:100CFD00FF75181775198F80097517FF75181775FA
:100D0D001992751A00751B027B007A00795E121616
:100D1D00EE8006755E20755F207B007A0079527536
:100D2D0018107F88121857D007D006D005D004D0E0
:100D3D0003D002D001D000D0D0D082D083D0F0D05B
:020D4D00E03292
:101AE3008F1A121B12C2B5A20592B4D2B6851A90F0
:0A1AF3007F057E00121B24C2B622FC
:101AC500D2B7C2057F30121AE3C2057F0C121AE3A2
:0E1AD500C2057F01121AE3C2057F06021AE362
:101B12007FFAC2B4D2B5D2B6E59030E702DFF9C29D
:011B2200B60C
:011B2300229F
:061857008B158A168917AB
:10185D00C205121AE3E4F519E519C39518501EAB2C
:10186D0015AA16A9171210FBFFD205121AE374015F
:0D187D002517F517E43516F516051980DB63
:01188A00223B
:101B2400EEC313FEEF13FFEF1FAC0670011E4C70E3
:021B3400F62297
:0D1AA6007F057E00121AB3D2A17F057E00DD
:101AB3007C007D0212119DEF1FAC0670011E4C705D
:021AC300F62209
:0D1B3600D2A0121AADC2A0121AAFC2A12295
:081B5300C2A0121AADD2A022BB
:02188B00AB07A9
:10188D00E4FA7513FFEB30E704D2A08002C2A0EB9F
:10189D0025E0FB121AA6C2A1121AAF0ABA08E6D2A7
:1018AD00A0121AA630A007C2A1121B53C322C2A1B7
:0118BD00D357
:0118BE002207
:101A4300E4FBFAD2A07F05FE121AB3121AADEA25FF
:101A5300E0FA30A003430201C2A1121AAF0BBB0884
:031A6300EAAF02E5
:011A6600225D
:101A67008F08A905121B367FA012188BAF08121812
:101A77008BAF0112188B121B537F887E13021AB388
:0219A600A9078F
:1019A800121B367FA012188BAF0112188B121B3630
:1019B8007FA112188B121A43AB07121B537F887E24
:0619C80013121AB3AF0375
:0119CE0022F6
:0300000002159353
:0C159300787FE4F6D8FD7581750215DA4A
:1010FB00BB010689828A83E0225002E722BBFE02F3
:09110B00E32289828A83E4932225
:10111400F8BB010DE58229F582E5833AF583E8F011
:10112400225006E92582C8F622BBFE05E92582C8BD
:02113400F222A5
:10113600EF8DF0A4A8F0CF8CF0A428CE8DF0A42ECD
:02114600FE2287
:10114800BC000BBE0029EF8DF084FFADF022E4CC8B
:10115800F875F008EF2FFFEE33FEEC33FCEE9DEC54
:10116800984005FCEE9DFE0FD5F0E9E4CEFD22ED9A
:10117800F8F5F0EE8420D21CFEADF075F008EF2FE4
:10118800FFED33FD4007985006D5F0F222C398FDD5
:051198000FD5F0EA2272
:10119D00C2D5EC30E709B2D5E4C39DFDE49CFCEE6D
:1011AD0030E715B2D5E4C39FFFE49EFE121148C38C
:1011BD00E49DFDE49CFC800312114830D507C3E487
:0611CD009FFFE49EFE22DC
:1011D300E709F60870FA8046E709F20870FA803EDC
:1011E30088828C83E709F0A370FA807EE309F6080E
:1011F30070FA8076E309F20870FA806E88828C8335
:10120300E309F0A370FA806289828A83E0A3F60877
:1012130070FA805689828A83E0A3F20870FA804AC2
:1012230080D280FA80C680D4806580F280318010BD
:1012330080A680EA809A80A880DA80E280CA803122
:1012430089828A83ECFAE493A3C8C582C8CCC58398
:10125300CCF0A3C8C582C8CCC583CC70E9800D8906
:10126300828A83E493A3F60870F9ECFAA9F0EDFB04
:101273002289828A83ECFAE0A3C8C582C8CCC583DD
:10128300CCF0A3C8C582C8CCC583CC70EA80DD8905
:10129300828A83E493A3F20870F980CE88F0ED2468
:1012A30002B4040050C4F582EB2402B4040050BA23
:0912B300232345822390122373CA
:1016EE008B148A158916E4F51CF51DE51B151BAE2A
:1016FE001A7002151A4E6033AB17AA18A9191210D8
:10170E00FBFFAB14AA15A916051DE51DAC1C700236
:10171E00051C14F5828C83EF121114EF60CD740149
:10172E002519F519E43518F51880C0AB14AA15A9BA
:02173E00162271
:101AFD00E4FFFE1210FB600C0FEF70010E09E97090
:051B0D00F20A80EF2246
:10159F00020006E493A3F8E493A34003F68001F25C
:1015AF0008DFF48029E493A3F85407240CC8C3334D
:1015BF00C4540F4420C8834004F456800146F6DF1C
:1015CF00E4800B010204081020408090138AE47E0F
:1015DF00019360BCA3FF543F30E509541FFEE49311
:1015EF00A360010ECF54C025E060A840B8E493A3D8
:1015FF00FAE493A3F8E493A3C8C582C8CAC583CA03
:10160F00F0A3C8C582C8CAC583CADFE9DEE780BEBA
:01143E0000AD
:00000001FF
