:1001C900C0F9A4B0999282F880908883C6A1868EDE
:0C01D900BFFF0102040810204080FF005E
:1001840001161701153B010814011700080D0000A2
:1001940000000000000002090000020B000001182A
:0501A40000C101C100D3
:10014C00050CE50C7002050BC3940AE50B940040FA
:10015C0026D3E50C94F2E50B940340057518028048
:10016C000F20000320B20630000D30B30A751801C1
:08017C00E4F50BF50CC20122B1
:07025100758001E4F518229D
:07025800758002E4F5182295
:03000300020241B5
:08024100200104D201C20032C9
:030013000202499D
:08024900200104D201D20032B1
:1001AA000508E508B43C05E4F5080515E515B43C71
:0F01BA0005E4F5150516E516B41803E4F516224D
:10022F00740D2517F8E6FFAD171201E505175317E3
:02023F00072294
:03000B00020016DA
:10001600C0E0C0F0C083C082C0D075D000C000C0B0
:1000260001C002C003C004C005C006C007050AE53A
:100036000A70020509758CFC758A18E50AB4E80E83
:10004600E509B40309750900750A001201AA300111
:100056000312014CE518600BB4010512025180032E
:10006600120258E51675F00A84F50DE51675F00AC4
:100076008485F00E750F10E51575F00A84F510E508
:100086001575F00A8485F011751210E50875F00AE9
:1000960084F513E50875F00A8485F01412022FD052
:1000A60007D006D005D004D003D002D001D000D0AE
:0A00B600D0D082D083D0F0D0E03229
:10020000D2AFD288D2A8D28AD2AAD2B9758901D265
:0A021000A9D28C758CFC758A1822A7
:0500060012020080FE63
:10021A00E4FEEF3392A0C2A1D2A1C2A1EF25E0FF72
:04022A000EBE08EE0E
:01022E0022AD
:1001E500AC07ED9001DB93FF12021AEC9001C99365
:0B01F500FF12021AC2A2D2A2C2A22274
:030000000200C03B
:0C00C000787FE4F6D8FD7581200201076E
:1000CC00020006E493A3F8E493A34003F68001F244
:1000DC0008DFF48029E493A3F85407240CC8C33335
:1000EC00C4540F4420C8834004F456800146F6DF04
:1000FC00E4800B0102040810204080900184E47E0F
:10010C00019360BCA3FF543F30E509541FFEE493F8
:10011C00A360010ECF54C025E060A840B8E493A3BF
:10012C00FAE493A3F8E493A3C8C582C8CAC583CAEA
:10013C00F0A3C8C582C8CAC583CADFE9DEE780BEA2
:0101A9000055
:00000001FF
