:10123D00C0F9A4B0999282F880908883C6A1868E59
:10124D00BFFF1F1C1F1E1F1E1F1F1E1F1E1F010263
:08125D00040810204080FF008E
:10118C00013A1701323B01213A023707E4013502DB
:10119C0001391C013C0501361701253B01340001C6
:1011AC003E000828000000000000000002220000A1
:1011BC00C101C10002260000013F00C103C10201B0
:0F11CC00330001240002300000013B00013D0010
:1011DC000527E52770020526C3940AE526940040EE
:1011EC0026D3E52794F2E52694034005753F02804B
:1011FC000F20020320B20630020D30B30A753F01F6
:08120C00E4F526F527C20322D8
:1010D700AA058F828E83EAD3940C5049EAC3940100
:1010E70050028041EBC3940150028039E5825403DA
:1010F700700EFC7D64AF82AE83121082ED4C700FD0
:10110700AE83AF827C017D90121082ED4C700BBADA
:101117000208EBD3941D4012800BEA90124E93FF06
:0E112700EBD39F40057E007F0122E4FEFF22F5
:100B650020027AE534B40E004003020FE0900B79C1
:100B7500F8282873020BA3020FE0020BC4020BCA6C
:100B8500020BD0020BB2020BB8020BBE020BA9027C
:100B95000FE0020FE0020BAF020BD6020BDC75343F
:100BA50008020FE075340B020FE0020C897534065C
:100BB500020FE0753407020FE0753405020FE0758A
:100BC5003403020FE0753404020FE0753402020F9E
:0D0BD500E075340D020FE075340C020FE0E6
:100BE200E52875F00AA42529F508E52B75F00AA475
:100BF200252CFBF509E52E75F00AA4F9252FFAF547
:100C02000AAF287E007C037DE8121070AC06AD07A7
:100C1200E52975F064A42DFDEC35F0FCE52A75F0AC
:100C22000AA42DFFE5F03CFE7C00EF252BF50CEC31
:100C32003EF50BE52C75F00AA4252DF50D8A0E8BD9
:100C42000FE52F29F510E534B40E004003020FE042
:100C5200900C59F8282873020C83020C89020C8F1D
:100C6200020D80020E32020F4A020F68020F7F024B
:100C72000F96020F98020F9D020FA2020FA6020FFB
:100C8200C4753401020FE0E4F534020FE0050CE50F
:100C92000C7002050BAE0BFF7C277D101210828CAC
:100CA2000B8D0CAE0BAF0C7C037DE81210828F28EB
:100CB200AE0BAF0C7C007D641210827C007D0A12A8
:100CC20010828D29AE0BAF0C7C007D0A1210827C43
:100CD200007D0A1210828D2AAE0BAF0C7C007D0AB9
:100CE2001210828D2BE50DD39402AE0BAF0C7C005B
:100CF2007D644009121082AE04AF05800B1210828F
:100D0200ED24FFFFEC34FFFEEF7802CEC313CE13C7
:100D1200D8F9FBAA06E50DD39402AE0BAF0C7C000A
:100D22007D644009121082AE04AF05800B1210825E
:100D3200ED24FFFFEC34FFFEEB2FFBEA3EFAAE0B95
:100D4200AF0C7C007D64121082AC06AD07ED780218
:100D5200CEC313CE13D8F92BFBEA3EFAED25E0FF02
:100D6200EC33FEC3EB9FFBEA9EFAE50DD3940240FF
:100D720005AF0D020F18E50D240CFF020F18E50D4B
:100D820075F00C84E5F004F50D75F00A84F52CE598
:100D92000D75F00A8485F02DE50DD39402AE0BAFEC
:100DA2000C7C007D644009121082AE04AF05800BFA
:100DB200121082ED24FFFFEC34FFFEEF7802CEC367
:100DC20013CE13D8F9FBAA06E50DD39402AE0BAFEE
:100DD2000C7C007D644009121082AE04AF05800BCA
:100DE200121082ED24FFFFEC34FFFEEB2FFBEA3EF4
:100DF200FAAE0BAF0C7C007D64121082AC06AD071C
:100E0200ED7802CEC313CE13D8F92BFBEA3EFAEDEE
:100E120025E0FFEC33FEC3EB9FFBEA9EFAE50DD320
:100E220094024004AF0D8005E50D240CFF020F185B
:100E3200E50C5403700EAE0BAF0CFC7D64121082F5
:100E4200ED4C700FAE0BAF0C7C017D90121082ED59
:100E52004C700CE50DB40207E50E75F01D800BE534
:100E62000D90124E93FFE50E8FF084E5F004F50E1F
:100E7200E50E75F00A84F52EE50E75F00A8485F00C
:100E82002FE50DD39402AE0BAF0C7C007D644009BC
:100E9200121082AE04AF05800B121082ED24FFFF08
:100EA200EC34FFFEEF7802CEC313CE13D8F9FBAABF
:100EB20006E50DD39402AE0BAF0C7C007D644009B5
:100EC200121082AE04AF05800B121082ED24FFFFD8
:100ED200EC34FFFEEB2FFBEA3EFAAE0BAF0C7C00CC
:100EE2007D64121082AC06AD07ED7802CEC313CE3C
:100EF20013D8F92BFBEA3EFAED25E0FFEC33FEC3F3
:100F0200EB9FFBEA9EFAE50DD394024004AF0D80FD
:100F120005E50D240CFFEF2401FFE433FE7C007D88
:100F22001A1210707D0A121082EF2BFFEE3AFE7C2D
:100F320000EF250EFFEC3ECF24FFCF34FFFE7D07EE
:100F42001210828D3C020FE00508E50875F0188446
:100F520085F008E50875F00A84F528E50875F00AB9
:100F62008485F02980780509E50975F03C8485F0CF
:100F720009E50975F00A84F52BE509803C050AE5C7
:100F82000A75F03C8485F00AE50A75F00A84F52EAC
:100F9200E50A8043800575340A8043753409803E32
:100FA200B200803A050FE50F75F0188485F00FE561
:100FB2000F75F00A84F52BE50F75F00A8485F02C85
:100FC200801C0510E51075F03C8485F010E5107565
:0E0FD200F00A84F52EE51075F00A8485F02FE4
:040FE000E4F53F22D3
:10062800300203020810E534B40E004003020B61E7
:1006380090063FF828287302066902066F020675BD
:100648000206750206750207D20207D20207D20215
:100658000B61020B61020B610207F30207F9020743
:10066800F9753405020B61753402020B61AF287EFF
:10067800007C037DE8121070AC06AD07E52975F023
:1006880064A42DFDEC35F0FCE52A75F00AA42DFFD5
:10069800E5F03CFE7C00EF252BFFEC3EFEE52C75DB
:1006A800F00AA4252DFDE52E75F00AA4252FFB12CE
:1006B80010D7EF4E6003020B61AF28FE7C037DE884
:1006C800121070AC06AD07E52975F064A42DFDEC99
:1006D80035F0FCE52A75F00AA42DFFE5F03CFE7C18
:1006E80000EF252BF538EC3EF537E52C75F00AA41C
:1006F800252DF535E52E75F00AA4252FF539E535B4
:10070800D39402AE37AF38400B7D64121082AE042A
:10071800AF05800F7C007D64121082ED24FFFFEC92
:1007280034FFFEEF7802CEC313CE13D8F9FBAA0626
:10073800E535D39402AE37AF387C007D64400912AA
:100748001082AE04AF05800B121082ED24FFFFEC7F
:1007580034FFFEEB2FFBEA3EFAAE37AF387C007D64
:1007680064121082AC06AD07ED7802CEC313CE1327
:10077800D8F92BFBEA3EFAED25E0FFEC33FEC3EB9C
:100788009FFBEA9EFAE535D394024004AF35800515
:10079800E535240CFFEF2401FFE433FE7C007D1ACD
:1007A8001210707D0A121082EF2BFFEE3AFE7C00C9
:1007B800EF2539FFEC3ECF24FFCF34FFFE7D071233
:1007C80010828D3C753401020B61E52875F00AA48E
:1007D8002529F53AE52B75F00AA4252CF532E52EE6
:1007E80075F00AA4252FF52102088C75340C020B2C
:1007F80061E52B75F00AA4252CF536E52E75F00A6F
:08080800A4252FF525020B5E6B
:10081000AF287E007C037DE8121070AC06AD07E5C2
:100820002975F064A42DFDEC35F0FCE52A75F00A7D
:10083000A42DFFE5F03CFE7C00EF252BF509EC3EF6
:10084000F508E52C75F00AA4252DF50AE52E75F0BE
:100850000AA4252FF50BE53424FE6036147003023C
:100860000984147003020A3A24FC502024FE700309
:10087000020B5924FE7003020B5E147003020B5E20
:10088000240D6003020B61B201020B61E4F5340236
:100890000B61E509150970021508AE08AF097C2740
:1008A0007D101210828C088D09AE08AF097C037D83
:1008B000E81210828F28AE08AF097C007D64121008
:1008C000827C007D0A1210828D29AE08AF097C005F
:1008D0007D0A1210827C007D0A1210828D2AAE08D9
:1008E000AF097C007D0A1210828D2BE50AD3940299
:1008F000AE08AF097C007D644009121082AE04AFDF
:1009000005800B121082ED24FFFFEC34FFFEEF7820
:1009100002CEC313CE13D8F9FBAA06E50AD394027C
:10092000AE08AF097C007D644009121082AE04AFAE
:1009300005800B121082ED24FFFFEC34FFFEEB2F3D
:10094000FBEA3EFAAE08AF097C007D64121082AC6F
:1009500006AD07ED7802CEC313CE13D8F92BFBEA10
:100960003EFAED25E0FFEC33FEC3EB9FFBEA9EFA77
:10097000E50AD394024005AF0A020B28E50A240CCD
:10098000FF020B28740A250AF50A75F00C84E5F0BD
:1009900004F50A75F00A84F52CE50A75F00A8485D9
:1009A000F02DE50AD39402AE08AF097C007D6440C7
:1009B00009121082AE04AF05800B121082ED24FFE5
:1009C000FFEC34FFFEEF7802CEC313CE13D8F9FB51
:1009D000AA06E50AD39402AE08AF097C007D644004
:1009E00009121082AE04AF05800B121082ED24FFB5
:1009F000FFEC34FFFEEB2FFBEA3EFAAE08AF097CBA
:100A0000007D64121082AC06AD07ED7802CEC313F0
:100A1000CE13D8F92BFBEA3EFAED25E0FFEC33FECE
:100A2000C3EB9FFBEA9EFAE50AD394024004AF0AA7
:100A30008005E50A240CFF020B28E5095403700E1B
:100A4000AE08AF09FC7D64121082ED4C700FAE0849
:100A5000AF097C017D90121082ED4C7010E50AB454
:100A6000020B741B250BF50B75F01D800FE50A902A
:100A7000124E93FF24FE250BF50B8FF084E5F00456
:100A8000F50BE50B75F00A84F52EE50B75F00A847D
:100A900085F02FE50AD39402AE08AF097C007D648F
:100AA0004009121082AE04AF05800B121082ED24B3
:100AB000FFFFEC34FFFEEF7802CEC313CE13D8F95C
:100AC000FBAA06E50AD39402AE08AF097C007D6458
:100AD0004009121082AE04AF05800B121082ED2483
:100AE000FFFFEC34FFFEEB2FFBEA3EFAAE08AF0946
:100AF0007C007D64121082AC06AD07ED7802CEC397
:100B000013CE13D8F92BFBEA3EFAED25E0FFEC33C8
:100B1000FEC3EB9FFBEA9EFAE50AD394024004AFC2
:100B20000A8005E50A240CFFEF2401FFE433FE7C74
:100B3000007D1A1210707D0A121082EF2BFFEE3A20
:100B4000FE7C00EF250BFFEC3ECF24FFCF34FFFEF1
:100B50007D071210828D3C8008753408800375343F
:010B60000B89
:040B6100E4F53F2256
:030003000212BB2B
:0812BB00200304D203C2023239
:030013000212C313
:0812C300200304D203D2023221
:101265000521E521D3943B4005E4F5210532E5321E
:10127500D3943B4005E4F532053AE53AD39417405B
:0512850003E4F53A222C
:101214000539AB39AD35AF38AE371210D7EF4E6064
:10122400177539010535E535D3940C400B75350137
:091234000538E538700205372287
:03000B00020016DA
:10001600C0E0C0F0C083C082C0D075D000C000C0B0
:1000260001C002C003C004C005C006C0070523E521
:100036002370020522758CFC758A18E52364E87026
:1000460004E52264036003020133F522F52312124C
:1000560065E53A6003020133E5326003020133E5E8
:10006600216003020133121214E535D39402AE3730
:10007600AF387C007D644009121082AE04AF058063
:100086000B121082ED24FFFFEC34FFFEEF7802CE58
:10009600C313CE13D8F9FBAA06E535D39402AE37BF
:1000A600AF387C007D644009121082AE04AF058033
:1000B6000B121082ED24FFFFEC34FFFEEB2FFBEA60
:1000C6003EFAAE37AF387C007D64121082AC06ADC6
:1000D60007ED7802CEC313CE13D8F92BFBEA3EFA0E
:1000E600ED25E0FFEC33FEC3EB9FFBEA9EFAE53518
:1000F600D394024004AF358005E535240CFFEF2488
:1001060001FFE433FE7C007D1A1210707D0A121086
:1001160082EF2BFFEE3AFE7C00EF2539FFEC3ECF57
:1001260024FFCF34FFFE7D071210828D3C3003037F
:100136001211DCE53FB40105120B658008E53FB4FA
:100146000203120628E534706130005EE53AB536E2
:1001560012E532B5250DE5217009E5234522700328
:1001660075240CE5246043C3E49523E49522500BE3
:10017600C3E52394FAE52294004016C374F495234C
:1001860074019522500FC3E52394EEE522940250A4
:1001960004B2A38002C2A3AE22AF237C007DFA1272
:1001A6001082ED4C70041524C2A3E5347040300172
:1001B6003DE5337011E532700DE5217009E5234503
:1001C600227003753308E5336024D3E52394F4E500
:1001D6002294014004B2A38002C2A3AE22AF237CC4
:1001E600017DF4121082ED4C70041533C2A3E53480
:1001F600B40E00400302060D900205F8282873028B
:10020600022F0202830203D502041E0204670203C0
:100216000002034302038C0204B002051202059693
:1002260002059C0205DE0205F5E53A75F00A84F53D
:1002360028E53A75F00A8485F029752A10E53275A5
:10024600F00A84F52BE53275F00A8485F02C752DBD
:1002560010E52175F00A84F52EE52175F00A8485EE
:10026600F02FAF3C7401A807088002C333D8FCFF07
:100276003001057E800203657E00020365AE37AF5E
:10028600387C037DE81210828F28AE37AF387C00A9
:100296007D641210827C007D0A1210828D29AE3791
:1002A600AF387C007D0A1210827C007D0A12108213
:1002B6008D2AAE37AF387C007D0A1210828D2BE571
:1002C6003575F00A84F52CE53575F00A8485F02D30
:1002D600E53975F00A84F52EE53975F00A8485F05E
:1002E6002FAF3C7401A807088002C333D8FCFF3047
:1002F60001047E8080027E008065C3E52394F4E5D8
:100306002294015019AF3C7401A807088002C33338
:10031600D8FCFF3001047E8080027E008041AF3C25
:100326007401A807088002C333D8FCFF3001047E9D
:100336008080027E00EF4EFD7FFC02060AC3E523A5
:1003460094F4E5229401501FAF3C7401A80708807D
:1003560002C333D8FCFF3001047E8080027E00EFAA
:100366004EFD7FFF02060AAF3C7401A80708800213
:10037600C333D8FCFF3001047E8080027E00EF4E3E
:10038600FD7FE702060AC3E52394F4E522940150B3
:100396001FAF3C7401A807088002C333D8FCFF30A6
:1003A60001047E8080027E00EF4EFD7FFF02060A7A
:1003B600AF3C7401A807088002C333D8FCFF3001A4
:1003C600047E8080027E00EF4EFD7F3F02060AC358
:1003D600E52394F4E5229401501FAF3C7401A8076D
:1003E600088002C333D8FCFF3001047E8080027E81
:1003F60000EF4EFD7FFF02060AAF3C7401A8070816
:100406008002C333D8FCFF3001047E8080027E0068
:10041600EF4EFD7FF002060AC3E52394F4E522942D
:1004260001501FAF3C7401A807088002C333D8FCF3
:10043600FF3001047E8080027E00EF4EFD7FFF02CA
:10044600060AAF3C7401A807088002C333D8FCFF34
:100456003001047E8080027E00EF4EFD7FCF0206D3
:100466000AC3E52394F4E5229401501FAF3C7401BE
:10047600A807088002C333D8FCFF3001047E8080C1
:10048600027E00EF4EFD7FFF02060AAF3C7401A814
:1004960007088002C333D8FCFF3001047E80800247
:1004A6007E00EF4EFD7F3F02060A75300075310073
:1004B600753B00753D00E53D75F00A84F528E53D80
:1004C60075F00A8485F029752A10E53B75F00A84D3
:1004D600F52BE53B75F00A8485F02C752D10AE30B2
:1004E600AF317C007D641210828F2EAE30AF317C2E
:1004F600007D641210827E007F0ACFCDCFCECCCE97
:100506001210828F2FE4FD7FFF02060A0531E531C6
:1005160070020530D394E7E5309403400875300047
:10052600753100053BE53BD3943B4005753B000523
:100536003DE53DD3943B4003753D00E53D75F00A2E
:1005460084F528E53D75F00A8485F029752A10E5BD
:100556003B75F00A84F52BE53B75F00A8485F02C93
:10056600752D10AE30AF317C007D641210828F2E57
:10057600AE30AF317C007D641210827E007F0ACFE0
:10058600CDCFCECCCE1210828F2FE4FD7FFF8074AC
:10059600E4FD7FFF806EE53675F00A84F52BE536BF
:1005A60075F00A8485F02C752D10E52575F00A8402
:1005B600F52EE52575F00A8485F02F30000B752899
:1005C60011752911752A11800975280075290F756D
:1005D6002A0FE4FD7FFF802CC3E52394F4E52294E3
:1005E600015006E4FD7FFF801BE4FD7FE78015C315
:1005F600E52394F4E52294015006E4FD7FFF800490
:10060600E4FD7F3F121135D007D006D005D004D0C7
:1006160003D002D001D000D0D0D082D083D0F0D089
:02062600E032C0
:10128A00C2A3D2AFD288D2A8D28AD2AAD2B9758939
:0C129A0001D2A9D28C758CFC758A182238
:0500060012128A80FEC9
:1011350090124EE493F508AE3EEFA806088002C370
:1011450013D8FCFF530701BF010C7428253EF8E6B0
:1011550090123D93F508AF3EEDA807088002C31332
:10116500D8FCFD530501BD010353087FE53E9012F0
:101175005B93FF1212A6AF081212A6C2A2D2A2C298
:06118500A2053E533E07E7
:01118B002241
:1012A600E4FEEF3392A0C2A1D2A1C2A1EF25E0FFD6
:0412B6000EBE08EE72
:0112BA002211
:03000000020FE408
:0C0FE400787FE4F6D8FD75813F02102BE9
:10107000EF8DF0A4A8F0CF8CF0A428CE8DF0A42E94
:02108000FE224E
:10108200BC000BBE0029EF8DF084FFADF022E4CC52
:10109200F875F008EF2FFFEE33FEEC33FCEE9DEC1B
:1010A200984005FCEE9DFE0FD5F0E9E4CEFD22ED61
:1010B200F8F5F0EE8420D21CFEADF075F008EF2FAB
:1010C200FFED33FD4007985006D5F0F222C398FD9C
:0510D2000FD5F0EA2239
:100FF000020006E493A3F8E493A34003F68001F211
:1010000008DFF48029E493A3F85407240CC8C33301
:10101000C4540F4420C8834004F456800146F6DFD0
:10102000E4800B010204081020408090118CE47EC3
:10103000019360BCA3FF543F30E509541FFEE493C5
:10104000A360010ECF54C025E060A840B8E493A38C
:10105000FAE493A3F8E493A3C8C582C8CAC583CAB7
:10106000F0A3C8C582C8CAC583CADFE9DEE780BE6F
:0111DB000013
:00000001FF
