:10037500C0F9A4B0999282F880908883C6A1868E30
:0C038500BFFF0102040810204080FF00B0
:1003100001171701153B0108140116000118000808
:100320000D000000000000000002090000020B00A8
:0803300000011900C101C10028
:1002AD00050CE50C7002050BC3940AE50B94004098
:1002BD0026D3E50C94F2E50B9403400575190280E5
:1002CD000F20000320B20630000D30B30A7519015E
:0802DD00E4F50BF50CC201224F
:10011F00200033E51614601614601914601C146067
:10012F001F240460030201D87516010201D8E4F5FB
:10013F00160201D87516030201D87516040201D8EC
:06014F007516020201D842
:10015500E50D75F00AA4250EF51AE51075F00AA44B
:100165002511F51BE51375F00AA42514F51CE516F4
:1001750024FD602514604024027058051AE51A759F
:10018500F0188485F01AE51A75F00A84F50DE51A5C
:1001950075F00A8485F00E803A051BE51B75F03C69
:1001A5008485F01BE51B75F00A84F510E51B75F0D9
:1001B5000A8485F011801C051CE51C75F03C8485BE
:1001C500F01CE51C75F00A84F513E51C75F00A842E
:0301D50085F0149E
:0401D800E4F519220F
:10026800200031E51624FE24FD500924047032755F
:100278001602802DE50D75F00AA4250EF517E51078
:1002880075F00AA42511F515E51375F00AA42514CF
:10029800F508800AE51624FE24FD50028003E4F5E3
:0502A80016E4F5192227
:030003000203C134
:0803C100200104D201C2003248
:030013000203C91C
:0803C900200104D201D2003230
:100339000508E508B43C05E4F5080515E515B43CE0
:0F03490005E4F5150517E517B41803E4F51722B9
:1002E500AE18EFA806088002C313D8FCFF53070118
:1002F500BF010B740D2518F8E6FFAD188004AD1885
:0B0305007F1112039105185318072206
:03000B00020016DA
:10001600C0E0C0F0C083C082C0D075D000C000C0B0
:1000260001C002C003C004C005C006C007050AE53A
:100036000A70020509758CFC758A18E50AB4E80E83
:10004600E509B40309750900750A00120339300180
:10005600031202ADE519600BB4010512011F8003FE
:10006600120268E51614604B146059146069146036
:100076007924046003020104E51775F00A84F50D7E
:10008600E51775F00A8485F00E750F10E51575F005
:100096000A84F510E51575F00A8485F011751210BD
:1000A600E50875F00A84F513E50875F00A8485F00D
:1000B60014801CC3E50A94F4E50994015002800FEC
:1000C600E4FF8037C3E50A94F4E509940150047F00
:1000D600FF80287FFC8024C3E50A94F4E509940197
:1000E60050047FFF80157FE78011C3E50A94F4E58D
:1000F60009940150047FFF80027F3F1202E5D0077A
:10010600D006D005D004D003D002D001D000D0D084
:09011600D082D083D0F0D0E03299
:10035800E4F516D2AFD288D2A8D28AD2AAD2B97579
:0D0368008901D2A9D28C758CFC758A1822EF
:0500060012035880FE0A
:1003AC00E4FEEF3392A0C2A1D2A1C2A1EF25E0FFDF
:0403BC000EBE08EE7B
:0103C000221A
:10039100AC07ED90038793FF1203ACEC90037593C8
:0B03A100FF1203ACC2A2D2A2C2A22233
:030000000201DC1E
:0C01DC00787FE4F6D8FD75812002022334
:1001E800020006E493A3F8E493A34003F68001F227
:1001F80008DFF48029E493A3F85407240CC8C33318
:10020800C4540F4420C8834004F456800146F6DFE6
:10021800E4800B0102040810204080900310E47E63
:10022800019360BCA3FF543F30E509541FFEE493DB
:10023800A360010ECF54C025E060A840B8E493A3A2
:10024800FAE493A3F8E493A3C8C582C8CAC583CACD
:10025800F0A3C8C582C8CAC583CADFE9DEE780BE85
:0103380000C4
:00000001FF
