:10014E00C0F9A4B0999282F880908883C6A1868E59
:0C015E00BFFF0102040810204080FF00D9
:1001850001141701133B010814011500080B0000A9
:0A0195000000000000000209000055
:10012F000508E508B43C05E4F5080513E513B43CF0
:0F013F0005E4F5130514E514B41803E4F51422D0
:1001B500740B2515F8E6FFAD1512016A05155315E3
:0201C50007220F
:03000B0002000EE2
:10000E00C0E0C0F0C083C082C0D075D000C000C0B8
:10001E0001C002C003C004C005C006C007050AE542
:10002E000A70020509758CFC758A18E50AB4E80E8B
:10003E00E509B40309750900750A0012012FE514CC
:10004E0075F00A84F50BE51475F00A8485F00C75CD
:10005E000D10E51375F00A84F50EE51375F00A849C
:10006E0085F00F751010E50875F00A84F511E50896
:10007E0075F00A8485F0121201B5D007D006D005AE
:10008E00D004D003D002D001D000D0D0D082D08303
:05009E00D0F0D0E032BB
:1001C700D2AF758901D2A9D28C758CFC758A182299
:050003001201C780FEA0
:1001A000E4FEEF3392A0C2A1D2A1C2A1EF25E0FFED
:0401B0000EBE08EE89
:0101B4002228
:10016A00AC07ED90016093FF1201A0EC90014E9351
:0B017A00FF1201A0C2A2D2A2C2A2226A
:030000000200A358
:0C00A300787FE4F6D8FD7581150200EAB4
:1000AF00020003E493A3F8E493A34003F68001F264
:1000BF0008DFF48029E493A3F85407240CC8C33352
:1000CF00C4540F4420C8834004F456800146F6DF21
:1000DF00E4800B0102040810204080900185E47E2B
:1000EF00019360BCA3FF543F30E509541FFEE49316
:1000FF00A360010ECF54C025E060A840B8E493A3DD
:10010F00FAE493A3F8E493A3C8C582C8CAC583CA07
:10011F00F0A3C8C582C8CAC583CADFE9DEE780BEBF
:01019F00005F
:00000001FF
