:10041800C0F9A4B0999282F880908883C6A1868E8C
:0C042800BFFF0102040810204080FF000C
:10037F0001181701153B0108370117000119000873
:10038F000D000000000000000002090000C1800203
:0D039F000B0000011A00C102C1010116008F
:10034700050CE50C7002050BC3940AE50B940040FD
:1003570026D3E50C94F2E50B94034005751A028049
:100367000F20010320B20630010D30B30A751A01C0
:08037700E4F50BF50CC20222B3
:10015E00200133E51714601614601914601C146026
:10016E001F24046003020217751701020217E4F53B
:10017E0017020217751703020217751704020217EA
:06018E00751702020217C2
:10019400E50D75F00AA4250EF51BE51075F00AA40B
:1001A4002511F51CE51375F00AA42514F51DE517B2
:1001B40024FD602514604024027058051BE51B755E
:1001C400F0188485F01BE51B75F00A84F50DE51B1A
:1001D40075F00A8485F00E803A051CE51C75F03C28
:1001E4008485F01CE51C75F00A84F510E51C75F097
:1001F4000A8485F011801C051DE51D75F03C84857D
:10020400F01DE51D75F00A84F513E51D75F00A84EB
:0302140085F0145E
:04021700E4F51A22CE
:1002FC00200131E51724FE24FD50092404703875C3
:10030C0017028033E50D75F00AA4250EF518E510DB
:10031C0075F00AA42511F515E51375F00AA425143A
:10032C00F5088010E51724FE24FD500824057007FD
:0B033C00B2008003E4F517E4F51A227C
:0300030002046490
:08046400200204D202C20132A1
:0300130002046C78
:08046C00200204D202D2013289
:1003F9000508E508B43C05E4F5080515E515B43C20
:0F04090005E4F5150518E518B41803E4F51822F5
:1003AD00AE19EFA806088002C313D8FCFF5307014E
:1003BD00BF010B740D2519F8E6FFAD198004AD19B9
:0B03CD007F1112043405195319072298
:03000B00020016DA
:10001600C0E0C0F0C083C082C0D075D000C000C0B0
:1000260001C002C003C004C005C006C007050AE53A
:100036000A70020509758CFC758A18E50AB4E80E83
:10004600E509B40309750900750A001203F93002BF
:1000560003120347E51AB4010512015E8008E51A8A
:10006600B402031202FCE5177038300035E516704D
:100076000BE5157007E5087003751608E51660228E
:10008600D3E50A94F4E50994014004B2A38002C2C0
:10009600A3AE09AF0A7C017DF41202A7ED4C7002F3
:1000A6001516E51714604B146059146069146079CD
:1000B60024046003020143E51875F00A84F50DE592
:1000C6001875F00A8485F00E750F10E51575F00A9F
:1000D60084F510E51575F00A8485F011751210E5A2
:1000E6000875F00A84F513E50875F00A8485F0149E
:1000F600801CC3E50A94F4E50994015002800FE4DC
:10010600FF8037C3E50A94F4E509940150047FFFA4
:1001160080287FFC8024C3E50A94F4E50994015005
:10012600047FFF80157FE78011C3E50A94F4E50993
:10013600940150047FFF80027F3F1203ADD007D0A9
:1001460006D005D004D003D002D001D000D0D0D044
:0801560082D083D0F0D0E0322A
:1003D800E4F517D200C2A3D2AFD288D2A8D28AD26B
:1003E800AAD2B9758901D2A9D28C758CFC758A18E4
:0103F80022E2
:050006001203D880FE8A
:10044F00E4FEEF3392A0C2A1D2A1C2A1EF25E0FF3B
:04045F000EBE08EED7
:010463002276
:10043400AC07ED90042A93FF12044FEC9004189338
:0B044400FF12044FC2A2D2A2C2A222EB
:0300000002021BDE
:0C021B00787FE4F6D8FD758120020262B5
:1002A700BC000BBE0029EF8DF084FFADF022E4CC3B
:1002B700F875F008EF2FFFEE33FEEC33FCEE9DEC04
:1002C700984005FCEE9DFE0FD5F0E9E4CEFD22ED4A
:1002D700F8F5F0EE8420D21CFEADF075F008EF2F94
:1002E700FFED33FD4007985006D5F0F222C398FD85
:0502F7000FD5F0EA2222
:10022700020006E493A3F8E493A34003F68001F2E7
:1002370008DFF48029E493A3F85407240CC8C333D8
:10024700C4540F4420C8834004F456800146F6DFA7
:10025700E4800B010204081020408090037FE47EB5
:10026700019360BCA3FF543F30E509541FFEE4939C
:10027700A360010ECF54C025E060A840B8E493A363
:10028700FAE493A3F8E493A3C8C582C8CAC583CA8E
:10029700F0A3C8C582C8CAC583CADFE9DEE780BE46
:0103AC000050
:00000001FF
