:101A2E00D5FBB5E3B1A8CAB1202000BFAA00B9D832
:101A3E0000C8D5D2BBB6FE00CBC4CEE5C1F9D7DC0B
:101A4E0000D6DCC8D500D6DCD2BB00D6DCB6FE0094
:101A5E00D6DC00D6DCCBC400D6DCCEE500D6DCC1AD
:0E1A6E00F9001F1C1F1E1F1E1F1F1E1F1E1F04
:1018310041000900410002004100003A4200050751
:10184100E7410003094100081341000D00012B008D
:1018510001240101747BC180C101C103C1020225C0
:1018610000000175001130202020202020202020A0
:101871002020202020202000114120202020202075
:101881002020202020202020202000115220202054
:101891002020202020202020202020202000116333
:1018A1002020202020202020202020202020202037
:1018B1000001290001230002270000012E00012F51
:1018C10000022C000041000B004100070141000112
:1018D1007B41000C0041000A004100043A012A004A
:0418E10002210000E0
:0500060012177980FED5
:10177900121C31E4FF121BA5900009EFF07F011242
:101789001BA5900002EFF07F02121BA5900000EF4D
:10179900F0E4900005F0A3F07F04121BA590000669
:1017A900E02FF0900005E03400F07F03121BA5EF55
:1017B900FE900006E02400F0900005E03EF07F0571
:1017C900121BA5900003EFF07F06121BA5900008DD
:1017D900EFF07F07121BA58F2B7F08121BA58F2403
:1017E9007F09121BA58F747F0A121BA5EF6003D313
:1017F9008001C392007F0B121BA5EF6003D3800108
:10180900C392011215FEE4FFFE120EF5C2A2D2AF79
:10181900D288D2A8D28AD2AAD2B9758901D2A9D23C
:081829008C758CD8758AF02241
:100EF500E4F5138F2AE52A24F9700302106E24FD08
:100F050070030210F5240A600302122C7B007A009C
:100F15007930121B81121B7B7B007A007963121BCF
:100F250081900009E0FF75F00A842430F534EF75EF
:100F3500F00A84E5F02430F53575363A900002E084
:100F4500FF75F00A842430F537EF75F00A84E5F073
:100F55002430F53875393A900000E0FF75F00A84C1
:100F65002430F53AEF75F00A84E5F02430F53B902E
:100F75000005E0FAA3E0FB7C037DE8FFAE02121456
:100F85008AEF2430F5447C007D64AF03AE02121471
:100F95008A7C007D0A12148AED2430F545900005FF
:100FA500A3E07C007D0AFFAE0212148A7C007D0A54
:100FB50012148AED2430F5467C007D0AAF03AE029B
:100FC50012148AED2430F54775482D900003E0FF93
:100FD50075F00A842430F549EF75F00A84E5F024AC
:100FE50030F54A754B2D900008E0FF75F00A842412
:100FF50030F54CEF75F00A84E5F02430F54D7517A2
:10100500FF75181A75192E751A00751B0A7B007A5B
:101015000079651219DC30010B7517FF75181A7503
:10102500193980097517FF75181A75193C751A0055
:10103500751B027B007A00796F1219DC7B007A0040
:1010450079307518107F80121AB47B007A007941C7
:101055007518107F90121AB47B007A0079637518A1
:10106500107F98121AB40215FEE4F52CF52DFB7AC3
:10107500007930121B81121B7B7B007A007952129A
:101085001B817B007A007963121B81E4F52FF52E15
:10109500F527F528E52F75F00A842430F534E52F7A
:1010A50075F00A84E5F02430F53575363AE52E7588
:1010B500F00A842430F537E52E75F00A84E5F0242E
:1010C50030F53875393AAE27AF287C007D641214A7
:1010D5008AEF2430F53AAE27AF287C007D0A12143A
:1010E5008A7C007D0A12148AED2430F53B0211F446
:1010F5007B007A007930121B81121B7B7B007A0002
:101105007952121B817B007A007963121B81900052
:101115000BE52BF0900007E524F0900001E574F055
:10112500E52B75F00A842430F535E52B75F00A8436
:10113500E5F02430F53675373AE52475F00A842450
:1011450030F538E52475F00A84E5F02430F539E406
:10115500F51374017E00A813088005C333CE33CE82
:10116500D8F9FFEF55746017E51375F002A4245202
:10117500F9E4FAFB7517FF75181A7519398015E525
:101185001375F002A42452F9E4FAFB7517FF7518DC
:101195001A75193CF51A751B021219DC0513E513AE
:1011A500C3940740AD30000B7517FF75181A7519F4
:1011B5003980097517FF75181A75193C751A007568
:1011C5001B027B007A0079601219DC78637C007D54
:1011D500007BFF7A1A793F1215E17569C8756AFDBA
:1011E500786B7C007D007BFF7A1A79461215E17BCE
:1011F500007A0079307518107F80121AB47B007A56
:101205000079417518107F90121AB47B007A007925
:10121500527518107F88121AB47B007A00796375AD
:0712250018107F98121AB4A3
:01122C00229F
:101A7C000526E52670020525C39401E52594004052
:101A8C0026D3E5269465E5259400400575750280FE
:101A9C000F20020320B20630020D30B30A75750117
:081AAC00E4F525F526C2032232
:1007B300300203020CFDE52AB414004003020EF1DB
:1007C3009007CAF8282873020806020ACA020B2AED
:1007D300020B49020A6D020A8C020AAB02080B02E1
:1007E3000810020810020A67020B68020B87020B4B
:1007F300A6020BD7020C08020C39020C6A020C9BEE
:10080300020CCC7F07020A877F0A020A87052DE5BF
:100813002D7002052CAE2CFF7C007D0312148AED93
:1008230064014C60030208E0FB121B7DAE2CAF2D6C
:100833007C037DE812148A7E007F64CFCDCFCECCBB
:10084300CE12148AEF2430F541AE2CAF2D7C007DFF
:100853006412148A7E007F0ACFCDCFCECCCE121481
:100863008AEF2430F542AE2CAF2D7C007D0A1214A2
:100873008AED2430F543E52F75F00A842430F545DD
:10088300E52F75F00A84E5F02430F54675473AE51F
:100893002E75F00A842430F548E52E75F00A84E5B8
:1008A300F02430F549754A3AAE27AF287C007D64C1
:1008B30012148AEF2430F54BAE27AF287C007D0A53
:1008C30012148A7C007D0A12148AED2430F54C7BC5
:1008D300007A0079417518107F90020E93AE2CAF09
:1008E3002D7C007D0312148AED64024C600302091F
:1008F300ADFB7A007952121B81AE2CAF2D7C037DA8
:10090300E812148A7E007F64CFCDCFCECCCE1214F2
:100913008AEF2430F552AE2CAF2D7C007D64121487
:100923008A7E007F0ACFCDCFCECCCE12148AEF249D
:1009330030F553AE2CAF2D7C007D0A12148AED24C2
:1009430030F554E52F75F00A842430F556E52F75FC
:10095300F00A84E5F02430F55775583AE52E75F022
:100963000A842430F559E52E75F00A84E5F0243025
:10097300F55A755B3AAE27AF287C007D6412148A62
:10098300EF2430F55CAE27AF287C007D0A12148A71
:100993007C007D0A12148AED2430F55D7B007A0019
:1009A30079527518107F88020E937B007A00796361
:1009B300121B81AE2CAF2D7C037DE812148A7E00BE
:1009C3007F64CFCDCFCECCCE12148AEF2430F56323
:1009D300AE2CAF2D7C007D6412148A7E007F0ACF7B
:1009E300CDCFCECCCE12148AEF2430F564AE2CAF2B
:1009F3002D7C007D0A12148AED2430F565E52F75F0
:100A0300F00A842430F567E52F75F00A84E5F024B5
:100A130030F56875693AE52E75F00A842430F56A75
:100A2300E52E75F00A84E5F02430F56B756C3AAE6B
:100A330027AF287C007D6412148AEF2430F56DAE55
:100A430027AF287C007D0A12148A7C007D0A1214C9
:100A53008AED2430F56E7B007A0079637518107F78
:100A630098020E93E4FFFE020E4C90000CE0FF751B
:100A7300F00A842430F534EF75F00A84E5F024306D
:100A8300F5357F057E00020E4C90000AE0FF75F0FD
:100A93000A842430F537EF75F00A84E5F02430F545
:100AA300387F067E00020E4C900004E0FF75F00ACA
:100AB300842430F53AEF75F00A84E5F02430F53BF1
:100AC3007F047E00020E4C900005E0FAA3E0FB7C5D
:100AD300037DE8FFAE0212148AEF2430F5447C0054
:100AE3007D64AF03AE0212148A7C007D0A12148A5D
:100AF300ED2430F545900005A3E07C007D0AFFAEB0
:100B03000212148A7C007D0A12148AED2430F54601
:100B13007C007D0AAF03AE0212148AED2430F54740
:100B23007F027E00020E4C900003E0FF75F00A8402
:100B33002430F549EF75F00A84E5F02430F54A7F57
:100B4300037E00020E4C900008E0FF75F00A842437
:100B530030F54CEF75F00A84E5F02430F54D7F0154
:100B63007E00020E4C90000BE0FF75F00A842430E7
:100B7300F535EF75F00A84E5F02430F5367F0C7E09
:100B830000020E4C900007E0FF75F00A842430F554
:100B930038EF75F00A84E5F02430F5397F0D7E00D7
:100BA300020E4C900001E030E00B7517FF75181A28
:100BB30075193980097517FF75181A75193C751A57
:100BC30000751B027B007A0079521219DC7F0E7EBE
:100BD30000020E4C900001E030E10B7517FF751811
:100BE3001A75193980097517FF75181A75193C7527
:100BF3001A00751B027B007A0079541219DC7F0FEF
:100C03007E00020E4C900001E030E20B7517FF7579
:100C1300181A75193980097517FF75181A75193C53
:100C2300751A00751B027B007A0079561219DC7F56
:100C3300107E00020E4C900001E030E30B7517FFAD
:100C430075181A75193980097517FF75181A7519EA
:100C53003C751A00751B027B007A0079581219DC67
:100C63007F117E00020E4C900001E030E40B7517FB
:100C7300FF75181A75193980097517FF75181A75D4
:100C8300193C751A00751B027B007A00795A1219F8
:100C9300DC7F127E00020E4C900001E030E50B7504
:100CA30017FF75181A75193980097517FF75181A02
:100CB30075193C751A00751B027B007A00795C126A
:100CC30019DC7F137E00020E4C900001E030E60B2E
:100CD3007517FF75181A75193980097517FF751877
:100CE3001A75193C751A00751B027B007A00795E30
:100CF3001219DC7F0B7E00020E4CE52AB41400406F
:100D030003020EF1900D0EF8282873020D4A020D0E
:100D1300A6020DCC020DDA020E2D020E32020E37A0
:100D2300020E3C020E42020E48020E52020E9802BE
:100D33000EA4020EB4020EBD020EC6020ECF020EA8
:100D4300D8020EE1020EEAB2017517FF75181A7583
:100D5300192E751A00751B0A7B007A007965121922
:100D6300DC3001127D017F0B121BF27517FF751822
:100D73001A7519398010E4FD7F0B121BF27517FFEA
:100D830075181A75193C751A00751B027B007A00D9
:100D9300796F1219DC7B007A0079637518107F98DC
:100DA300020E93900006E004F07006900005E00444
:100DB300F0900005E0FEA3E0FF7C277D1012148A6B
:100DC300900005ECF0A3ED800B900003E075F00CB0
:100DD30084E5F004F0804D900005E0FEA3E0FF54AD
:100DE30003700AFC7D6412148AED4C7013900005A5
:100DF300E0FEA3E0FF7C017D9012148AED4C70109D
:100E0300900003E0B40209900008E075F01D800F24
:100E1300900003E0901A6F93FF900008E08FF08436
:100E2300E5F004F01215FE020EF190000C806990BB
:100E3300000A8070900004806B7F087E00800A7F28
:100E4300097E0080047F087E00120EF5020EF1B2C7
:100E5300003000127D017F0A121BF27517FF75180F
:100E63001A7519398010E4FD7F0A121BF27517FFFA
:100E730075181A75193C751A00751B027B007A00E8
:100E830079601219DC7B007A0079527518107F881B
:100E9300121AB4805990000BE004F0E075F018804A
:100EA3000A900007E004F0E075F03C84E5F0F08080
:100EB3003D900001E06401F08034900001E06402A1
:100EC300F0802B900001E06404F08022900001E0A8
:100ED3006408F08019900001E06410F08010900025
:100EE30001E06420F08007900001E06440F0E4F545
:020EF300752266
:10122D00300203021331E52AB414004003021439CD
:10123D00901244F828287302128002129D02129D0A
:10124D0002129D0212CC0212CC0212CC02143902EF
:10125D0014390214390212FF021305021305021389
:10126D0005021305021305021305021305021305EA
:10127D00021305900009E090000CF0900002E09040
:10128D00000AF0900000E0900004F07F0402141CAE
:10129D001219725003021439900006E0FD7F0412FA
:1012AD001BF2900005E0FD7F03121BF2900003E09E
:1012BD00FD7F05121BF2900008E0FD7F06802D904A
:1012CD00000CE0900009F0FDA3E0900002F090000A
:1012DD0004E0900000F0E4FF121BF2900002E0FD2C
:1012ED007F01121BF2900000E0FD7F02121BF20243
:1012FD001383752A0B02143990000BE0F52B900027
:10130D0007E0F524900001E0F574AD2B7F07121B6B
:10131D00F2AD247F08121BF2AD747F09121BF27F10
:10132D000A02141CE52AB414004003021439901368
:10133D0042F828287302137E0213890213AC02139C
:10134D00BE0213830213830213830214390214396C
:10135D0002141A021439021420021420021420025D
:10136D00142002142002142002142002142002144E
:10137D00207F0102141CE4FFFE021436900006E0EB
:10138D0024FFF0900005E034FFF0E0FEA3E0FF7CC9
:10139D00277D1012148A900005ECF0A3ED800F90BC
:1013AD000003E0240AF0E075F00C84E5F004F08011
:1013BD0057900005E0FEA3E0FF5403700AFC7D6426
:1013CD0012148AED4C7013900005E0FEA3E0FF7C33
:1013DD00017D9012148AED4C7014900003E0B4025C
:1013ED000D900008E0241BF0E075F01D80159000B5
:1013FD0003E0901A6F93FF24FEFE900008E02EF09C
:10140D00E08FF084E5F004F01215FE801F7F077E5B
:10141D0000801690000BE52BF0900007E524F0906E
:10142D000001E574F07F0A7E00120EF5E4F57522D9
:101B1C00900000E004F0E0D3943B4008E4F0900027
:101B2C0002E004F0900002E0D3943B4008E4F09013
:101B3C000009E004F0900009E0D394174002E4F0AF
:011B4C002276
:101B4D00900008E004F01219725022900008740100
:101B5D00F0900003E004F0E0940C40117401F0905B
:0E1B6D000006E004F07006900005E004F0228F
:1015FE00900003E0FBD39402900005E0FEA3E0FF11
:10160E007C007D64400912148AAE04AF05800B1273
:10161E00148AED24FFFFEC34FFFEEF7802CEC313E5
:10162E00CE13D8F9FAEBD39402900005E0FEA3E0B6
:10163E00FF7C007D64400712148AAF0580071214E8
:10164E008AED24FFFFEF2AFB900005E0FEA3E0FFEA
:10165E007C007D6412148AAC06AD07ED7802CEC311
:10166E0013CE13D8F92BFFED25E0FEC3EF9EFB90B2
:10167E000003E0FFD3940240028007900003E024B1
:10168E000CFFEF2401FFE433FE7C007D1A12147868
:10169E007D0A12148AEB2FFF900008E02F149000A1
:1016AE000DF090000DE0FFC394005006E02407F00B
:1016BE0080F0EF75F0078490000DE5F0F07B007A76
:1016CE00007952121B8190000DE0B4070040030216
:1016DE00176B9016E7F82828730216FC02170702FC
:1016EE00171202171D02173D0217480217537517DE
:1016FE00FF75181A75194F80557517FF75181A75DD
:10170E001954804A7517FF75181A751959803F7547
:10171E0017FF75181A75195E751A00751B027B0076
:10172E007A0079581219DC755AC8755BFD802E75D2
:10173E0017FF75181A75196180147517FF75181A29
:10174E0075196680097517FF75181A75196B751A54
:10175E0000751B047B007A0079581219DC7B007A25
:0B176E000079527518107F88021AB431
:10197200900005E0FEA3E0FF900003E0FD90000868
:02198200E0FB88
:10198400AA058F828E83EAD3940C5006EAC394018D
:101994005002D322EBC39401500122E58254037018
:1019A4000EFC7D64AF82AE8312148AED4C700FAED0
:1019B40083AF827C017D9012148AED4C700BBA02C5
:1019C40008EBD3941D400FD322EA901A6F93FFEBD8
:0819D400D39F4002D322C3227D
:061B7B007B007A007941B5
:061B81008B148A15891681
:101B8700121C69E4FEEEC39F5013AB14AA15A916E5
:0D1B97008E8275830074201214560E80E8B3
:011BA400221E
:03000300021CAF2D
:081CAF00200304D203C202323B
:03001300021CB715
:081CB700200304D203D2023223
:03000B00020016DA
:10001600C0E0C0F0C083C082C0D075D000C000C0B0
:1000260001C002C003C004C005C006C0070522E522
:100036002270020521758CD8758AF0E52264644524
:100046002160030201CAF521F522121B1C9000094A
:10005600E0FDE4FF121BF2900002E0FD7F01121B9F
:10006600F2900000E0FD7F02121BF2E52A7064FBAD
:100076007A007930121B81900009E0FF75F00A843E
:100086002430F534EF75F00A84E5F02430F5357543
:10009600363A900002E0FF75F00A842430F537EF17
:1000A60075F00A84E5F02430F53875393A90000089
:1000B600E0FF75F00A842430F53AEF75F00A84E51E
:1000C600F02430F53B7B007A0079307518107F807C
:1000D600121AB4900009E060030201CA900002E01F
:1000E60060030201CA900000E060030201CA121B0D
:1000F6004D1215FE900006E0FD7F04121BF29000E3
:1001060005E0FD7F03121BF2900003E0FD7F051260
:100116001BF2900008E0FD7F06121BF2E52A600341
:100126000201CAFB121B7D900005E0FAA3E0FB7CEE
:10013600037DE8FFAE0212148AEF2430F5447C00FA
:100146007D64AF03AE0212148A7C007D0A12148A03
:10015600ED2430F545900005A3E07C007D0AFFAE56
:100166000212148A7C007D0A12148AED2430F546A8
:100176007C007D0AAF03AE0212148AED2430F547E7
:1001860075482D900003E0FF75F00A842430F54988
:10019600EF75F00A84E5F02430F54A754B2D900092
:1001A60008E0FF75F00A842430F54CEF75F00A84F8
:1001B600E5F02430F54D7B007A0079417518107F03
:1001C60090121AB4300303121A7CE575B4010512B5
:1001D60007B38008E575B4020312122DE52A600301
:1001E600020275200003020275900009E0652B707B
:1001F60038900002E0B52431900000E0702B9000AA
:100206000DE0FF74017E00A807088005C333CE33D6
:10021600CED8F9FFEF5574D39400748094804009CA
:10022600E5224521700375230CE5236042C3E4955E
:1002360022E49521500BC3E5229419E52194004050
:1002460015C374329522E49521500FC3E522944BD1
:10025600E52194005004B2A28002C2A2AE21AF22D0
:100266007C007D1912148AED4C70041523C2A2E598
:100276002A704F30014C900002E0FF70459000005C
:10028600E0FEC39403503BE529700FEF700CEE704F
:1002960009E52245217003752908E5296024D3E57F
:1002A600229432E52194004004B2A28002C2A2AE9A
:1002B60021AF227C007D3212148AED4C7004152980
:1002C600C2A2E52A14B4130040030207989002E183
:1002D60075F003A4C58325F0C583730203A5020444
:1002E6001902044602031A02034902037702079819
:1002F60002047F02079802079802051A02055302B4
:10030600058C0205D702062202066D0206B8020710
:100316000302074DC3E5229432E5219400501B9059
:10032600000CE0FF75F00A842430F534EF75F00A0E
:1003360084E5F02430F53502054575342075352001
:10034600020545C3E5229432E5219400501A900037
:100356000AE0FF75F00A842430F537EF75F00A8459
:10036600E5F02430F538800675372075382002050B
:1003760045C3E5229432E5219400501A900004E02A
:10038600FF75F00A842430F53AEF75F00A84E5F03B
:100396002430F53B8006753A20753B20020545C39F
:1003A600E5229432E5219400505B900005E0FAA323
:1003B600E0FB7C037DE8FFAE0212148AEF2430F5E1
:1003C600447C007D64AF03AE0212148A7C007D0A71
:1003D60012148AED2430F545900005A3E07C007DDB
:1003E6000AFFAE0212148A7C007D0A12148AED24DA
:1003F60030F5467C007D0AAF03AE0212148AED2466
:1004060030F547806675442075452075462075474A
:10041600208058C3E5229432E5219400501A9000BA
:1004260003E0FF75F00A842430F549EF75F00A847D
:10043600E5F02430F54A8006754920754A20802B60
:10044600C3E5229432E5219400501A900008E0FF9B
:1004560075F00A842430F54CEF75F00A84E5F02433
:1004660030F54D8006754C20754D207B007A00795D
:10047600417518107F90020795740A2528F528E41F
:100486003527F527D3E52894E7E527940340087533
:100496002700752800052EE52ED3943B4005752EC2
:1004A60000052FE52FD3943B4003752F00E52F75EC
:1004B600F00A842430F534E52F75F00A84E5F0243B
:1004C60030F53575363AE52E75F00A842430F53761
:1004D600E52E75F00A84E5F02430F53875393AAE24
:1004E60027AF287C007D6412148AEF2430F53AAEDB
:1004F60027AF287C007D0A12148A7C007D0A12141C
:100506008AED2430F53B7B007A0079307518107F30
:1005160080020795C3E5229432E5219400501A9093
:10052600000BE0FF75F00A842430F535EF75F00A0C
:1005360084E5F02430F53680067535207536207B47
:10054600007A0079307518107F80020795C3E5227E
:100556009432E5219400501A900007E0FF75F00AE6
:10056600842430F538EF75F00A84E5F02430F53947
:1005760080067538207539207B007A007930751829
:10058600107F80020795C3E5229432E5219400503E
:100596002C900001E030E00B7517FF75181A7519DD
:1005A6003980097517FF75181A75193C751A007583
:1005B6001B027B007A0079521219DC8006755220E4
:1005C6007553207B007A0079527518107F880207D0
:1005D60095C3E5229432E5219400502C900001E069
:1005E60030E10B7517FF75181A75193980097517DB
:1005F600FF75181A75193C751A00751B027B007A6F
:100606000079541219DC80067554207555207B003C
:100616007A0079527518107F88020795C3E52294EF
:1006260032E5219400502C900001E030E20B751762
:10063600FF75181A75193980097517FF75181A7517
:10064600193C751A00751B027B007A00795612193F
:10065600DC80067556207557207B007A0079527526
:1006660018107F88020795C3E5229432E52194008D
:10067600502C900001E030E30B7517FF75181A75C2
:10068600193980097517FF75181A75193C751A00FE
:10069600751B027B007A0079581219DC80067558A2
:1006A600207559207B007A0079527518107F8802D0
:1006B6000795C3E5229432E5219400502C90000161
:1006C600E030E40B7517FF75181A7519398009752E
:1006D60017FF75181A75193C751A00751B027B00F1
:1006E6007A00795A1219DC8006755A20755B207BD0
:1006F600007A0079527518107F88020795C3E522A3
:100706009432E5219400502C900001E030E50B7501
:1007160017FF75181A75193980097517FF75181A94
:1007260075193C751A00751B027B007A00795C12FC
:1007360019DC8006755C20755D207B007A00795295
:100746007518107F888048C3E5229432E52194000D
:10075600502C900001E030E60B7517FF75181A75DE
:10076600193980097517FF75181A75193C751A001D
:10077600751B027B007A00795E1219DC8006755EB5
:1007860020755F207B007A0079527518107F8812D9
:100796001AB4D007D006D005D004D003D002D001B9
:0D07A600D000D0D0D082D083D0F0D0E0328F
:101C4F008F1A121C7EC2B5A20592B4D2B6851A9015
:0A1C5F007F057E00121C90C2B62221
:101C3100D2B7C2057F30121C4FC2057F0C121C4F58
:0E1C4100C2057F01121C4FC2057F06021C4F18
:101C7E007FFAC2B4D2B5D2B6E59030E702DFF9C230
:011C8E00B69F
:011C8F002232
:061AB4008B158A1689174C
:101ABA00C205121C4FE4F519E519C39518501EAB5F
:101ACA0015AA16A91712143DFFD205121C4F74014C
:0D1ADA002517F517E43516F516051980DB04
:011AE70022DC
:101C9000EEC313FEEF13FFEF1FAC0670011E4C7076
:021CA000F6222A
:0D1C12007F057E00121C1FD2A17F057E0001
:101C1F007C007D021214DFEF1FAC0670011E4C70AA
:021C2F00F6229B
:0D1CA200D2A0121C19C2A0121C1BC2A1224C
:081CBF00C2A0121C19D2A022E0
:021AE800AB074A
:101AEA00E4FA7513FFEB30E704D2A08002C2A0EB40
:101AFA0025E0FB121C12C2A1121C1B0ABA08E6D26C
:101B0A00A0121C1230A007C2A1121CBFC322C2A17C
:011B1A00D3F7
:011B1B0022A7
:101BCE00E4FBFAD2A07F05FE121C1F121C19EA2597
:101BDE00E0FA30A003430201C2A1121C1B0BBB088A
:031BEE00EAAF0259
:011BF10022D1
:101BF2008F08A905121CA27FA0121AE8AF08121AB8
:101C0200E8AF01121AE8121CBF7F887E13021C1F64
:021BA500A9078E
:101BA700121CA27FA0121AE8AF01121AE8121CA297
:101BB7007FA1121AE8121BCEAB07121CBF7F887ECB
:061BC70013121C1FAF0306
:011BCD0022F5
:030000000218E6FD
:0C18E600787FE4F6D8FD75817502192D9D
:10143D00BB010689828A83E0225002E722BBFE02AD
:09144D00E32289828A83E49322E0
:10145600F8BB010DE58229F582E5833AF583E8F0CC
:10146600225006E92582C8F622BBFE05E92582C878
:02147600F22260
:10147800EF8DF0A4A8F0CF8CF0A428CE8DF0A42E88
:02148800FE2242
:10148A00BC000BBE0029EF8DF084FFADF022E4CC46
:10149A00F875F008EF2FFFEE33FEEC33FCEE9DEC0F
:1014AA00984005FCEE9DFE0FD5F0E9E4CEFD22ED55
:1014BA00F8F5F0EE8420D21CFEADF075F008EF2F9F
:1014CA00FFED33FD4007985006D5F0F222C398FD90
:0514DA000FD5F0EA222D
:1014DF00C2D5EC30E709B2D5E4C39DFDE49CFCEE28
:1014EF0030E715B2D5E4C39FFFE49EFE12148AC302
:1014FF00E49DFDE49CFC800312148A30D507C3E4FD
:06150F009FFFE49EFE2296
:10151500E709F60870FA8046E709F20870FA803E96
:1015250088828C83E709F0A370FA807EE309F608C8
:1015350070FA8076E309F20870FA806E88828C83EF
:10154500E309F0A370FA806289828A83E0A3F60832
:1015550070FA805689828A83E0A3F20870FA804A7D
:1015650080D280FA80C680D4806580F28031801078
:1015750080A680EA809A80A880DA80E280CA8031DD
:1015850089828A83ECFAE493A3C8C582C8CCC58353
:10159500CCF0A3C8C582C8CCC583CC70E9800D89C1
:1015A500828A83E493A3F60870F9ECFAA9F0EDFBBF
:1015B5002289828A83ECFAE0A3C8C582C8CCC58398
:1015C500CCF0A3C8C582C8CCC583CC70EA80DD89C0
:1015D500828A83E493A3F20870F980CE88F0ED2423
:1015E50002B4040050C4F582EB2402B4040050BADE
:0915F50023234582239015657340
:1019DC008B148A158916E4F51CF51DE51B151BAE39
:1019EC001A7002151A4E6033AB17AA18A9191214E3
:1019FC003DFFAB14AA15A916051DE51DAC1C700204
:101A0C00051C14F5828C83EF121456EF60CD740113
:101A1C002519F519E43518F51880C0AB14AA15A9C9
:021A2C00162280
:101C6900E4FFFE12143D600C0FEF70010E09E970DC
:051C7900F20A80EF22D9
:1018F200020006E493A3F8E493A34003F68001F206
:1019020008DFF48029E493A3F85407240CC8C333F6
:10191200C4540F4420C8834004F456800146F6DFC5
:10192200E4800B0102040810204080901831E47E0C
:10193200019360BCA3FF543F30E509541FFEE493BA
:10194200A360010ECF54C025E060A840B8E493A381
:10195200FAE493A3F8E493A3C8C582C8CAC583CAAC
:10196200F0A3C8C582C8CAC583CADFE9DEE780BE64
:0118E5000002
:00000001FF
