:1011D300C0F9A4B0999282F880908883C6A1868EC4
:1011E300BFFF1F1C1F1E1F1E1F1F1E1F1E1F0102CE
:0811F300040810204080FF00F9
:10111F00013B1701323B01213A023807E401360245
:10112F00013A1C013D0501371701253B013500012F
:10113F003F000828000000000000000001340002FA
:10114F00220000C101C10002260000014000C103BE
:10115F00C10201330001240002300000013C0001F4
:02116F003E0040
:101172000527E52770020526C3940AE52694004058
:1011820026D3E52794F2E5269403400575400280B4
:101192000F20020320B20630020D30B30A7540015F
:0811A200E4F526F527C2032243
:1010C100AA058F828E83EAD3940C5049EAC3940116
:1010D10050028041EBC3940150028039E5825403F0
:1010E100700EFC7D64AF82AE8312100DED4C700F5B
:1010F100AE83AF827C017D9012100DED4C700BBA66
:101101000208EBD3941D4012800BEA9011E493FF87
:0E111100EBD39F40057E007F0122E4FEFF220B
:100AF00020027AE535B40E004003020F6B900B0420
:100B0000F8282873020B2E020F6B020B4F020B55B5
:100B1000020B5B020B3D020B43020B49020B34023A
:100B20000F6B020F6B020B3A020B61020B677535FC
:100B300008020F6B75350B020F6B020C147535062E
:100B4000020F6B753507020F6B753505020F6B755C
:100B50003503020F6B753504020F6B753502020FFA
:0D0B60006B75350D020F6B75350C020F6BB8
:100B6D00E52875F00AA42529F508E52B75F00AA4EA
:100B7D00252CFBF509E52E75F00AA4F9252FFAF5BC
:100B8D000AAF287E007C037DE8120FFBAC06AD0793
:100B9D00E52975F064A42DFDEC35F0FCE52A75F022
:100BAD000AA42DFFE5F03CFE7C00EF252BF50CECA7
:100BBD003EF50BE52C75F00AA4252DF50D8A0E8B4F
:100BCD000FE52F29F510E535B40E004003020F6B2C
:100BDD00900BE4F8282873020C0E020C14020C1A68
:100BED00020D0B020DBD020ED5020EF3020F0A020D
:100BFD000F21020F23020F28020F2D020F31020FBA
:100C0D004F753501020F6BE4F535020F6B050CE5E1
:100C1D000C7002050BAE0BFF7C277D1012100D8C96
:100C2D000B8D0CAE0BAF0C7C037DE812100D8F28D5
:100C3D00AE0BAF0C7C007D6412100D7C007D0A1292
:100C4D00100D8D29AE0BAF0C7C007D0A12100D7CA2
:100C5D00007D0A12100D8D2AAE0BAF0C7C007D0AA3
:100C6D0012100D8D2BE50DD39402AE0BAF0C7C0045
:100C7D007D64400912100DAE04AF05800B12100DEE
:100C8D00ED24FFFFEC34FFFEEF7802CEC313CE133D
:100C9D00D8F9FBAA06E50DD39402AE0BAF0C7C0080
:100CAD007D64400912100DAE04AF05800B12100DBE
:100CBD00ED24FFFFEC34FFFEEB2FFBEA3EFAAE0B0B
:100CCD00AF0C7C007D6412100DAC06AD07ED780203
:100CDD00CEC313CE13D8F92BFBEA3EFAED25E0FF78
:100CED00EC33FEC3EB9FFBEA9EFAE50DD394024075
:100CFD0005AF0D020EA3E50D240CFF020EA3E50DAD
:100D0D0075F00C84E5F004F50D75F00A84F52CE50D
:100D1D000D75F00A8485F02DE50DD39402AE0BAF61
:100D2D000C7C007D64400912100DAE04AF05800BE4
:100D3D0012100DED24FFFFEC34FFFEEF7802CEC351
:100D4D0013CE13D8F9FBAA06E50DD39402AE0BAF63
:100D5D000C7C007D64400912100DAE04AF05800BB4
:100D6D0012100DED24FFFFEC34FFFEEB2FFBEA3EDE
:100D7D00FAAE0BAF0C7C007D6412100DAC06AD0706
:100D8D00ED7802CEC313CE13D8F92BFBEA3EFAED64
:100D9D0025E0FFEC33FEC3EB9FFBEA9EFAE50DD396
:100DAD0094024004AF0D8005E50D240CFF020EA347
:100DBD00E50C5403700EAE0BAF0CFC7D6412100DE0
:100DCD00ED4C700FAE0BAF0C7C017D9012100DED44
:100DDD004C700CE50DB40207E50E75F01D800BE5AA
:100DED000D9011E493FFE50E8FF084E5F004F50E00
:100DFD00E50E75F00A84F52EE50E75F00A8485F082
:100E0D002FE50DD39402AE0BAF0C7C007D64400931
:100E1D0012100DAE04AF05800B12100DED24FFFF67
:100E2D00EC34FFFEEF7802CEC313CE13D8F9FBAA34
:100E3D0006E50DD39402AE0BAF0C7C007D6440092A
:100E4D0012100DAE04AF05800B12100DED24FFFF37
:100E5D00EC34FFFEEB2FFBEA3EFAAE0BAF0C7C0041
:100E6D007D6412100DAC06AD07ED7802CEC313CE26
:100E7D0013D8F92BFBEA3EFAED25E0FFEC33FEC368
:100E8D00EB9FFBEA9EFAE50DD394024004AF0D8073
:100E9D0005E50D240CFFEF2401FFE433FE7C007DFE
:100EAD001A120FFB7D0A12100DEF2BFFEE3AFE7C8E
:100EBD0000EF250EFFEC3ECF24FFCF34FFFE7D0764
:100ECD0012100D8D3D020F6B0508E50875F01884A5
:100EDD0085F008E50875F00A84F528E50875F00A2F
:100EED008485F02980780509E50975F03C8485F045
:100EFD0009E50975F00A84F52BE509803C050AE53D
:100F0D000A75F03C8485F00AE50A75F00A84F52E21
:100F1D00E50A8043800575350A8043753509803EA5
:100F2D00B200803A050FE50F75F0188485F00FE5D6
:100F3D000F75F00A84F52BE50F75F00A8485F02CFA
:100F4D00801C0510E51075F03C8485F010E51075DA
:0E0F5D00F00A84F52EE51075F00A8485F02F59
:040F6B00E4F5402247
:1005B30030020302079BE535B40E004003020AEC48
:1005C3009005CAF82828730205F40205FA0206000A
:1005D30002060002060002075D02075D02075D02D4
:1005E3000AEC020AEC020AEC02077E020784020705
:1005F30084753505020AEC753502020AECAF287ED4
:10060300007C037DE8120FFBAC06AD07E52975F00E
:1006130064A42DFDEC35F0FCE52A75F00AA42DFF4A
:10062300E5F03CFE7C00EF252BFFEC3EFEE52C7550
:10063300F00AA4252DFDE52E75F00AA4252FFB1243
:1006430010C1EF4E6003020AECAF28FE7C037DE885
:10065300120FFBAC06AD07E52975F064A42DFDEC84
:1006630035F0FCE52A75F00AA42DFFE5F03CFE7C8D
:1006730000EF252BF539EC3EF538E52C75F00AA48F
:10068300252DF536E52E75F00AA4252FF53AE53626
:10069300D39402AE38AF39400B7D6412100DAE0413
:1006A300AF05800F7C007D6412100DED24FFFFEC7D
:1006B30034FFFEEF7802CEC313CE13D8F9FBAA069C
:1006C300E536D39402AE38AF397C007D644009121D
:1006D300100DAE04AF05800B12100DED24FFFFECDF
:1006E30034FFFEEB2FFBEA3EFAAE38AF397C007DD8
:1006F3006412100DAC06AD07ED7802CEC313CE1312
:10070300D8F92BFBEA3EFAED25E0FFEC33FEC3EB11
:100713009FFBEA9EFAE536D394024004AF36800588
:10072300E536240CFFEF2401FFE433FE7C007D1A41
:10073300120FFB7D0A12100DEF2BFFEE3AFE7C0029
:10074300EF253AFFEC3ECF24FFCF34FFFE7D0712A7
:10075300100D8D3D753501020AECE52875F00AA4EC
:100763002529F53BE52B75F00AA4252CF532E52E5A
:1007730075F00AA4252FF52102081775350C020A16
:10078300ECE52B75F00AA4252CF537E52E75F00A58
:08079300A4252FF525020AE957
:10079B00AF287E007C037DE8120FFBAC06AD07E5AE
:1007AB002975F064A42DFDEC35F0FCE52A75F00AF3
:1007BB00A42DFFE5F03CFE7C00EF252BF509EC3E6C
:1007CB00F508E52C75F00AA4252DF50AE52E75F034
:1007DB000AA4252FF50BE53524FE603614700302B1
:1007EB00090F1470030209C524FC502024FE70036A
:1007FB00020AE424FE7003020AE9147003020AE9F8
:10080B00240D6003020AECB201020AECE4F5350296
:10081B000AECE509150970021508AE08AF097C272B
:10082B007D1012100D8C088D09AE08AF097C037D6D
:10083B00E812100D8F28AE08AF097C007D641210F2
:10084B000D7C007D0A12100D8D29AE08AF097C00BE
:10085B007D0A12100D7C007D0A12100D8D2AAE0838
:10086B00AF097C007D0A12100D8D2BE50AD3940283
:10087B00AE08AF097C007D64400912100DAE04AFC9
:10088B0005800B12100DED24FFFFEC34FFFEEF780B
:10089B0002CEC313CE13D8F9FBAA06E50AD39402F2
:1008AB00AE08AF097C007D64400912100DAE04AF99
:1008BB0005800B12100DED24FFFFEC34FFFEEB2F28
:1008CB00FBEA3EFAAE08AF097C007D6412100DAC5A
:1008DB0006AD07ED7802CEC313CE13D8F92BFBEA86
:1008EB003EFAED25E0FFEC33FEC3EB9FFBEA9EFAED
:1008FB00E50AD394024005AF0A020AB3E50A240CB9
:10090B00FF020AB3740A250AF50A75F00C84E5F0A8
:10091B0004F50A75F00A84F52CE50A75F00A84854E
:10092B00F02DE50AD39402AE08AF097C007D64403C
:10093B000912100DAE04AF05800B12100DED24FF44
:10094B00FFEC34FFFEEF7802CEC313CE13D8F9FBC6
:10095B00AA06E50AD39402AE08AF097C007D644079
:10096B000912100DAE04AF05800B12100DED24FF14
:10097B00FFEC34FFFEEB2FFBEA3EFAAE08AF097C2F
:10098B00007D6412100DAC06AD07ED7802CEC313DB
:10099B00CE13D8F92BFBEA3EFAED25E0FFEC33FE44
:1009AB00C3EB9FFBEA9EFAE50AD394024004AF0A1D
:1009BB008005E50A240CFF020AB3E5095403700E07
:1009CB00AE08AF09FC7D6412100DED4C700FAE0834
:1009DB00AF097C017D9012100DED4C7010E50AB43F
:1009EB00020B741B250BF50B75F01D800FE50A90A0
:1009FB0011E493FF24FE250BF50B8FF084E5F00437
:100A0B00F50BE50B75F00A84F52EE50B75F00A84F2
:100A1B0085F02FE50AD39402AE08AF097C007D6404
:100A2B00400912100DAE04AF05800B12100DED2412
:100A3B00FFFFEC34FFFEEF7802CEC313CE13D8F9D1
:100A4B00FBAA06E50AD39402AE08AF097C007D64CD
:100A5B00400912100DAE04AF05800B12100DED24E2
:100A6B00FFFFEC34FFFEEB2FFBEA3EFAAE08AF09BB
:100A7B007C007D6412100DAC06AD07ED7802CEC381
:100A8B0013CE13D8F92BFBEA3EFAED25E0FFEC333E
:100A9B00FEC3EB9FFBEA9EFAE50AD394024004AF38
:100AAB000A8005E50A240CFFEF2401FFE433FE7CEA
:100ABB00007D1A120FFB7D0A12100DEF2BFFEE3A81
:100ACB00FE7C00EF250BFFEC3ECF24FFCF34FFFE67
:100ADB007D0712100D8D3D80087535088003753527
:010AEB000BFF
:040AEC00E4F54022CB
:0300030002125195
:08125100200304D203C20232A3
:030013000212597D
:08125900200304D203D202328B
:1011FB000521E521D3943B4005E4F5210532E53289
:10120B00D3943B4005E4F532053BE53BD3941740C3
:05121B0003E4F53B2295
:1011AA00053AAB3AAD36AF39AE381210C1EF4E60E0
:1011BA0017753A010536E536D3940C400B7536019E
:0911CA000539E5397002053822EF
:03000B00020016DA
:10001600C0E0C0F0C083C082C0D075D000C000C0B0
:1000260001C002C003C004C005C006C0070523E521
:100036002370020522758CFC758A18E52364E87026
:1000460004E52264036003020133F522F52312114D
:10005600FBE53B6003020133E5326003020133E551
:100066002160030201331211AAE536D39402AE3899
:10007600AF397C007D64400912100DAE04AF0580D7
:100086000B12100DED24FFFFEC34FFFEEF7802CECD
:10009600C313CE13D8F9FBAA06E536D39402AE38BD
:1000A600AF397C007D64400912100DAE04AF0580A7
:1000B6000B12100DED24FFFFEC34FFFEEB2FFBEAD5
:1000C6003EFAAE38AF397C007D6412100DAC06AD39
:1000D60007ED7802CEC313CE13D8F92BFBEA3EFA0E
:1000E600ED25E0FFEC33FEC3EB9FFBEA9EFAE53617
:1000F600D394024004AF368005E536240CFFEF2486
:1001060001FFE433FE7C007D1A120FFB7D0A1210FC
:100116000DEF2BFFEE3AFE7C00EF253AFFEC3ECFCB
:1001260024FFCF34FFFE7D0712100D8D3D300303F3
:10013600121172E540B40105120AF08008E540B4D8
:1001460002031205B3E535706130005EE53BB53755
:1001560012E532B5250DE5217009E5234522700328
:1001660075240CE5246043C3E49523E49522500BE3
:10017600C3E52394FAE52294004016C374F495234C
:1001860074019522500FC3E52394EEE522940250A4
:1001960004B2A38002C2A3AE22AF237C007DFA1272
:1001A600100DED4C70041524C2A3E53570403001E6
:1001B6003DE5337011E532700DE5217009E5234503
:1001C600227003753308E5336024D3E52394F4E500
:1001D6002294014004B2A38002C2A3AE22AF237CC4
:1001E600017DF412100DED4C70041533C2A3E535F4
:1001F600B40E004003020598900205F82828730201
:10020600022F0202820203970203C90203FB0203C2
:100216000402033302036502042D02049202051947
:1002260002052202056702057FE53B75F00A84F5A3
:1002360028E53B75F00A8485F029752A10E53275A4
:10024600F00A84F52BE53275F00A8485F02C752DBD
:1002560010E52175F00A84F52EE52175F00A8485EE
:10026600F02FAF3D7401A807088002C333D8FCFF06
:100276003001057E800202FD7E00807BAE38AF39FC
:100286007C037DE812100D8F28AE38AF397C007DD7
:100296006412100D7C007D0A12100D8D29AE38AF48
:1002A600397C007D0A12100D7C007D0A12100D8D1E
:1002B6002AAE38AF397C007D0A12100D8D2BE5363B
:1002C60075F00A84F52CE53675F00A8485F02DE57F
:1002D6003A75F00A84F52EE53A75F00A8485F02F12
:1002E600AF3D7401A807088002C333D8FCFF300174
:1002F600047E8080027E00EF4EF53402048BAF3D13
:100306007401A807088002C333D8FCFF3001047EBD
:100316008080027E00EF4EF534C3E52394F4E52297
:1003260094017DFF5002802D7FFC020595AF3D7440
:1003360001A807088002C333D8FCFF3001047E8081
:1003460080027E00EF4EF534C3E52394F4E5229453
:10035600017DFF50057FFF0205957FE7020595AFFA
:100366003D7401A807088002C333D8FCFF3001049E
:100376007E8080027E00EF4EF534C3E52394F4E5DB
:100386002294017DFF50057FFF0205957F3F020500
:1003960095AF3D7401A807088002C333D8FCFF302F
:1003A60001047E8080027E00EF4EF534C3E523947F
:1003B600F4E52294017DFF50057FFF0205957FF04D
:1003C600020595AF3D7401A807088002C333D8FC27
:1003D600FF3001047E8080027E00EF4EF534C3E5D7
:1003E6002394F4E52294017DFF50057FFF020595D5
:1003F6007FCF020595AF3D7401A807088002C3337D
:10040600D8FCFF3001047E8080027E00EF4EF5347A
:10041600C3E52394F4E52294017DFF50057FFF0296
:1004260005957F3F020595753000753100753C00D6
:10043600753E00E53E75F00A84F528E53E75F00A3E
:100446008485F029752A10E53C75F00A84F52BE5BC
:100456003C75F00A8485F02C752D10AE30AF317CDA
:10046600007D6412100D8F2EAE30AF317C007D649E
:1004760012100D7E007F0ACFCDCFCECCCE12100D3E
:100486008F2F7534007DFF7FFF0205950531E5311D
:1004960070020530D394E7E53094034008753000C8
:1004A600753100053CE53CD3943B4005753C0005A1
:1004B6003EE53ED3943B4003753E00E53E75F00AAB
:1004C60084F528E53E75F00A8485F029752A10E53D
:1004D6003C75F00A84F52BE53C75F00A8485F02C12
:1004E600752D10AE30AF317C007D6412100D8F2E4D
:1004F600AE30AF317C007D6412100D7E007F0ACFD6
:10050600CDCFCECCCE12100D8F2F7534007DFF7F50
:10051600FF807C7534007DFF7FFF8073E53775F0C3
:100526000A84F52BE53775F00A8485F02C752D10B5
:10053600E52575F00A84F52EE52575F00A8485F023
:100546002F30000B752811752911752A1180097530
:10055600280075290F752A0F7534007DFF7FFF80EF
:100566002E753400C3E52394F4E52294017DFF50F3
:10057600047FFF801A7FE78016753400C3E5239455
:10058600F4E52294017DFF50047FFF80027F3F1235
:100596001062D007D006D005D004D003D002D00117
:0D05A600D000D0D0D082D083D0F0D0E03291
:10122000C2A3D2AFD288D2A8D28AD2AAD2B97589A3
:0C12300001D2A9D28C758CFC758A1822A2
:0500060012122080FE33
:101062009011E4E493F508AE3FEFA806088002C3AE
:1010720013D8FC30E00C7428253FF8E69011D39386
:10108200F508AF3FEDA807088002C313D8FC30E093
:1010920013AF3FE534A807088002C313D8FC30E041
:1010A2000353087FE53F9011F193FF12123CAF0802
:0E10B20012123CC2A2D2A2C2A2053F533F07B7
:0110C000220D
:10123C00E4FEEF3392A0C2A1D2A1C2A1EF25E0FF40
:04124C000EBE08EEDC
:01125000227B
:03000000020F6F7D
:0C0F6F00787FE4F6D8FD758140020FB6D3
:100FFB00EF8DF0A4A8F0CF8CF0A428CE8DF0A42E0A
:02100B00FE22C3
:10100D00BC000BBE0029EF8DF084FFADF022E4CCC7
:10101D00F875F008EF2FFFEE33FEEC33FCEE9DEC90
:10102D00984005FCEE9DFE0FD5F0E9E4CEFD22EDD6
:10103D00F8F5F0EE8420D21CFEADF075F008EF2F20
:10104D00FFED33FD4007985006D5F0F222C398FD11
:05105D000FD5F0EA22AE
:100F7B00020006E493A3F8E493A34003F68001F286
:100F8B0008DFF48029E493A3F85407240CC8C33377
:100F9B00C4540F4420C8834004F456800146F6DF46
:100FAB00E4800B010204081020408090111FE47EA6
:100FBB00019360BCA3FF543F30E509541FFEE4933B
:100FCB00A360010ECF54C025E060A840B8E493A302
:100FDB00FAE493A3F8E493A3C8C582C8CAC583CA2D
:100FEB00F0A3C8C582C8CAC583CADFE9DEE780BEE5
:01117100007D
:00000001FF
